:020000040800F2
:10000000000003205D0600087D2300087F23000810
:1000100081230008832300088523000800000000D6
:100020000000000000000000000000004185000802
:100030008723000800000000D1850008597E0008D1
:10004000AD060008AD060008AD060008AD060008C4
:10005000AD060008AD060008AD060008AD060008B4
:10006000AD060008AD060008AD060008AD060008A4
:10007000AD060008AD060008AD060008AD06000894
:10008000AD060008AD060008AD060008AD06000884
:10009000AD060008AD060008AD060008AD06000874
:1000A000AD060008AD060008AD060008AD06000864
:1000B000AD060008AD060008AD060008AD06000854
:1000C000AD060008AD060008AD060008AD06000844
:1000D000AD060008AD060008AD060008AD06000834
:1000E000AD060008AD060008AD060008AD06000824
:1000F000AD060008AD060008AD060008AD06000814
:10010000AD060008AD060008AD060008AD06000803
:10011000AD060008AD06000889230008AD060008FA
:10012000AD060008AD060008AD060008AD060008E3
:10013000AD060008AD060008AD060008AD060008D3
:10014000AD060008AD060008AD060008AD060008C3
:10015000AD060008AD060008AD060008AD060008B3
:10016000AD060008AD060008AD060008AD060008A3
:10017000AD060008AD060008AD060008000000004E
:10018000AD060008AD060008AD060008AD06000883
:10019000AD060008AD060008AD060008AD06000873
:0C01A00095230008AD060008A12300080C
:1001B00010B5054C237833B9044B13B10448AFF3A1
:1001C00000800123237010BD800300200000000088
:1001D000AC49020808B5034B1BB103490348AFF310
:1001E000008008BD0000000084030020AC49020824
:1001F00001F0FF01102A2BDB10F0070F08D010F8D8
:10020000013B013A8B422DD010F0070F42B3F6D1DB
:10021000F0B441EA012141EA014122F007047FF0F4
:1002200000070023F0E80256083C85EA010586EA4B
:10023000010685FA47F5A3FA87F586FA47F6A5FA87
:1002400087F68EB9EED1F0BC01F0FF0102F0070293
:1002500032B110F8013B013A83EA010313B1F8D13E
:100260000020704701387047002D06BF354603381F
:10027000073815F0010F07D1013015F4807F02BF58
:10028000013015F4C03F0130F0BC0138704700BFA9
:100290007BB972B90029BEBF00204FF0004106E0D3
:1002A00008BF00281CBF6FF000414FF0FF3000F086
:1002B000D3B9ADF1080C6DE904CE002909DB002BA0
:1002C0001ADB00F04DF8DDF804E0DDE9022304B0AC
:1002D0007047404261EB4101002B1BDB00F040F80E
:1002E000DDF804E0DDE9022304B0404261EB4101A6
:1002F000524263EB43037047524263EB430300F007
:100300002FF8DDF804E0DDE9022304B0404261EBA0
:1003100041017047524263EB430300F021F8DDF8DE
:1003200004E0DDE9022304B0524263EB430370476B
:1003300053B94AB9002908BF00281CBF4FF0FF314C
:100340004FF0FF3000F088B9ADF1080C6DE904CE34
:1003500000F006F8DDF804E0DDE9022304B07047A0
:100360002DE9F047089D8E4604468846002B4AD169
:100370008A42174662D9B2FA82F64EB1C6F120031C
:1003800001FA06F820FA03F3B74043EA0808B4403C
:100390004FEA174E1FFA87FCB8FBFEF1230C0EFB49
:1003A000118843EA084301FB0CF29A4209D9FB1871
:1003B00001F1FF3080F0EA809A4240F2E780023992
:1003C0003B449A1AA3B2B2FBFEF00EFB102243EAA2
:1003D000024300FB0CFC9C4509D9FB1800F1FF32DD
:1003E00080F0D6809C4540F2D3803B44023840EAFE
:1003F0000140A3EB0C0300211DB1F3400022C5E92D
:100400000032BDE8F0878B4205D90DB1C5E9000186
:1004100000210846F5E7B3FA83F1002946D1734578
:1004200002D3824200F20581841A6EEB030201209E
:100430009046002DE5D0C5E90048E2E7002A00F02B
:100440009080B2FA82F6002E40F0A4808A1A030C43
:100450004FEA174E80B2BCB20121B2FBFEFC0EFB8C
:100460001C2243EA024304FB0CF29A4207D9FB1810
:100470000CF1FF3802D29A4200F2E080C4469B1A87
:10048000B3FBFEF20EFB123340EA034302FB04F41B
:100490009C4207D9FB1802F1FF3002D29C4200F2C5
:1004A000CA8002461B1B42EA0C40A5E7C1F12006A8
:1004B0008B4022FA06F71F430EFA01F420FA06F3E6
:1004C0002EFA06FE4FEA1749234300FA01F81FFAF5
:1004D00087FCBEFBF9F01C0C09FB10EE44EA0E444D
:1004E00000FB0CFEA64502FA01F209D93C1900F105
:1004F000FF3A80F09C80A64540F2998002383C4447
:10050000A4EB0E041FFA83FEB4FBF9F309FB1344BA
:100510004EEA044403FB0CFCA44508D93C1903F142
:10052000FF3E80F08280A4457FD9023B3C4443EAF1
:100530000040A4EB0C04A0FB02EC64457346E146CA
:1005400062D35FD05DB1B8EB030264EB090404FA37
:1005500006F622FA01F31E43CC40C5E900640021EF
:100560004FE7B1FBF2FC010C41EA0E4180B240EAD8
:1005700001423B4638463C46B846BE462026B1FBC3
:10058000F7F1A2EB080241EA0C4166E7014618E7E1
:1005900010462CE7C6F120022EFA02F3B740B14014
:1005A00020FA02F24FEA174E0A43B3FBFEF8BCB240
:1005B0000EFB1833110C41EA034108FB04F9B0406B
:1005C00089454FEA104380B23ED9791808F1FF3CC3
:1005D00001D289451FD8A1EB0901B1FBFEF909FB46
:1005E00004F80EFB191192B242EA0142424529D2A7
:1005F000BA1809F1FF31C4D24245C2D2A9F10201B1
:100600003A44BEE7F0459DD2BEEB02036CEB070C0B
:100610000138E14696E7A7EB09094944A8F1020C25
:10062000B1FBFEF909FB04F8DBE773467FE75046B0
:1006300066E70846FDE63B44023A33E7ACF1020CBC
:100640003B441CE749469CE7A1EB0901C446B1FBCA
:10065000FEF909FB04F8C4E7704700BFDFF834D0A7
:10066000002103E00C4B5B58435004310B480C4B0A
:1006700042189A42F6D30B4A02E0002342F8043BA8
:10068000094B9A42F9D304F0FFFF23F021FC01F05B
:1006900067F8704700000320DC28040800000020F1
:1006A0006401002080030020F0440120FEE7704731
:1006B00008B500F0BFFDBDE8084000F041BD00F006
:1006C000BBBD704710B50421044622F014FA204641
:1006D00010BD000038B50C4B0C4C18800C4B822020
:1006E00019806368984740F6110398420AD1094D72
:1006F00023682C60822098472B688220DB6898470B
:10070000002038BD0120FCE7A60300204C0000209B
:10071000A4030020A80300204FF4A071F020FFF7ED
:10072000D9BF0000F7B5394D2B6804461B698220FC
:100730009847208000284ED02B680DF106025B6997
:1007400001A982209847324B1B78002B4BD0BDF873
:10075000062040F674639A423FD9ADF80630BDF8E2
:1007600006209B1A9BB20A2B42D90B22B3FBF2F351
:10077000284A1288934201D9013A93B2BDF8042065
:10078000254840F6B8318A4234D8C2F571620E323B
:10079000016892B20F25B2FBF5F2204D2D88AA42D6
:1007A00084BF05F1FF35AAB28A4215468EB22AD916
:1007B000921B91B21A4E3768BB42BAB28CBF9A1ADA
:1007C000D21A92B211440529C4BF05603360036890
:1007D00063803368A38003B0F0BDB32A9CBFB4220A
:1007E000ADF80620BBE7BDF80630A3F5B473B9E752
:1007F0000023C3E7C2F56D62083292B20E2A016887
:10080000C8D800252A46891A89B2D3E7A803002050
:1008100068260020A4030020A0030020A6030020D7
:100820009C03002037B568460D461446FFF77AFF53
:10083000BDF8000030B1BDF802302B60BDF80430C7
:100840002360012003B030BD032821D8DFE800F089
:10085000020B12190F4B1A68B2FA82F252090421E4
:100860000D4805F0E7BA0B4B5A68B2FA82F252090A
:100870000821F5E7074B9A68B2FA82F25209102173
:10088000EEE7044BDA68B2FA82F252092021E7E778
:10089000704700BFAC03002000100240032821D89D
:1008A000DFE800F0020B12190F4B1A68003A18BF6C
:1008B000012204210D4805F0BDBA0B4B5A68003ADD
:1008C00018BF01220821F5E7074B9A68003A18BFC4
:1008D00001221021EEE7044BDA68003A18BF01222A
:1008E0002021E7E7704700BFAC0300200010024062
:1008F00003280DD8DFE800F00206080A04210548A5
:1009000005F09DBA0821FAE71021F8E72021F6E763
:10091000704700BF0010024008B5032811D8DFE877
:1009200000F0020A0C0E0421074805F07DFA431E70
:100930005842584108BD0821F6E71021F4E720216C
:10094000F2E70020F3E700BF0010024070B5084D49
:1009500000240126E0B2FFF7DFFF18B12B68012B5E
:1009600018BF2E600134052C05F10405F2D170BDCD
:10097000AC030020012380F8781080F879307047AC
:100980007047002070470000034B4164003918BFD6
:1009900001211970704700BFAF3701207047002058
:1009A0007047836B0BB10846184770474FF6FF70CE
:1009B0007047406803689B691847704770477047E5
:1009C0007047704710B5044600F04CFD236803499A
:1009D000D3F890302046BDE810401847000000D002
:1009E00008B503680446D3F8843098472368204646
:1009F000DB6F984700F0ECF8236820465B6F984760
:100A0000292001F073F900F0E3F8236820465B6FBA
:100A10009847F8E710B504460AF088FB236820469B
:100A2000D3F8BC30BDE81040184700F0FFBC00F020
:100A300003BD00F035BD00F0D5BC00F045BD00F0B1
:100A40004DBD00F0D9BC09F09FBD10B5842104460E
:100A500022F051F8204610BD10B590F8341090F8EF
:100A600078400C4B8C421A7809D03AB90A4A0B49A3
:100A70001488088810800C8001221A7010BD002A8A
:100A8000FCD0054A05491488088810800C80002293
:100A9000F3E700BFA8370120A4370120A6370120C3
:100AA00070B50D46194635B9094B0A4A0A4840F255
:100AB000FF2122F05DFFC0E90F52084B003A18BF3A
:100AC00001221A700368BDE87040D3F890301847CF
:100AD0003C4A0208744A0208C24A0208AE370120A2
:100AE00008B5094B1B888B4203D8084B1B889342DF
:100AF00005D9074B074A0848A32122F039FF074BC5
:100B00001980074B1A8008BDA4370120A6370120A1
:100B1000074B02086A4B0208C24A0208AA370120A2
:100B2000AC370120034690F87A0018B15868036882
:100B30001B68184770470000012108B500220846CD
:100B400007F014FA0A4B186028B90A4B0A4A282100
:100B50000A4822F00DFF00220421012007F0A5FA27
:100B6000074B186018B9074B034A2C21F0E708BD62
:100B7000C0030020AD4B0208F64B0208254C0208CA
:100B8000BC0300206F4C0208024B4FF0FF31186885
:100B900007F036BAC0030020014B186807F05CBAB2
:100BA000C0030020024B0021186807F029BA00BFDB
:100BB000C0030020FFF7F0BF03480449006800238A
:100BC0001A4607F0ADBA00BFBC03002004000020A5
:100BD00013B5084C00231A4601A9206807F0D1FA82
:100BE00020684FF0FF33002201A907F0CAFA02B0D3
:100BF00010BD00BFBC03002003685B6C18470120D8
:100C0000704703689B6A1847FEE740F2EF30704771
:100C1000054B0360054B4FF08062C3F88820BFF39B
:100C20004F8FBFF36F8F70477457020800E100E0E9
:100C300010B504464FF45A61FFF7EAFF204621F051
:100C40005AFF204610BD000082B0002301930E4BD6
:100C50001A6B42F400021A631A6B02F4000201924A
:100C6000019A1A6942F400021A611A6922F4000218
:100C70001A61064B064A1A61064A5A61064B4FF042
:100C800080629A6002B07047003802400C28002051
:100C9000E90E0008090C000800E100E008B50A2888
:100CA00009D8DFE800F006100E0808080810101038
:100CB0001000022008BD054B054A0648902122F08D
:100CC00057FE0020F6E70120F4E700BFB14C020810
:100CD000CC4C0208174D020838B50C46887FFFF748
:100CE000DDFFA58AE28A164B2169586342EA054274
:100CF0005A64628BD963521B1A642568082D0ED181
:100D00009A611A615862207F0E4A42EA0062DA61F3
:100D1000E2681A620C4A5961D9601A6038BD002233
:100D2000D8611A61E1680A0A480902F4784200F4BD
:100D3000FC600243C1F3C4010A439A63034AECE72F
:100D400000B002400900010001230200012303005A
:100D500008B50B280BD8DFE800F00612100A0A0AC3
:100D60000A0808080808022008BD0520FCE7054B12
:100D7000054A06486F2122F0FBFD0020F4E7012020
:100D8000F2E700BFB14C02085F4D0208174D0208A0
:100D90002DE9F04191F81D800C464046FFF7D8FF41
:100DA000A77F05463846FFF7D3FF06463846FFF7CC
:100DB00075FFA18A628B444B521A1A649A61228B86
:100DC000521A1A61E28A586342EA01425A6421695E
:100DD0006268D963DA602068802828D0227F0FD823
:100DE000202867D0402865D004281AD0364B45EA21
:100DF000026545F40035B845DD6161D0334A44E011
:100E0000B0F5807F04D0B0F5007FEFD1304800E02E
:100E1000304840EA0262DA61E2681A625E62596151
:100E200032E045EA026242F40032DA61F6E7A06895
:100E3000021DDA62227F45EA026545F40035DD6174
:100E40005E625961017841B1012921D0224B234AC8
:100E500023484FF48D7122F08BFDDA69418822F42A
:100E60007F42013922F0100242EA0122DA610121B7
:100E7000154BDA6942F02002DA61DA699206FCD495
:100E800010229A600029B9D0164A1A60BDE8F08194
:100E9000B2F1FF01DA69408822F47F4200F1FF30AD
:100EA00022F0100242EA002242F0100218BF012193
:100EB000DA61DDE745EA0262034B42F40032B4E74F
:100EC00042F20132E1E700BF00B00240012301001D
:100ED000090002000A000200A94D0208C34D0208E1
:100EE000174D020801230200024B1B685868036873
:100EF0005B691847B037012070B5044625460A4B98
:100F00000C30002660602672667245F8203B602235
:100F100029460AF061FA04F55A63EE6024359D42D1
:100F2000FBD1204670BD00BF74570208034B1A68FE
:100F3000D207FCD423229A60704700BF00B0024061
:100F40007047000030B50F4C2568ED07FCD4232511
:100F50000904A56041F001010225FF2B656361646E
:100F6000E0630AD00849656241EA0363E361074B25
:100F700022626061E060236030BDE561039BA36392
:100F8000034BF8E700B00240090001000100020035
:100F90000100030030B50E4C2568ED07FCD4232575
:100FA0001204A56042F001020225FF2B6563626412
:100FB000E063E16008D01B0643F00213E361054BD8
:100FC00065626061236030BD034BE3610123F9E793
:100FD00000B0024001000200020002FF30B50B4CDD
:100FE0002568ED07FCD4232512041B06A56043F4F5
:100FF0000033022542F0010265636264E063E16050
:10100000E361034B65626061236030BD00B0024064
:1010100001000200012070470C2070470C2303FBE5
:101020000100083070470C2303FB010008307047B3
:101030000120704741F25C10704741F25C1303FBE2
:1010400001000830704741F25C1303FB01000830D7
:101050007047012070471020704700EB01100830E6
:10106000704700EB011008307047084601F046BC9D
:1010700010B5034B0360044608F0DDFF204610BDA9
:101080002C58020810B50446FFF7F2FF2046142141
:1010900021F031FD204610BD10B5034B036004461E
:1010A00008F0C9FF204610BDF857020810B50446E5
:1010B000FFF7F2FF204641F2641121F01CFD2046AB
:1010C00010BD000010B5034B0360044608F0B3FFE9
:1010D000204610BDC457020810B50446FFF7F2FFC2
:1010E0002046182121F007FD204610BD10B5094B00
:1010F0000360044600F58C501030FFF7B9FF04F18F
:101100002C00FFF7C9FF04F11400FFF7DBFF2046B6
:1011100010BD00BF6058020808B50248FFF7E6FF9F
:1011200008BD00BF9C12002010B50446FFF7DEFF8B
:10113000204641F2043121F0DEFC204610BD0000C3
:101140002DE9F34101F0AAF9054601F0ABF90024BD
:101150000146234628462246009412F039FC274BCC
:10116000274A1A60204603F0ABFB264D264B274A40
:1011700027489A6012F094FB2B68BFF35B8FDB0764
:1011800036D4284621F0B9FC90B3224C224F234B91
:10119000236007F1180604F1140004F12C086060C4
:1011A000C4F80880E760266108F046FF1C4B6361C5
:1011B000404608F041FF1B4BE362384608F03CFF15
:1011C00004F5805303F5D270174AC3F8902103F059
:1011D00001FC224607F11401304603F0F1FB3046D2
:1011E00001F08CFB114822F0E1FB284621F091FC34
:1011F0000F4802B0BDE8F041FFF7E4BB143801200E
:101200004804002098120020680400204C040020AC
:10121000080000209C1200202C24002060580208A6
:10122000C4570208F85702082C5802081911000880
:10123000C4030020704700000148FFF7D1BB00BF86
:10124000C403002070B5264E264C274D274B236043
:101250003046FFF751FE284617F0C0FC244810F036
:10126000C7F8244B2448DC6000224FF48071C3E9A6
:10127000121222491A86C3E91A12214983F858200A
:10128000C3E91E011F49C3F880101F491F480B60A6
:10129000F021C3E90422C3E90622C3E90822C3E915
:1012A0000A22C3E90E22C3E91022C3E91422C3E9CA
:1012B00017225A6683F870205A67C3E901650180D6
:1012C0001348018013484FF4A07101801248018037
:1012D00012490A70012283F83420114A1A6070BD45
:1012E000F404002094120020680400202C4A020814
:1012F0004C040020C4030020000001010100000193
:10130000000450001A001400B0370120A437012057
:10131000AA370120A6370120AC370120A8370120C9
:10132000885602080148FFF773BC00BFF404002090
:101330000020704781807047C180704701817047ED
:10134000418170477047704770477047704710B4CD
:10135000C4880368121B84885B6D091B12B25DF898
:10136000044B09B218474FF6FF7383814FF0FF33E8
:1013700003621368C36110607047002070478B8858
:10138000838001207047704780F82610704790F8DE
:101390002600704710B50022B1F90840B1F90A10D3
:1013A000028042808480C18010BD00220280428081
:1013B0008280C28070470177704780ED080A7047CD
:1013C00080F82410704780F825107047012070477E
:1013D000983070478C307047843070477047704742
:1013E00070470000034B902283F85A2383F8582358
:1013F000704700BF00E100E0094A0A49D3680A4883
:10140000C3F30A03013B9BB20B801169C1F30A01CC
:10141000013901801364536B43F001035363704738
:1014200000680140A2250020A0250020014BD3F830
:10143000AC00704700680140024B0122C3F8AC10B9
:101440005A6270470068014010B52C21044621F013
:1014500052FB204610BD10B5BC21044621F04BFBC9
:10146000204610BD70B5044609F0E3F823689D6E70
:101470000EF056FD01462046A8472368054AD3F8DA
:101480008C502046AC460023BDE87040A2F51631D2
:10149000604700BF00B004D009F0B2B809F0BCB892
:1014A00009F078B809F0E7B990F8252012B103687F
:1014B0005B691847704790F825201AB190F82420EE
:1014C00002B1186070470000034B4FF080629A60D1
:1014D0004FF080729A60704700E100E0084B4FF0D7
:1014E0008062C3F88820BFF34F8FBFF36F8F4FF038
:1014F0008072C3F88820BFF34F8FBFF36F8F7047A0
:1015000000E100E070B50023124E8380124B0360AF
:10151000336893F8582005460AB1D86C00B998682A
:101520000368DB6A98473368B0FA80F4D86C6409C2
:1015300030B10368DB6A9847002808BF44F0010413
:101540002CB9064B064A07482C2122F011FA2846EE
:1015500070BD00BFB037012074580208014E020868
:101560005F4E0208984E020870B5254E3568BFF3ED
:101570005B8F15F0010540D1304621F0BEFA0028FE
:101580003BD0204C204B256104F13400C4E90035E8
:10159000C4E90255E584A562A58510F00EFA04F1B0
:1015A00058000BF0CDFB194BA3652046184B40F8B3
:1015B000843BFFF7A7FF174BC4F884302433C4F8EB
:1015C0008C304FF4C803C4E928350023C4F8AC308C
:1015D000C4F8B030C4F8B430C4F8B8300E480F4B7B
:1015E000C4F89050C4F89C50C4F8A850C4F898307F
:1015F00022F0DCF9304621F08CFA024870BD00BFC1
:10160000A4250020A825002000660208945802089E
:101610000C590208B4650208E11300089465020839
:1016200038B5184C23685BB3174B184A1B6C1188EC
:101630008B4216D1164B198805F0E6F9236893F80A
:101640006A200025013283F86A2083F87C50FFF776
:10165000B3FA206809F06AFD2846BDE83840FFF774
:10166000F3B805F0D1F92468236820461B6A98472F
:10167000012384F87C300020BDE83840FFF70EB924
:1016800038BD00BFB037012000680140A22500200E
:10169000A025002007B5064BADF806001B680548DD
:1016A00001220DF1060105F09BFF03B05DF804FB7C
:1016B0000C000020A826002008B5642006F04AFC93
:1016C000FBE7000030B595B0102200210AA822F0F7
:1016D00056FB1422002103A822F051FB00241E4BCC
:1016E00001941A6C42F080521A641B6C03F0805310
:1016F0000193019B194B02941A6842F440421A600C
:101700001B6803F4404302930122029B4FF4803391
:10171000CDE9082302254FF480030821CDE90E53BB
:101720004FF4B473CDE9101308A804231393129552
:1017300005F0C2F905F086F90F23CDE903354FF422
:10174000A0504FF48053CDE90603052103A805946A
:1017500005F08EFB15B030BD00380240007000402F
:101760002DE980489BB003F09DFFFFF7ABFF1422EB
:1017700000210DA822F003FB0024C74B00941A6B34
:10178000C648C74D42F010021A631A6B02F01002ED
:101790000092009A01941A6B42F020021A631A6BAD
:1017A00002F020020192019A02941A6B42F0800228
:1017B0001A631A6B02F080020292029A03941A6B67
:1017C00042F004021A631A6B02F004020392039AB5
:1017D00004941A6B42F001021A631A6B02F00102C0
:1017E0000492049A05941A6B42F002021A631A6B6F
:1017F00002F002020592059A06941A6B42F040022A
:101800001A631A6B02F040020692069A07941A6B4A
:1018100042F008021A631B6B03F008032246079389
:101820003C21079B04F006FB9E480122022104F0A4
:1018300001FB22469B48042104F0FCFA22469A4808
:101840004FF4405104F0F6FA01263C23CDE90D3661
:1018500092480F9403230DA90227109304F000FA75
:1018600090480DA9CDE90D76CDE90F4404F0F8F9C3
:1018700004238C480DA9CDE90D36CDE90F4704F0BE
:10188000EFF90DA94FF440538748CDE90D36CDE966
:101890000F4704F0E5F98548854B036004F0D6F85E
:1018A000DFF834C2834B2C62C5E900C328464FF4ED
:1018B0008043C5E90434C5E90244C5E9064404F09F
:1018C000C7FC1021284604F00BFF2146284604F0EF
:1018D00026FF794DDFF804E2AC624FF48273C5E96C
:1018E00000E34FF400781823C5E9068328460A234D
:1018F000C5E90244C5E90444C5E90844EB6205F0C2
:1019000013FE8F232246394666488DF824308DF821
:10191000344004F08FFA32464FF47A7309A928460E
:1019200005F05EFE4FF47A7332460DA9284606F0A4
:1019300003F8324639465B48604D04F07BFA9DF867
:101940003430D32B04BF5E4B1E705E4B0126C5E9BD
:1019500000364FF0100840230024C5E904834FF4FB
:10196000C073C5E906344FF40063C5E908344FF489
:10197000005302274FF0040AAB624FF0030B07231A
:101980000DA92846CDE90D73CDE90FA34FF0080945
:10199000C5E9024ACDE911B7139705F0A9FC4FF646
:1019A000FF7209A92846CDE90A96089409960C9475
:1019B00005F0BEFC304603F0A1FE4FF6FF7209A908
:1019C0002846CDE90979CDE90B6405F0B1FC4FF665
:1019D000FF7209A92846CDE909B9CDE90BA405F0A4
:1019E000A7FC4FF40C730893089B0C934FF6FF72FF
:1019F00009A92846CDE909A90B9605F099FC40F202
:101A00006A51284605F0B2FC342221460DEB020053
:101A100022F0B5F92C4D2D4B2C61C5E9003409237A
:101A2000C5E905361D23C5E9073B40F20D1240F21A
:101A30004313C5E9092340F2171140F24713284622
:101A4000C5E90B13C5E90244AC8685F8364004F0BD
:101A5000F9FEFF21F022CDE912144FF48060052138
:101A60004FF4A073CDE91401CDE90E240DA9CDE901
:101A7000164228462246CDE91037154D18930D948D
:101A8000ADF864408DF8664004F090FF114B2B6078
:101A90001B6898472B6823E0003802400010024082
:101AA000B827002000080240000C02404C2800200B
:101AB00000300240A0860100A826002074260020E5
:101AC00068260020400100A0102700200068014087
:101AD0006426002014000020005C004000500140FB
:101AE000374DDB689847374B2846C5E90034C5E9D0
:101AF0000274C5E90A47C5E90C4403F0B7FF314653
:101B0000284604F069F8304D304F424621460DA872
:101B100022F035F92E4BAC604FF480392846C5E9E8
:101B200000392C612C7685F82040EC62AF62EC60C5
:101B3000EE6185F830406E6103F0F4FD0DA9284692
:101B4000CDE90D46234D0F9403F092FE4246214607
:101B50000DA822F014F9204BAC602846C5E90039E5
:101B6000C5E90A742C612C7685F82040EC60EE61A2
:101B700085F830406E6103F0D5FD0DA92846CDE90A
:101B80000D660F9403F074FE1448154B036005F0C6
:101B900063FBFEF78DFDFEF78AFD06F06BF9114A37
:101BA0001148214606F092F9104B114A186021465F
:101BB000104806F08BF9104B186006F06DF9FEE73F
:101BC0000C28002000B002409C2800200100000FDB
:101BD000002001405428002000210140002700205F
:101BE0000008065074590208B91600087026002033
:101BF00050590208BF0600086C2600207047704745
:101C00007FB5094B8DF817201B6802930DF1170261
:101C10000123009201930A460146044804F0C0FBE8
:101C200007B05DF804FB00BF10000020B8270020BB
:101C30007FB500238DF81730084B1B6802930A46C6
:101C400001230DF11701009101930146044804F0AE
:101C500037FC9DF8170007B05DF804FB100000206A
:101C6000B82700201FB5084C24680092CDE9013444
:101C70000A4601230146054804F022FC003818BF3B
:101C8000012004B010BD00BF10000020B8270020C4
:101C900003F034BD10B5064C00222046042104F0A8
:101CA000C9F820460122BDE81040042104F0C2B862
:101CB0000008024038B50B4D044601220A484FF493
:101CC000005104F0B7F800220421284604F0B2F8CD
:101CD0002046FFF7DFFC28460122BDE838400421FA
:101CE00004F0A8B800080240000C024038B50B4DC3
:101CF000044600220A484FF4005104F09BF80022E9
:101D00000421284604F096F82046FFF7C3FC284635
:101D10000122BDE83840042104F08CB800080240DC
:101D2000000C0240F7B5144E144F05460C463046E1
:101D30000022042104F07EF800224FF400513846BE
:101D400004F078F82846FFF7A5FC0D4B0D481B68FA
:101D5000224601A905F0F0FD384601224FF400515A
:101D6000019C04F067F830460122042104F062F877
:101D7000204603B0F0BD00BF00080240000C024046
:101D80000C000020A826002003F0B8BC0268034B1A
:101D90009A4201D103F0A0BC704700BF0010004080
:101DA0007047000082B00E4B00220092596C41F443
:101DB00080415964596C01F480410091009901926D
:101DC000196C41F0805119641B6C03F0805301932E
:101DD000019B0F216FF0010002B003F0F7BD00BFBF
:101DE0000038024010B514228AB0044600210DEBE1
:101DF000020021F0C4FF23681E4A93421FD11E4BEC
:101E0000002101915A6C42F480725A645A6C02F4B7
:101E100080720192019A02911A6B42F001021A63D8
:101E20001B6B03F001030293029B012305931348EC
:101E3000032305A9069303F013FF0AB010BD104A4F
:101E40009342FAD10C4B002103915A6C42F4007278
:101E50005A645A6C02F400720392039A04911A6B4A
:101E600042F001021A631B6B03F001030493049B0D
:101E70000223DBE70020014000380240000002405E
:101E8000002101400268094B9A4282B00BD1002325
:101E90000193074B1A6B42F480521A631B6B03F4D5
:101EA00080530193019B02B0704700BF0030024095
:101EB0000038024007B50F4B02689A4216D1002243
:101EC000A3F5F0430192196B41F4000119631B6BF8
:101ED00003F40003019305215A20019B03F076FDD2
:101EE0005A2003B05DF804EB03F0A2BD03B05DF827
:101EF00004FB00BF00B002402DE9F043044689B066
:101F00001422002103A821F03AFF2268244B9A42B0
:101F100043D1244C244800250095236B43F004034F
:101F20002363236B03F004030093009B0195236B51
:101F300043F001032363236B03F001030193019B2F
:101F40004FF012094FF400734FF0010803270426E5
:101F500003A9CDE90339CDE90587079603F080FE93
:101F60004FF480731148079603A9CDE90339CDE9F1
:101F7000058703F075FE0295236C43F40003236488
:101F8000236C03F400030293029B236A43F40003CF
:101F90002362236A23F40003236209B0BDE8F083BF
:101FA000005C00400038024000080240000002408F
:101FB000F0B599B004461422002107A821F0DFFEF5
:101FC00030220DEB0200002121F0D9FE22685E4B89
:101FD0009A4240F0B78008230C93C0231093042347
:101FE00012930CA84FF40033159305F009F808B1CB
:101FF000FFF7D6FE554B5648002400945A6C42F029
:1020000080625A645A6C02F080620092009A0194D5
:102010001A6B42F020021A631A6B02F0200201923E
:10202000019A02941A6B42F001021A631A6B02F0D1
:1020300001020292029A03941A6B42F002021A639E
:102040001A6B02F002020392039A04941A6B42F094
:1020500040021A631A6B02F040020492049A05943B
:102060001A6B42F004021A631A6B02F00402059222
:10207000059A06941A6B42F008021A631B6B03F070
:102080000803069302250E26069B0B964FF48063E9
:1020900007A9CDE90735CDE9094503F0E1FD41F692
:1020A00058032C480B9607A9CDE907350927CDE938
:1020B000094503F0D5FD032327480B9707A9CDE970
:1020C0000735CDE9094503F0CBFD4FF47063224895
:1020D0000B9607A9CDE90735CDE9094503F0C0FD09
:1020E0004FF40C631D480B9607A9CDE90735CDE9E0
:1020F000094503F0B5FDC02319480B9607A9CDE9A2
:102100000735CDE9094503F0ABFD082315480B96CB
:1021100007A9CDE90735CDE9094503F0A1FD4FF445
:10212000A0530E480B9707A9CDE90735CDE909451E
:1021300003F096FD58202246052103F047FC582065
:1021400003F076FC19B0F0BD006801400038024091
:102150000014024000000240000402400018024047
:1021600000080240000C02400268094B9A4282B00B
:102170000BD100230193074B5A6B42F040025A6384
:102180005B6B03F040030193019B02B0704700BFFB
:10219000000806500038024010B5044688B01422EA
:1021A000002103A821F0EBFD2268144B9A4223D1B1
:1021B00003F56843002101915A6C114842F48012E2
:1021C0005A645A6C02F480120192019A02911A6BBD
:1021D00042F020021A631B6B03F020030293029B60
:1021E0004FF4607202230321CDE903230523CDE9D7
:1021F000061303A903F034FD08B010BD00500140E0
:10220000001402402DE9F04186B0002303932B4BCC
:102210001C68002C4FD14FF00108C3F80080284BF8
:1022200000949A6B274842EA08029A639B6B03EA80
:1022300008030093022703260C25009B01A94FF6F3
:102240003F03CDE90137CDE9046503F009FD1E48E0
:10225000059501A9CDE90187CDE9034603F000FD0D
:1022600048F233131948059501A9CDE90137CDE9A5
:10227000034603F0F5FC4FF683731548059501A955
:10228000CDE90137CDE9034603F0EAFC4CF20373D4
:102290001048059501A9CDE90137CDE9034603F0C2
:1022A000DFFC60230C48059501A9CDE90137CDE994
:1022B000034603F0D5FC06B0BDE8F081E428002019
:1022C000003802400014024000080240001802409A
:1022D00000100240000C02400004024070B588B0BB
:1022E00000230293204B1A6C42F010021A641B6CFC
:1022F00003F010030293054601A903A8029B04F012
:1023000061FE069B4BBB04F04DFE184E184B33602C
:1023100040F2E733F360174BB0FBF3F3013B73601C
:10232000304600233361B360B36105F0CFFC04464F
:1023300080B9304605F0A4FB044658B9362003F0B6
:1023400077FB0F2D0DD822462946362003F03EFBA1
:10235000094B1D60204608B070BD04F023FE40000C
:10236000D3E70124F6E700BF00380240E828002048
:102370000010004040420F007C0000207047FEE744
:10238000FEE7FEE7FEE77047014805F0B7BB00BF78
:10239000E8280020014804F0ACBA00BF1027002054
:1023A000014803F08FBB00BF0C28002001207047BC
:1023B00008B521F087FD162303604FF0FF3008BDFC
:1023C00008B521F07FFD16230360FEE770B50D46CA
:1023D00014460E46731B9C4201DC204670BDAFF3D1
:1023E000008006F8010BF5E770B50D4614460E4661
:1023F000731B9C4201DC204670BD16F8010BAFF345
:102400000080F5E74FF0FF3070474FF400534B600A
:102410000020704701207047002070470A4A116869
:1024200008B5034609B909491160106869460344B3
:102430008B4206D921F046FD0C2303604FF0FF309C
:1024400008BD1360FCE700BF30290020F0440120E4
:10245000704708B5042918D8DFE801F003070B0F0F
:10246000130002F079FA006808BD02F075FA4068BE
:10247000FAE702F071FA8068F6E702F06DFAC068D8
:10248000F2E702F069FA0069EEE70020ECE710B528
:102490000421044620F02FFB204610BD0048704761
:1024A000AC5902080420704713B5002451B10368E9
:1024B00001948DF8034001AA9C680DF10303A04725
:1024C00002B010BD0846FBE7C0897047008A70471C
:1024D000C088704780887047807A00F07F0070471E
:1024E000807AC00970470020704700009FED010A04
:1024F000704700BF00000000704710B50821044677
:1025000020F0F9FA204610BD7047704700F5987327
:102510000868496803C37047704770474160704757
:1025200070477047064BC0F84C310023C0F850315B
:1025300000F5A273C0F84801C0F84031704700BFF1
:1025400031270008012303727047704710B4C26836
:1025500041685410034601EB6200D20748BF0A5994
:102560009B685DF8044B48BFD35818470346406842
:1025700030B19A681AB9D86800F00100704701209C
:10258000704710B50C21044620F0B5FA204610BD66
:1025900010B51021044620F0AEFA204610BD10B54B
:1025A0004FF4AE71044620F0A6FA204610BD10B5D7
:1025B0000DF0B6FC0368BDE81040DB6B184710B5A2
:1025C0000446D0F8400158B10368DB68984738B139
:1025D000D4F8400103689B6898470023C4F8403151
:1025E00010BD00002DE9F14FD0E9556A0746B068EB
:1025F00003681B6A984741F25B13984205D8444B25
:10260000444AA321444821F0B3F9706803681B6A67
:1026100098470F2803D8414B3E4AA421F2E7F068BF
:1026200003681B6A98470B2803D83D4B394AA521FC
:10263000E8E70DF075FCDFF8F09004300DF095FC44
:10264000D9F8000010B10368DB689847D9F800009A
:1026500010B103681B689847DFF8D080D8F80000F5
:1026600010B103685B699847D7F83C0110B1036863
:102670005B689847D8F8000010B103681B6898475A
:10268000D7F83C0110B103689B689847F06803686D
:1026900000215B6A98474FF0000B224BC0F804B052
:1026A000044680F808B00360B068036859465B6A66
:1026B0009847054602F000FA7068036859465B6A5D
:1026C00098472946064602F0D3F9331DC7F83C6106
:1026D000C9F80040C8F80050CAF800302B68C6F8A6
:1026E00008A02846DB68EE639847336830461B68CD
:1026F0009847214628460FF0C3FD236820461B69F2
:10270000984723685B69204601B0BDE8F04F184741
:102710000F4F02089D4F02086F500208B650020882
:1027200059510208805A0208F8370120F437012075
:102730002DE9F14FD0E9556A0746B06803681B6A76
:102740009847B0F5CE7F05D2444B454AA321454872
:1027500021F00EF9706803681B6A98470F2803D8A8
:10276000414B3F4AA421F2E7F06803681B6A98478F
:102770000B2803D83D4B3A4AA521E8E70DF0D0FBE2
:10278000DFF8F09004300DF0F0FBD9F8000010B144
:102790000368DB689847D9F8000010B103681B682C
:1027A0009847DFF8D480D8F8000010B103685B695F
:1027B0009847D7F83C0110B103685B689847D8F890
:1027C000000010B103681B689847D7F83C0110B1AE
:1027D00003689B689847F068036800215B6A984724
:1027E0004FF0000B224BC0F804B0044680F808B04C
:1027F0000360B068036859465B6A9847054602F073
:102800001DF97068036859465B6A98472946064671
:1028100002F0F2F8331DC7F83C61C9F80040C8F86F
:102820000050CAF800302B68C6F808A02846DB68BC
:10283000EE639847336830461B6898472146284620
:102840000FF01EFD236820461B69984723685B69CB
:10285000204601B0BDE8F04F184700BF0F4F0208F7
:10286000FC5102086F500208B65002085951020884
:10287000805A0208F8370120F4370120044B1B6806
:1028800093F858200AB1D86C00B99868704700BF17
:10289000B0370120F8B5174604460E460DF002FC8D
:1028A000124B1C60124B2360124B0025C4E95135BA
:1028B000114BC4E953551868036801219B68C4E9AA
:1028C0004F55C4E955769847284601F0F9FFFFF7C0
:1028D000D5FF18F02CF8FFF7D1FF18F0A3F8FFF799
:1028E000CDFF18F0ABF82046F8BD00BF043801203A
:1028F0002C5A0208145A0208B0370120064BC0F8BF
:102900004C310023C0F8503100F5A273C0F84801E3
:10291000C0F84031704700BF31270008064BC0F8AF
:102920004C310023C0F8503100F5A273C0F84801C3
:10293000C0F84031704700BFE5250008406A704785
:10294000806A704770478A880B8810B5D20A4C8815
:10295000C1699BB251F8220043EA0443184410BDF8
:1029600010B50446BAB1107B68B1537BD27A1B0212
:1029700003F4E0631A43236A03EB82031A888A4252
:1029800002D193F9020010BD05D8013880B204339A
:102990000028F3D1F7E70020F5E710B52C21044615
:1029A00020F0A9F8204610BD30B58BB00446BDF824
:1029B00060500895BDF85C5007959DF850500695FD
:1029C0009DF84C5005959DF8485004959DF844504D
:1029D00003959DF8405002959DF83C500195BDF837
:1029E000385000950FF0A6F8064B2360159BE36165
:1029F000169B2362199B63621A9BA36220460BB04D
:102A000030BD00BFA45A0208806A70477047704703
:102A100070477047704770477047704770477047FE
:102A200090F82C304BB100F16C021268C2653BB1DA
:102A300000F174031B680366704700F16802F4E755
:102A400000F17003F6E708B590F82C303BB100F1C7
:102A5000C4031B68C0F8A830FFF7E2FF08BD00F10F
:102A6000C003F6E730B4C26844685510034604EB6F
:102A70006200D20748BF62599B6830BC48BFD35838
:102A800018470346406830B19A681AB9D86800F010
:102A9000010070470120704790F82D3080F8AE306B
:102AA00080F85A30704790F82D3080F85A307047CF
:102AB00010B57821044620F01EF8204610BD10B550
:102AC000C821044620F017F8204610BD10B510218B
:102AD000044620F010F8204610BD10B54FF4CE711A
:102AE000044620F008F8204610BD10B50446006BDF
:102AF00050B10368DB68984730B1206B036821460A
:102B00009B68BDE81040184710BD70B50D7990F86E
:102B10002C3004463DB93BB123682046D3F88830B9
:102B2000BDE8704018477BB1B5FA85F35B0984F8BE
:102B30002C3023682046D3F88C30984723682046F1
:102B40005B699847002DE7D070BDC430884208B556
:102B500005D10DF0E5F9BDE80840FFF7DFBE08BD7F
:102B600070B5036804461B6B1546984723682946D1
:102B700020465B6BBDE87040184770B5036804469B
:102B80009B6B15469847236829462046DB6BBDE8BA
:102B90007040184738B504461D46FFF7E1FFBDF900
:102BA000102029462046FFF7E8FF38BD0022C0E983
:102BB0000122C0E90322C0E90522C0E907224FF43F
:102BC00080728284014A0260704700BF0C5B020879
:102BD00010B526220446002121F0D1F82046FFF747
:102BE000E5FF044B2360FF2384F826300023A36213
:102BF000204610BD546702084FF47F4370B5064667
:102C0000838540F2011300258384274B8562C0E948
:102C10000155C0E90355C0E90555C0E907550563ED
:102C200046F8343B04463046FFF7D2FF1F4B636340
:102C30002A4629463046C4E91A55C4E91C5525667A
:102C4000A4F86450FFF78CFF31462046264607F073
:102C500005FA174B46F8783B26222946304621F0E4
:102C60008EF83046FFF7A2FF124BA367124BC4F851
:102C7000A0304FF6FF73A4F8A4304FF47F03C4F8DC
:102C8000AC304FF0FF332046C4E92E35C4E930554F
:102C9000C4F8A850A4F8B050C4F8B450314607F0B6
:102CA000DDF9204670BD00BF745B0208BC670208F6
:102CB000105C0208C4660208045A02082DE9F04FAD
:102CC000044685B0A04600250FF02EF9564BE5636B
:102CD00048F8403B04F16C0A404604F19806FFF7BF
:102CE00077FF5046FFF774FF4FF6FF7726222946FD
:102CF0003046ADF8087021F042F83046FFF756FF35
:102D00004A4BC4F89830BDF80830A4F8BE3002A988
:102D100084F8C070304604F1C4070AF005FD384657
:102D2000FFF76AFF424BC4E96334424B4FF4A07B88
:102D3000C4E965352A4629464046CDF800B0F0235F
:102D4000FFF728FF04F104094FF07F43A3664146D3
:102D5000484607F083F92A4629465046CDF800B088
:102D6000F023FFF717FF344BC4F894305146484620
:102D700007F074F9202229463046FFF7F1FE02A938
:102D80003046ADF808500AF0CFFC314648463C26A4
:102D900007F064F92A46294604F1F8000096B423A6
:102DA000FFF7F8FE0323A4F82831244BC4E94B3382
:102DB000234BC4E94D33D4F8C4303846D3F88C30B3
:102DC000984704F59E781F4B029302A92A23404698
:102DD000ADF80C300AF04CFBB4F9CE20B4F9CC10AD
:102DE0004046FFF7CAFE29460A2240460096B42311
:102DF000FFF7D0FE4FF0FF33C4E961333846FFF7E9
:102E000022FE04F5C673C4F8F430DF22B42338463A
:102E100000961E21FFF7BEFE4846394607F01EF910
:102E2000204605B0BDE8F08FC45C020824680208A3
:102E3000AC5C02084B2B0008D0E8EDFF697578FF09
:102E4000464D4FFF045A020830B5036885B06D4601
:102E50000181D3F88430014604462846984795E816
:102E600007003C3484E8070005B030BD30B5036886
:102E700085B06D464181D3F884300146044628462A
:102E8000984795E807003C3484E8070005B030BD5A
:102E90000022028042808280C280704780F8361013
:102EA000704770B5036804461B6B15469847236846
:102EB000294620465B6EBDE87040184700207047E9
:102EC000806C704770477047704770477047704715
:102ED0007047704790F82C304BB100F16C021268CB
:102EE000C2653BB100F174031B680366704700F1D3
:102EF0006802F4E700F17003F6E708B590F82C30AB
:102F00003BB100F1C4031B68C0F8A830FFF7E2FF33
:102F100008BD00F1C003F6E730B4C268446855103C
:102F2000034604EB6200D20748BF62599B6830BC7D
:102F300048BFD35818470346406830B19A681AB959
:102F4000D86800F0010070470120704790F82D30DC
:102F500080F8AE3080F85A30704790F82D3080F805
:102F60005A30704710B54C2104461FF0C4FD20466E
:102F700010BD10B5782104461FF0BDFD204610BDE0
:102F800010B5C82104461FF0B6FD204610BD10B58F
:102F9000102104461FF0AFFD204610BD10B541F2D0
:102FA000141104461FF0A7FD204610BD08B5FEF71A
:102FB0007BFA08BD036870B55E6B124B1B68044654
:102FC0008DB22BB9104B114A6C21114820F0D0FC66
:102FD0001049828D0988914203D80F4B0B4A6D210D
:102FE000F3E713F812200D4B1B6853F82200036817
:102FF0001B6B9847291A3346204609B2BDE870403A
:10300000184700BF08380120CE52020810530208AA
:103010004B5302080C38012092530208103801204B
:103020000B7970B590F82C6004460D460BB916B1BB
:1030300070BD002EFCD0B3FA83F35B0984F82C300A
:1030400023682046D3F88C309847236820465B6974
:103050009847002EECD02B79012BE9D1236820462C
:10306000D3F88830BDE87040184700F6084399420D
:1030700070B504460D4603D10CF052FFFFF73EFC3D
:1030800004F523639D4203D10CF04AFFFFF736FCA1
:1030900004F6C8039D4203D10CF042FFFFF72EFC5B
:1030A00004F54D639D4205D1236820461B6BBDE8A6
:1030B0007040184770BD00004FF480710022818479
:1030C00005490160C0E90122C0E90322C0E90522E7
:1030D000C0E9072282627047D464020800224FF0E0
:1030E000FF31C0E900218260704710B50446FFF748
:1030F000F5FF204610BD000010B500210446262231
:1031000020F03DFE2046FFF751FD094B2360094B9F
:10311000A3624FF6FF73A3854FF47F020023C4E937
:103120000C32238704F13C00FFF7D8FF204610BD86
:10313000C4660208045A020810B50446FFF7DCFF13
:10314000024B23600023A364204610BDF85C0208F4
:1031500070B50446FFF7B0FF4FF47F432646A385C2
:103160000123002584F82430134B256346F8343BB3
:103170003046FFF72DFD114B63632A462946304642
:10318000C4E91A55C4E91C552566A4F86450FFF734
:10319000E7FC31462046264606F060FF084B46F81D
:1031A000783B3046FFF7A8FF2046C4E9305531464A
:1031B00006F054FF204670BD885D0208BC67020817
:1031C000245E020810B40367019B436703685DF83F
:1031D000044BD3F88C30C0E91A12184738B50446AE
:1031E00000F1780528460AF043F9B4F90A20B4F949
:1031F00008102846FFF7C1FC38BD0368C0E930124B
:10320000D3F88C30184700002DE9F04F0446BFB0CA
:10321000254600260EF088FEDB4BE66345F8403B72
:1032200004F16C072846FFF7D3FC04F1980A3846EE
:10323000FFF7CEFC04F1C4095046FFF73DFF4846B6
:10324000FFF7C6FC04F1F003184604F58E7B2193CA
:10325000FFF7BEFC5846FFF76FFF04F5B47318463E
:103260002293FFF7B5FC04F5CA7318461193FFF7D4
:1032700063FF04F5F07318462393FFF7A9FC04F5E8
:10328000037318461293FFF757FF04F51673184699
:103290002493FFF79DFC04F5217318461393FFF761
:1032A0004BFF04F5347318462593FFF791FC04F5A2
:1032B0003F7318461493FFF73FFF04F55273184607
:1032C0002693FFF785FC04F55D7318460393FFF71B
:1032D00033FF04F5707318462793FFF779FC04F564
:1032E0007B7318461593FFF727FF04F5876318468D
:1032F0002893FFF76DFC04F2644318461693FFF71A
:103300001BFF04F5966318462993FFF761FC04F24E
:10331000DC4318461793FFF70FFF04F5A563184623
:103320002A93FFF755FC04F2545318461893FFF7FD
:1033300003FF04F5B46318462B93FFF749FC04F22E
:10334000CC5318461993FFF7F7FE04F5C3631846EC
:103350002C93FFF73DFC04F2446318461A93FFF7E1
:10336000EBFE04F5D26318462D93FFF731FC04F20F
:10337000BC6318461B93FFF7DFFE04F5E1631846B4
:103380002E93FFF725FC04F2347318461C93FFF7C5
:10339000D3FE04F5F06318462F93FFF719FC04F2EF
:1033A000AC7318461D93FFF7C7FE04F5FF6318467C
:1033B0003093FFF70DFC04F6240318461E93FFF725
:1033C000BBFE04F5076318460493FFF775FE04F689
:1033D0009C0318463193FFF7FBFB04F6C80318461D
:1033E0000593FFF7B5FE04F5196318460693FFF73A
:1033F00083FE04F6D81318460293FFF75DFE04F629
:10340000042318463293FFF7E3FB04F523631846C1
:103410000793FFF79DFE04F6F82318460893FFF77D
:1034200097FE04F53C6318460993FFF765FE04F622
:10343000084318460A93FFF78BFE04F54D631846C0
:103440000B93FFF785FE04F6985318460C93FFF78D
:1034500033FE04F6C45318463393FFF7B9FB04F563
:103460005F6318461F93FFF767FE04F63C63184638
:103470000D93FFF741FE04F6846318460E93FFF7A1
:103480001BFE04F56B6318463493FFF7A1FB04F6AB
:10349000DC6318462093FFF74FFE04F628731846A6
:1034A0000F93FFF729FE04F5776326224FF6FF7886
:1034B000314618461093ADF8EC8020F060FC10986F
:1034C000FFF774FB314BC4F8703FBDF8EC30109837
:1034D000A4F8963F84F8988F3BA90AF025F92C4A66
:1034E00004F58053C3E941242A4A4FF4A078C3E984
:1034F000432628463246CDF80080F0233146FFF7B8
:1035000049FB4FF07F43A366231D29461846359398
:1035100006F0A4FD32463846CDF80080F02331464F
:10352000FFF738FB1C4BC4F89430DC253946201DCE
:1035300006F094FD2B4600955A220A215046FFF7CB
:1035400029FB2B463246484600953146FFF722FBC1
:10355000124BC4F8EC304946504606F07FFD322746
:10356000A6221146219800973B46FFF713FB0C4B10
:103570002199C4F81831504606F070FD1323B62285
:103580000093AB210EE000BFD85E02082468020859
:10359000C05E02086B300008D0E8EDFF7483B5FF11
:1035A0006691E8FF28235846FFF7F4FA4FF07F436F
:1035B000C4F84C31D4F81C31A4F8506136ADD3F8BE
:1035C0008430DFF8508059462846984795E8070030
:1035D00004F5AC7383E80700D8F8003004F69C7952
:1035E0002BB9074B074A6021074820F0C1F9074B68
:1035F0001B88022B10D8064B024A6121F4E700BF5A
:10360000CE520208D05302084B5302080C38012056
:103610009253020808380120CE4B0221186801F0AD
:103620008BF9CD4A03460A21484610F02BF91423A2
:103630005846C4F864913BA9DFF82893ADF8F03000
:10364000CDF8EC9009F014FF5946504606F006FDFF
:103650003B4622980097A6227021FFF79BFABF4AAB
:103660002299C4F89021504606F0F8FC1321B622A6
:103670001198009128237521FFF78CFAD4F8943122
:10368000A4F8C8614FF07F41D3F88430C4F8C41166
:1036900028461199984795E8070004F5E87383E8F0
:1036A0000700D8F8003004F57B6B002B99D0AC49AB
:1036B0000B88032B9FD9A74B0321186801F03CF915
:1036C000A54A03460A21584610F0DCF83BA815230A
:1036D0000146C4F8DCB11198ADF8F030CDF8EC90AB
:1036E00009F0C6FE1199504606F0B8FC3B462398F7
:1036F0000097A6223A21FFF74DFA984A2399C4F879
:103700000822504606F0AAFC1320B6220090282377
:1037100012983E21FFF73EFAD4F80C321299D3F8F2
:103720008430A4F840624FF07F40C4F83C02284641
:10373000984795E8070004F5127383E80700D8F866
:10374000003004F6C47B002B3FF44BAF84490B8858
:10375000042B7FF650AF7F4B0421186801F0ECF882
:103760007D4A03460A21584610F08CF83BA81623E0
:103770000146C4F854B21298ADF8F030CDF8EC9090
:1037800009F076FE1299504606F068FC3B462498F4
:103790000097A6220421FFF7FDF9704A2499C4F886
:1037A0008022504606F05AFC1320B62200902823AF
:1037B00013980921FFF7EEF9D4F884321399D3F85E
:1037C0008430A4F8B8624FF07F40C4F8B4022846B1
:1037D000984795E8070004F5307383E80700D8F8A8
:1037E000003004F6D87B002B3FF4FBAE5C490B881D
:1037F000052B7FF600AF574B0521186801F09CF8A8
:10380000554A03460A21584610F03CF83BA81723B6
:103810000146C4F8CCB21398ADF8F030CDF8EC9076
:1038200009F026FE1399504606F018FC3B4670221C
:1038300025980097A621494FFFF7ACF92599C4F8C0
:10384000F872504606F00AFC1322149800922823BE
:103850008022AA21FFF79EF9D4F8FC321499D3F8FC
:103860008430A4F830634FF07F422846C4F82C23FC
:10387000984795E8070004F54E7383E80700D8F8E9
:10388000003004F6EC75002B3FF4ABAE34490B88E6
:10389000062B7FF6B0AE2F4BDFF8CC8018680621E0
:1038A00001F04AF82C4A03460A2128460FF0EAFFA5
:1038B000C4F844533BAD18231498ADF8F0302946B2
:1038C000CDF8EC9009F0D4FD1499504606F0C6FBF3
:1038D000322670221146334626980096FFF75AF991
:1038E0002699C4F87073504606F0B8FB13202823BD
:1038F0008022009075210398FFF74CF936AF4FF006
:103900007F404FF000090399C4F8A403A4F8A893DA
:103910003846FFF7EAFB039800F13C0397E80700FD
:1039200083E80700D8F8003004F5805B002B3FF4F3
:1039300058AE0B4F3B88072B7FF65DAE054B07213A
:10394000186800F0F9FF044A03460A2158460FF0B0
:1039500099FF0BE0143801201B5402086691E8FF20
:103960000C380120045A020808380120D049039875
:10397000C4F8BCB319233B912946ADF8F03009F0E7
:1039800077FD0399504606F069FB33462798009669
:1039900070223A21FFF7FEF8C64A2799C4F8E823B7
:1039A000504606F05BFB1320282380223F21009025
:1039B0001598FFF7EFF84FF07F40C4F81C04A4F807
:1039C00020942846FFF78AFB95E8070004F58563F5
:1039D00083E80700D8F800300BF1140B002B3FF4FC
:1039E00000AE3B88082B7FF606AEB34B0821186863
:1039F00000F0A2FFB14A03460A2158460FF042FFE9
:103A0000AB491598C4F834B41A233B912946ADF854
:103A1000F03009F02DFD1599504606F01FFB334696
:103A20002898009670220421FFF7B4F8A14A28993B
:103A3000C4F86024504606F011FB1320282380228E
:103A4000092100901698FFF7A5F84FF07F40C4F8C1
:103A50009404A4F898942846FFF740FB95E80700E3
:103A600004F5946383E80700D8F8003004F5815B1F
:103A70000BF1080B002B3FF4B4AD3B88092B7FF60C
:103A8000BAAD8D4B0921186800F056FF8B4A0346EA
:103A90000A2158460FF0F6FE85491698C4F8ACB4D2
:103AA0001B233B912946ADF8F03009F0E1FC169953
:103AB000504606F0D3FA3346299800963A22A621BA
:103AC000FFF768F87B4A2999C4F8D824504606F0D5
:103AD000C5FA132028234A22AB2100901798FFF73C
:103AE00059F84FF07F40C4F80C05A4F8109528460B
:103AF000FFF7F4FA95E8070004F5A36383E80700ED
:103B0000D8F8003004F5815B0BF11C0B002B3FF45F
:103B100068AD3B880A2B7FF66EAD674B0A211868AB
:103B200000F00AFF654A03460A2158460FF0AAFE34
:103B30005F4917983B911C232946C4F824B5ADF87A
:103B4000F03009F095FC1799504606F087FA334695
:103B50002A9800963A227021FFF71CF8554A2A99B4
:103B6000C4F85025504606F079FA132028234A223B
:103B7000752100901898FFF70DF84FF07F40C4F8BA
:103B80008405A4F888952846FFF7A8FA95E8070069
:103B900004F5B26383E80700D8F8003004F58255D5
:103BA0001035002B3FF41DAD3B880B2B7FF623AD6A
:103BB000414B0B21186800F0BFFE404A03460A2122
:103BC00028460FF05FFE3A49C4F89C553BAD1D23D3
:103BD00018983B912946ADF8F03009F049FC189946
:103BE000504606F03BFA3A22334611462B9800968F
:103BF000FEF7D0FF2F4A2B99C4F8C825504606F08F
:103C00002DFA132028234A223F2100901998FEF70D
:103C1000C1FF4FF07F40C4F8FC05A4F80096284689
:103C2000FFF75CFA95E8070004F5C16383E8070035
:103C3000D8F8003004F5835B0BF1040B002B3FF444
:103C4000D0AC3B880C2B7FF6D6AC1B4B0C211868F4
:103C500000F072FE194A03460A2158460FF012FE80
:103C600013491998C4F814B61E233B912946ADF8A0
:103C7000F03009F0FDFB1999504606F0EFF9334694
:103C80002C9800963A220421FEF784FF094A2C99C9
:103C9000C4F84026504606F0E1F9132028234A22B2
:103CA000092100901A98FEF775FF4FF07F4007E05A
:103CB000045A02086691E8FF143801201B540208D8
:103CC000C4F87406A4F878962846FFF707FA95E832
:103CD000070004F5D06383E80700D8F8003004F546
:103CE000835B0BF1180B002B3FF47BAC3B880D2B57
:103CF0007FF681ACD24B0D21186800F01DFED14A31
:103D000003460A2158460FF0BDFDCF491A98C4F862
:103D10008CB61F233B912946ADF8F03009F0A8FB83
:103D20001A99504606F09AF933462D9800960422C7
:103D3000A621FEF72FFFC54A2D99C4F8B826504694
:103D400006F08CF9132028231422AB2100901B9835
:103D5000FEF720FF4FF07F40C4F8EC06A4F8F09681
:103D60002846FFF7BBF995E8070004F5DF6383E811
:103D70000700D8F8003004F5845B0BF10C0B002B26
:103D80003FF42FAC3B880E2B7FF635ACAC4B0E21AD
:103D9000186800F0D1FDAB4A03460A2158460FF0DF
:103DA00071FDA9491B98C4F804B720233B9129460B
:103DB000ADF8F03009F05CFB1B99504606F04EF967
:103DC00033462E98009604227021FEF7E3FE9F4AA8
:103DD0002E99C4F83027504606F040F913202823C6
:103DE0001422752100901C98FEF7D4FE4FF07F40FE
:103DF000C4F86407A4F868972846FFF76FF995E8B8
:103E0000070004F5EE6383E80700D8F8003004F5F6
:103E1000855B002B3FF4E5AB3B880F2B7FF6EBABCC
:103E2000874B0F21186800F087FD864A03460A2158
:103E300058460FF027FD84491C983B9121232946C1
:103E4000C4F87CB7ADF8F03009F012FB1C9950466D
:103E500006F004F933462F98009604223A21FEF723
:103E600099FE7A4A2F99C4F8A827504606F0F6F82A
:103E7000132228233F211D9800921422FEF78AFE68
:103E80004FF07F42C4F8DC272846A4F8E097FFF7FC
:103E900025F995E8070004F5FD6383E80700D8F8E5
:103EA00000305D461435002B3FF49BAB3B88102B54
:103EB0007FF6A1AB624BDFF890911868102100F0FB
:103EC0003BFD3BAE5F4A03460A2128460FF0DAFC71
:103ED00022231D98C4F8F4573146ADF8F030CDF8E0
:103EE000EC9009F0C5FA1D99504606F0B7F8322259
:103EF00013460092042211463098FEF74BFE534BB6
:103F00003099C4F82038504606F0A8F81322092149
:103F10001E98009228231422FEF73CFE00254FF045
:103F20007F43C4F85438A4F858583046FFF7D6F801
:103F300096E8070004F5066383E80700D8F8003028
:103F400004F586570837002B3FF44BAB40490B88EC
:103F5000112B7FF650AB3A4B1121186800F0ECFCA6
:103F6000384A03460A2138460FF08CFC23231E985A
:103F7000C4F86C783146ADF8F030CDF8EC9009F02B
:103F800077FA50461E9906F069F85146201D06F052
:103F900065F868200090F023049894222946FEF7E3
:103FA000F9FD6820F0232A4684F8955829460090A8
:103FB0003198FEF7EFFD27483199C4F8C408192756
:103FC000049806F04BF83C232A46294604F6FC00E8
:103FD0000097FEF7DFFD4FF0020C1F4AA4F82CC932
:103FE00000921E4A1E4B05981146FFF7EBF8252359
:103FF0000598ADF8F03031464FF0FF38CDF8EC9031
:10400000FFF7ECF83C230322294604F514600097DF
:10401000FEF7C0FD04F5885A059842464146FFF771
:10402000ECF80AF1040A3C231A46C4F8F8A80598EB
:1040300000975A21FEF7AEFDDDE9040112E000BF52
:10404000143801201B540208045A02086691E8FF44
:104050000C3801202D5403FF996633FF1F0EB2FF69
:10406000663300FF05F0FAFF0DF1D80B0F2206981A
:104070004A21FEF775FD0699C4F8C0895846A4F890
:10408000C45908F05BFF069800F13C039BE8070069
:1040900083E8070024230698ADF8F0303146CDF8C8
:1040A000EC9009F0E5F90699049805F0D7FF04991A
:1040B000201D05F0D3FF4FF0680E0298CDF800E008
:1040C000F02394222946FEF765FD4FF0680EF02399
:1040D0002A46329884F8FD592946CDF800E0FEF7CB
:1040E00059FDD1483299C4F82C0A029805F0B6FF60
:1040F0003C232A46294604F664200097FEF74AFD31
:104100004FF0020CC94AA4F894CA0092C84AC94B9D
:1041100007981146FFF756F826230798ADF8F030B8
:104120003146CDF8EC90FFF759F83C23032229469D
:1041300004F6A8200097FEF72DFD07984246414659
:10414000FFF75BF83C231A46C4F860AA079800976B
:10415000A021FEF71FFD0799029805F07FFF6E234F
:104160002A46294604F62C300097FEF713FD4FF03F
:10417000020CAE4AA4F85CCB0092AD4AAD4B089855
:104180001146FFF71FF827230898ADF8F0303146A5
:10419000CDF8EC90FFF722F86E230322294604F5B0
:1041A00037600097FEF7F6FC089842464146FFF755
:1041B00024F86E233C22089800971421FEF7EAFCAD
:1041C0000899029805F04AFF0F2209980C21FEF782
:1041D000C7FC0999C4F8F08B5846A4F8F45B08F0C2
:1041E000ADFE099800F13C039BE8070083E8070057
:1041F00028230998ADF8F0303146CDF8EC9009F05D
:1042000037F90999029805F029FF0299201D05F058
:1042100025FF3C232A46294604F63C400097FEF73A
:10422000B9FC824A834B84490A984FF0020CA4F8E7
:104230006CCC0092A2F54B12A2F6CD42FEF7C2FF63
:104240002D230A98ADF8F0303146CDF8EC90FEF70A
:10425000C5FF3C230322294604F548600097FEF77A
:1042600099FC0A9842464146FEF7C7FF3C231A468E
:10427000C4F838AC0A980097AA21FEF78BFC0A997B
:10428000201D05F0EBFE3C232A46294604F6045087
:104290000097FEF77FFC654A664B67490B984FF025
:1042A000020CA4F834CD0092A2F54B12A2F6CD4236
:1042B000FEF788FF29230B98ADF8F0303146CDF892
:1042C000EC90FEF78BFF3C230322294604F648506E
:1042D0000097FEF75FFC0B9842464146FEF78DFFC4
:1042E0003C231A46C4F800AD0B9800976421FEF7F2
:1042F00051FC0B99201D05F0B1FE322000903C23AB
:104300000C980522AA21FEF745FC32203C232A46C0
:10431000009029463398FEF73DFC48483399C4F88D
:10432000EC0D0C9805F09AFE4FF0130E2A233A4636
:1043300009211F98CDF800E0FEF72CFCC4F8208E70
:10434000A4F8245E3046FEF7C9FE96E8070004F69E
:104350002C6383E807003A4A136804F5865A0AF189
:104360001C0A002B3FF43DA936490B88002B3FF473
:1043700042A9354B2946186800F0DEFA334A034655
:104380000A2150460FF07EFA12231F98C4F838AE67
:104390003146ADF8F030CDF8EC904FF0140A09F04A
:1043A00067F81F990C9805F059FE3C2301220D98DF
:1043B000CDF800A02946FEF7EDFB0D99C4F86C8EF0
:1043C0005846A4F8705E08F0B9FD0D9800F13C0362
:1043D0009BE8070083E807002C230D98ADF8F03028
:1043E0003146CDF8EC9009F043F8DDE90C0105F019
:1043F00035FE0C99201D05F031FE4FF0320E0E985F
:10440000CDF800E03C2305226421FEF7C3FB4FF00A
:10441000320ECDF800E03C232A4634982946FEF7B8
:10442000B9FB0648349913E02D5403FF996633FF16
:104430001F0EB2FF663300FF996600FF46468FFFEE
:10444000083801200C380120143801201B540208C0
:10445000C4F8D80E0E9805F001FE13203A462A2320
:10446000092100902098FEF795FBC4F80C8FA4F862
:10447000105F3046FEF732FE96E8070004F6187328
:1044800083E80700314A136804F587571037002B7B
:104490003FF4A7A82E490B88012B7FF6ACA82D4B23
:1044A0000121186800F048FA2B4A03460A213846D1
:1044B0000FF0E8F94FF013032098C4F8247F314639
:1044C000ADF8F030CDF8EC9008F0D2FF20990E98BE
:1044D00005F0C4FD0F98CDF800A03C230122294629
:1044E000FEF758FB0F99C4F8588F5846A4F85C5F44
:1044F00008F024FD9BE807000F9BCDF8EC903C33BF
:1045000083E807002B230F98ADF8F030314608F010
:10451000AFFFDDE90E0105F0A1FD0E99201D05F0AC
:104520009DFD052210980A21FEF71AFB4FF0020CA0
:104530001098ADF8ECC0314609F0F6F8201D10993E
:1045400005F08CFD20463FB0BDE8F08F0838012013
:104550000C380120143801201B5402087047000059
:1045600030B5164D2C6814F001048FB0BFF35B8F8B
:1045700021D128461EF0C1FAE8B1114B1149124869
:104580000A94CDE90B433F230993104B0893104B3A
:1045900005940122CDE906430423CDE903320E231D
:1045A0000093CDE90144FEF7FFF90A481FF0FEF938
:1045B00028461EF0AEFA04480FB030BD3429002062
:1045C0000C5F0208687E020838290020B8810208C2
:1045D000F48102085D4500087047000030B5174DB2
:1045E0002C6814F001048FB0BFF35B8F23D12846F1
:1045F0001EF083FAF8B1124B124913480A94CDE920
:104600000B433F230993114B0893114B079301234D
:10461000CDE9054304930423CDE902430F2300931E
:104620001C2213230194FEF7BFF90A481FF0BEF9BC
:1046300028461EF06EFA04480FB030BD64290020F1
:104640000C5F0208787E020868290020BC810208FD
:10465000F8810208D94500087047000030B5174DB1
:104660002C6814F001048FB0BFF35B8F23D1284670
:104670001EF043FAF8B1124B124913480A94CDE9DF
:104680000B433F230993114B0893114B07930123CD
:10469000CDE9054304930423CDE90243112300939C
:1046A00015231A460194FEF77FF90A481FF07EF998
:1046B00028461EF02EFA04480FB030BD9429002081
:1046C0000C5F02080080020898290020C0810208BF
:1046D000FC810208594600087047000030B5164DAD
:1046E0002C6814F001048FB0BFF35B8F21D12846F2
:1046F0001EF003FAE8B1114B114912480A94CDE9B2
:104700000B433F230993104B0893104B0594012250
:10471000CDE906430423CDE9033214230093CDE908
:104720000144FEF741F90A481FF040F928461EF0FF
:10473000F0F904480FB030BDC42900200C5F020816
:1047400028810208C8290020E481020800820208AA
:10475000D94600087047000030B5174D2C6814F09A
:1047600001048FB0BFF35B8F23D128461EF0C5F93B
:10477000F8B1124B124913480A94CDE90B433F2379
:104780000993114B0893114B07930123CDE905437E
:1047900004930423CDE902431E2300930922252319
:1047A0000194FEF701F90A481FF000F928461EF0AF
:1047B000B0F904480FB030BDF42900200C5F0208A6
:1047C00038810208F8290020E881020804820208E2
:1047D0005547000800207047002070470EB403B50D
:1047E00003AB002153F8042B01930CF021FC02B021
:1047F0005DF804EB03B070470CB407B504AB53F895
:10480000042B01930CF014FC03B05DF804EB02B030
:1048100070470000436C10B5044673B3038F2BB987
:10482000184B194AC52119481FF0A2F8C38E00EB96
:1048300043035B8C0BB30EF07CFA238F012B03D860
:10484000134B144ACB21EEE7E28E531C9BB2092B8B
:10485000194688BFA3F10A0104EB410140F63F105D
:10486000498C814209D10A2B04EB420228BF002364
:1048700004EB4303508C588451842046BDE810401B
:104880000EF05AB91E54020827540208D2540208E6
:104890001C5502082A5502080EF015B910B586B04D
:1048A00002AC84E806001A460AAB05930193099B03
:1048B00000932146089B0AF0D1FE06B010BD00000F
:1048C00038B518BB124B13481C681349B4B12268A1
:1048D00022440260626822440A60A26814440F4BBA
:1048E00000221A8000F038F8054600F033F80C4B2F
:1048F0001C600C4B1D600C4B188007E00B4B0360D9
:104900000B4B0B600B4B1C68002CE8D138BD00BF73
:10491000302A0020282A0020242A00202C2A0020C7
:1049200008380120103801200C380120C08202080C
:1049300008820208B8830208044B1B6853F8210060
:10494000034B1B6803EB4000704700BF242A002084
:10495000282A00202E20704700487047342A002063
:1049600010B5FFF7BBFE074C2060FFF7F5FE606057
:10497000FFF7F6FDA060FFF731FEE060FFF76EFE87
:10498000206110BD342A002010B5002404600C60A2
:1049900014601C6010BD704710B54FF4AE71044632
:1049A0001EF0A9F8204610BD10B50446D0F85801F5
:1049B00000F013F82046BDE810400BF033BB0000B8
:1049C00010B50446FDF766FF014B2360204610BD7D
:1049D0006C63020800220260704770477047043819
:1049E0007047704710B5102104461EF084F8204629
:1049F00010BDA0F10400F5E700228260024A0260C7
:104A000018324260C1607047C063020870470000FE
:104A100010B5034B03600446FEF700F8204610BDB6
:104A2000E863020810B50446FFF7F2FF20464FF492
:104A3000CE711EF060F8204610BD000010B504468F
:104A4000FEF73CF9014B2360204610BDE8630208E5
:104A5000FDF7E5BF704704387047704710B5102167
:104A600004461EF048F8204610BDA0F10400F5E70A
:104A700000228260024A026018324260C1607047C0
:104A80001C64020870470368DB68184710B5034BC5
:104A900003600446FEF71CFA204610BD4464020879
:104AA00010B50446FFF7F2FF204641F25C111EF0FC
:104AB00022F8204610BD000010B50446FEF7A4FB06
:104AC000014B2360204610BD44640208F7B505463B
:104AD00000F5895200F58B510024A2F1100353F820
:104AE000040F00B901349342F9D103F110028A4254
:104AF000F3D17CB31E48694602F0C6FB08B100231F
:104B00000093009BB3FBF4F204FB123205F58853CB
:104B1000103300264FF0FF311846002450F8047F70
:104B2000E7B901318A4219D1114801A902F0ACFB61
:104B300090B9019B0A22B3FBF2F102FB1133092B5E
:104B400014BF0223042304EB860404F2444405EB5F
:104B50008400436003B0F0BD0223F4E70134042C69
:104B6000DCD10136042E03F11003D5D1F2E700BFEA
:104B7000002700202DE9F04FBBB000F624030A9374
:104B800000F2AC730B9300F234730C9300F2BC632D
:104B90000D9300F244630E9300F2CC530F9300F296
:104BA0005453109300F2DC43119300F264431293C8
:104BB00000F57B73139300F55D73149300F53F7359
:104BC000159300F52173169300F50373179300F501
:104BD000CA73189300F58E73199300F5FF631A9347
:104BE00000F5F0631B9300F5E1631C9300F5D263BD
:104BF0001D9300F5C3631E9300F5B4631F9300F586
:104C0000A563209300F59663219300F587632293B3
:104C100000F57073239300F55273249300F53473F9
:104C2000259300F51673269300F5F073279300F58E
:104C3000B473289300F1F003299300F586530833E9
:104C40002A9300F5855314332B9300F585532C9349
:104C500000F584530C332D9300F5835318332E93B2
:104C600000F5835304332F9300F5825310333093B0
:104C700000F581531C33319300F58153083332938F
:104C800000F580531433339300F58053349300F6CA
:104C9000EC73359300F6D873369300F6C4733793EC
:104CA00000F57B63389300F69C7339933D4B02AA61
:104CB000044603F12007164618685968154603C5CF
:104CC0000833BB422A46F7D1DFF810914FF01008A5
:104CD00004F588574744A8F1100501960AAB0198DE
:104CE00053F805B03049314A1AAB55F803A057F8CC
:104CF000043F002B08BF0A4630F8021B01902AA887
:104D000040590EF0BFFD3A68402A3DD027DC082A02
:104D10003CD01DDC022A3BD0254B042A18BF4B4651
:104D2000CAF82830DBF8003058465B699847DAF853
:104D3000003050465B69043598474545CED1402D3B
:104D400005F1100806F10806C2D13BB0BDE8F08FAE
:104D5000102A1FD0174B202A18BF4B46E0E7B2F5A8
:104D6000007F19D007DC802A18D0134BB2F5807F62
:104D700018BF4B46D4E7B2F5806F11D00F4BB2F598
:104D8000006F18BF4B46CBE70D4BC9E70D4BC7E78C
:104D90000D4BC5E70D4BC3E70D4BC1E70D4BBFE70F
:104DA0000D4BBDE7C44902084C560208FC550208E9
:104DB000C8E0EDFF5F7CF6FF61CCEDFF2EC2EDFF9A
:104DC0003B5EF6FF79B1F2FFDAE4EEFF6395F5FFA3
:104DD00050C8EDFF72CFEDFF3FC5EDFFB5C1CDFF70
:104DE0002DE9F74F002200F588570446103701924D
:104DF000904600F580590026BC464FF0FF3A3146F8
:104E00004FEA820B5CF8043FE3B1002926DD01F193
:104E1000FF3E0BEB0E0504EB850505F58055D5F837
:104E2000140183421AD1D64518D05B00C5F814315D
:104E3000D9F8540118440123C9F85401F246CCF8BA
:104E4000008001930136042EDCD10132042A07F1DF
:104E50001007D0D1019803B0BDE8F08FB1420AD05D
:104E60000BEB010000F2444004EB8000436001239F
:104E7000CCF8008001930131E4E72DE9F74F0022DF
:104E800000F58957044604370192904600F5805991
:104E90000326BC464FF0040A31464FEA820B5CF809
:104EA000043DE3B1022925DC01F1010E0BEB0E05F7
:104EB00004EB850505F58055D5F81401834219D119
:104EC000D64517D05B00C5F81431D9F85401184401
:104ED0000123C9F85401F246CCF800800193013E49
:104EE000DDD20132042A07F11007D1D1019803B0B5
:104EF000BDE8F08FB1420AD00BEB010000F2444054
:104F000004EB800043600123CCF800800193013959
:104F1000E5E7002300F5885C2DE9F04F0CF1140C57
:104F200004469B469E4600F58058002667464FF093
:104F3000FF3931463A68E2B1002927DD01F1FF3A35
:104F400003EB8A0504EB850505F58055D5F81401BA
:104F500082421BD1CA4519D05200C5F81421D8F895
:104F600054011044C8F85401D146C7F800E04FF08E
:104F7000010B0136042E07F11007DBD10133042B9E
:104F80000CF1040CD1D15846BDE8F08FB1420AD0E3
:104F900003EB810000F2444004EB80004FF0010B72
:104FA0004260C7F800E00131E3E7002300F58A5CC6
:104FB0002DE9F04F0CF1040C04469B469E4600F58B
:104FC0008058032667464FF0040931463A68E2B13B
:104FD000022927DC01F1010A03EB8A0504EB8505B0
:104FE00005F58055D5F8140182421BD1CA4519D068
:104FF0005200C5F81421D8F854011044C8F85401DF
:10500000D146C7F800E04FF0010B013E721CA7F13A
:105010001007DBD10133042B0CF1040CD1D158461D
:10502000BDE8F08FB1420AD003EB810000F24440AA
:1050300004EB80004FF0010B4260C7F800E001393B
:10504000E3E7000010B500F58053044600F58750F3
:10505000D3F85431054A0A2110300EF013FC04F63F
:10506000DC60BDE810400CF00DB900BFFC55020833
:1050700000F58053D3E9552110B58A420446C8BFD4
:10508000C3F8582100F58650D3F85831054A0A2153
:105090001C300EF0F7FB04F55F60BDE810400CF02B
:1050A000F1B800BFFC55020810B50446FDF711FF2A
:1050B00004F5885304F58A51143314310022C3E9EE
:1050C0000022C3E9022210338B42F8D104F5805349
:1050D000C3E955222046FFF7F9FC2046FFF7F6FC0E
:1050E0002046FFF747FD2046FFF7ACFF2046BDE80E
:1050F0001040FFF7BDBF532910B5044619D004D89E
:10510000412919D044291BD010BD5729FCD1FFF7E4
:1051100000FF0028F8D02046FFF7D8FC2046FFF714
:1051200029FD2046FFF78EFF2046BDE81040FFF71F
:105130009FBFFFF73AFFECE7BDE81040FFF750BE16
:10514000BDE81040FFF799BEF02070474FF4A07003
:1051500070472920FCF7CABD2820FCF7C7BD08B559
:10516000FCF798FDCA20FCF7C1FDC320FCF7A2FDA7
:105170000820FCF79FFD5020FCF79CFDCF20FCF79A
:10518000B5FD0020FCF796FDC120FCF793FD302013
:10519000FCF790FDED20FCF7A9FD6420FCF78AFDEB
:1051A0000320FCF787FD1220FCF784FD8120FCF72B
:1051B00081FDE820FCF79AFD8520FCF77BFD0020AF
:1051C000FCF778FD7820FCF775FDCB20FCF78EFD11
:1051D0003920FCF76FFD2C20FCF76CFD0020FCF75C
:1051E00069FD3420FCF766FD0220FCF763FDF72023
:1051F000FCF77CFD2020FCF75DFDEA20FCF776FD46
:105200000020FCF757FD0020FCF754FDB120FCF70F
:105210006DFD0020FCF74EFD1B20FCF74BFDB6207A
:10522000FCF764FD0A20FCF745FDA220FCF742FDD7
:10523000C020FCF75BFD1020FCF73CFDC120FCF713
:1052400055FD1020FCF736FDC520FCF74FFD45202D
:10525000FCF730FD1520FCF72DFDC720FCF746FDBF
:105260009020FCF727FD3620FCF740FDC820FCF716
:1052700021FDF220FCF73AFD0020FCF71BFDB020D9
:10528000FCF734FDC220FCF715FDB620FCF72EFD1F
:105290000A20FCF70FFDA720FCF70CFD2720FCF7E8
:1052A00009FD0420FCF706FD2A20FCF71FFD002065
:1052B000FCF700FD0020FCF7FDFC0020FCF7FAFCE9
:1052C000EF20FCF7F7FC2B20FCF710FD0020FCF78B
:1052D000F1FC0020FCF7EEFC0120FCF7EBFC3F208A
:1052E000FCF7E8FCF620FCF701FD0120FCF7E2FCEE
:1052F0000020FCF7DFFC0620FCF7DCFC2C20FCF790
:10530000F5FCC820FCF740FD2620FCF7EFFC01204F
:10531000FCF7D0FCE020FCF7E9FC0F20FCF7CAFC0E
:105320002920FCF7C7FC2420FCF7C4FC0C20FCF768
:10533000C1FC0E20FCF7BEFC0920FCF7BBFC4E2094
:10534000FCF7B8FC7820FCF7B5FC3C20FCF7B2FC7D
:105350000920FCF7AFFC1320FCF7ACFC0520FCF7A0
:10536000A9FC1720FCF7A6FC1120FCF7A3FC0020E9
:10537000FCF7A0FCE120FCF7B9FC0020FCF79AFC4C
:105380001620FCF797FC1B20FCF794FC0420FCF78C
:1053900091FC1120FCF78EFC0720FCF78BFC3120E0
:1053A000FCF788FC3320FCF785FC4220FCF782FCEC
:1053B0000520FCF77FFC0C20FCF77CFC0A20FCF7A6
:1053C00079FC2820FCF776FC2F20FCF773FC0F20DB
:1053D000FCF770FC1120FCF789FCC820FCF7D4FC1A
:1053E0002920FCF783FCBDE808402C20FCF77EBC9C
:1053F00008B5FCF74FFC0321D320FCF793FC80B2E7
:1054000008BD10B5C4B2022203212046FCF7F8FB08
:105410000A20FCF73DFC204600220321FCF7F0FBAC
:10542000BDE810400220FCF733BC38B50446E4B2B6
:10543000FCF7E4FB00212046FCF7FAFB01210546BE
:105440002046FCF7F5FB40EA052080B238BD10B5D8
:10545000C4B240212046FCF7EBFB030607D54C21E4
:105460002046FCF7E5FB003818BF012010BD0122E3
:105470004B212046FCF7C4FB204600224B21FCF7C1
:10548000BFFB0020F2E773B50423C4B20E461546F5
:10549000D7210DEB03022046FCF7E4FB019B1BBA6E
:1054A0001A0DC3F30B23328020462B8001224B219F
:1054B000FCF7A6FB00224B212046FCF7A1FB02B023
:1054C00070BD000010B50A4A1378984204460DD00A
:1054D000517888420AD00BB141B90123D454FCF76A
:1054E0008DFB2046BDE81040FFF78BBF10BD00BF0D
:1054F000482A002010B5C4B209212046FCF798FBC9
:1055000040F00102D2B220460921BDE81040FCF76C
:1055100077BB10B5C4B209212046FCF789FB0921ED
:1055200000F0FE022046BDE81040FCF769BB38B52C
:10553000C4B20D4620460A21FCF77AFB40EA050278
:10554000D2B220460A21BDE83840FCF759BB10B55D
:105550000446FCF754FB20461F21FFF7E8FF2046D6
:10556000BDE81040FFF7C6BF38B5C4B20D462046AF
:105570000A21FCF75DFB20EA0502D2B220460A218F
:10558000BDE83840FCF73CBB10B50446FFF7C1FF4F
:1055900020461F21BDE81040FFF7E6BF10B5C0B29E
:1055A0000C460B21FCF744FB204010BD1F21FFF7E8
:1055B000F5BF0A46C0B20B21FCF722BB1F21FFF743
:1055C000F8BF38B5C4B20D4620461721FCF730FBB2
:1055D00020EA0502D2B220461721BDE83840FCF788
:1055E0000FBB70B5C4B2064604212046FCF720FB71
:1055F000042100F0FB0205462046FCF701FB304683
:10560000F021FFF7DEFF05F0F80220460421FCF749
:10561000F7FA492220212046FCF7F2FA0220FCF793
:1056200037FB204601222121FCF7EAFA20469A2284
:105630004121FCF7E5FA204601224A21FCF7E0FA75
:10564000204601224B21FCF7DBFA204600224B21A9
:10565000FCF7D6FA204601225621FCF7D1FA204663
:1056600001225821FCF7CCFA204601224021FCF708
:10567000C7FA2046FF220B21FCF7C2FABDE87040B2
:105680000220FCF705BB0000054BD3F8882042F44C
:105690007002C3F888204FF000629A60704700BF24
:1056A00000ED00E008B50B4B1A6842F400721A6076
:1056B0001A6842F480621A601A6842F480721A60B2
:1056C000032000F071F90020FCF708FEFCF76AFBEC
:1056D000002008BD003C0240034A044B11681B78BF
:1056E0000B441360704700BF4C2A00207800002054
:1056F000014B1868704700BF4C2A002038B504469B
:10570000FFF7F6FF631C1CBF054B1B78054618BF4F
:10571000E418FFF7EDFF431BA342FAD338BD00BFE7
:105720007800002038B50446002800F09B80056C06
:1057300025B9FCF757FB656484F83C50236CDB0605
:1057400000F18E80236C23F4885323F0020343F08E
:1057500002032364444B5A6822F440325A605A6868
:1057600061680A435A60236821695A6822F480728A
:105770005A605A6842EA01225A605A68A16822F0C7
:1057800040725A605A680A435A609A68E16822F483
:1057900000629A609A680A439A603449A26A8A420F
:1057A00052D0996821F07061996099680A439A60B3
:1057B0009A68E16A22F040529A609A680A439A60B5
:1057C0009A6822F002029A609A68217E42EA4102B7
:1057D0009A6094F82020002A3ED05A68616A42F408
:1057E00000625A605A6822F460425A605A6801396D
:1057F00042EA41325A60DA6AE16922F47002DA62FE
:10580000DA6A013942EA0152DA629A6822F40072D5
:105810009A609A6894F8301042EA41229A609A6835
:10582000616922F480629A609A68002042EA8122CB
:105830009A606064236C23F0030343F00103236444
:10584000002384F83C3038BD9A6822F070629A6078
:105850009A6822F04052B2E75A6822F40062C9E71F
:105860000120EDE70120EEE7002301400100000FD9
:10587000F7B50023019390F83C30012B054600F06A
:105880008680012380F83C3008682B688E680928E0
:1058900084B233D904EB4402DF681E3A4FF0070CA0
:1058A0000CFA02FC27EA0C07DF60DF6806FA02F256
:1058B0003A43DA604968062901EB81022DD8596B19
:1058C000053A1F26964021EA06015963596B04FAEE
:1058D00002F20A435A632F4A93420AD1122837D15F
:1058E0002D4B5A6822F400025A605A6842F4800232
:1058F0005A60002085F83C0003B0F0BD1A6900EB47
:10590000400C072707FA0CF722EA07021A611A6906
:1059100006FA0CF616431E61CCE70C294FF01F0166
:105920000BD81E6B233A914026EA01011963196BCB
:1059300004FA02F20A431A63CDE7DE6A413A914063
:1059400026EA0101D962D96A94400C43DC62C2E7BD
:10595000124B984201D01128CBD10F4B5A6822F438
:1059600080025A605A6842F400025A600B4B984217
:10597000BFD10B4B0B4A1B68B3FBF2F30A22534314
:105980000193019B002BB4D0019B013BF8E702205F
:10599000B2E700BF002001400023014012000010C8
:1059A0007400002040420F000749CA6822F4E062F8
:1059B0000302120403F4E063120C134343F0BF63C9
:1059C00043F40033CB60704700ED00E0164B30B578
:1059D000DC68C4F30224C4F10703251D042B28BF8F
:1059E0000423062D4FF0FF358CBF033C002405FA3D
:1059F00003F321EA0303A54022EA0502A34000289D
:105A000043EA0203ACBF00F16040084A4FEA0313C7
:105A1000B8BF00F00F00DBB2AABF00F5614013541D
:105A200080F8003330BD00BF00ED00E014ED00E071
:105A3000002807DB044A4109012300F01F008340CE
:105A400042F82130704700BF00E100E010B5044685
:105A500050B1437903F0FF0213B90271FCF712FA57
:105A600001236371002010BD0120FCE710B504463E
:105A700020B390F8393003F0FF021BB980F83820CA
:105A8000FCF718FA022384F83930236861681A6831
:105A900022F440320A431A605A6BA16822F00702CE
:105AA0000A435A631A6CE1686FF30D020A431A64E1
:105AB00000200123E06384F8393010BD0120FCE7A9
:105AC00070477047036870B55E681D68F20704464A
:105AD00014D5E90512D51A6822F480721A60C26BD7
