:020000040800F2
:10000000000003205D060008412500084325000884
:100010004525000847250008492500080000000084
:100020000000000000000000000000002190000817
:100030004B25000800000000B1900008318900083D
:10004000AD060008AD060008AD060008AD060008C4
:10005000AD060008AD060008AD060008AD060008B4
:10006000AD060008AD060008AD060008AD060008A4
:10007000AD060008AD060008AD060008AD06000894
:10008000AD060008AD060008AD060008AD06000884
:10009000AD060008AD060008AD060008AD06000874
:1000A000AD060008AD060008AD060008AD06000864
:1000B000AD060008AD060008AD060008AD06000854
:1000C000AD060008AD060008AD060008AD06000844
:1000D000AD060008AD060008AD060008AD06000834
:1000E000AD060008AD060008AD060008AD06000824
:1000F000AD060008AD060008AD060008AD06000814
:10010000AD060008AD060008AD060008AD06000803
:10011000AD060008AD0600084D250008AD06000834
:10012000AD060008AD060008AD060008AD060008E3
:10013000AD060008AD060008AD060008AD060008D3
:10014000AD060008AD060008AD060008AD060008C3
:10015000AD060008AD060008AD060008AD060008B3
:10016000AD060008AD060008AD060008AD060008A3
:10017000AD060008AD060008AD060008000000004E
:10018000AD060008AD060008AD060008AD06000883
:10019000AD060008AD060008AD060008AD06000873
:0C01A00059250008AD0600086525000880
:1001B00010B5054C237833B9044B13B10448AFF3A1
:1001C00000800123237010BD800300200000000088
:1001D000CC54020808B5034B1BB103490348AFF3E5
:1001E000008008BD0000000084030020CC540208F9
:1001F00001F0FF01102A2BDB10F0070F08D010F8D8
:10020000013B013A8B422DD010F0070F42B3F6D1DB
:10021000F0B441EA012141EA014122F007047FF0F4
:1002200000070023F0E80256083C85EA010586EA4B
:10023000010685FA47F5A3FA87F586FA47F6A5FA87
:1002400087F68EB9EED1F0BC01F0FF0102F0070293
:1002500032B110F8013B013A83EA010313B1F8D13E
:100260000020704701387047002D06BF354603381F
:10027000073815F0010F07D1013015F4807F02BF58
:10028000013015F4C03F0130F0BC0138704700BFA9
:100290007BB972B90029BEBF00204FF0004106E0D3
:1002A00008BF00281CBF6FF000414FF0FF3000F086
:1002B000D3B9ADF1080C6DE904CE002909DB002BA0
:1002C0001ADB00F04DF8DDF804E0DDE9022304B0AC
:1002D0007047404261EB4101002B1BDB00F040F80E
:1002E000DDF804E0DDE9022304B0404261EB4101A6
:1002F000524263EB43037047524263EB430300F007
:100300002FF8DDF804E0DDE9022304B0404261EBA0
:1003100041017047524263EB430300F021F8DDF8DE
:1003200004E0DDE9022304B0524263EB430370476B
:1003300053B94AB9002908BF00281CBF4FF0FF314C
:100340004FF0FF3000F088B9ADF1080C6DE904CE34
:1003500000F006F8DDF804E0DDE9022304B07047A0
:100360002DE9F047089D8E4604468846002B4AD169
:100370008A42174662D9B2FA82F64EB1C6F120031C
:1003800001FA06F820FA03F3B74043EA0808B4403C
:100390004FEA174E1FFA87FCB8FBFEF1230C0EFB49
:1003A000118843EA084301FB0CF29A4209D9FB1871
:1003B00001F1FF3080F0EA809A4240F2E780023992
:1003C0003B449A1AA3B2B2FBFEF00EFB102243EAA2
:1003D000024300FB0CFC9C4509D9FB1800F1FF32DD
:1003E00080F0D6809C4540F2D3803B44023840EAFE
:1003F0000140A3EB0C0300211DB1F3400022C5E92D
:100400000032BDE8F0878B4205D90DB1C5E9000186
:1004100000210846F5E7B3FA83F1002946D1734578
:1004200002D3824200F20581841A6EEB030201209E
:100430009046002DE5D0C5E90048E2E7002A00F02B
:100440009080B2FA82F6002E40F0A4808A1A030C43
:100450004FEA174E80B2BCB20121B2FBFEFC0EFB8C
:100460001C2243EA024304FB0CF29A4207D9FB1810
:100470000CF1FF3802D29A4200F2E080C4469B1A87
:10048000B3FBFEF20EFB123340EA034302FB04F41B
:100490009C4207D9FB1802F1FF3002D29C4200F2C5
:1004A000CA8002461B1B42EA0C40A5E7C1F12006A8
:1004B0008B4022FA06F71F430EFA01F420FA06F3E6
:1004C0002EFA06FE4FEA1749234300FA01F81FFAF5
:1004D00087FCBEFBF9F01C0C09FB10EE44EA0E444D
:1004E00000FB0CFEA64502FA01F209D93C1900F105
:1004F000FF3A80F09C80A64540F2998002383C4447
:10050000A4EB0E041FFA83FEB4FBF9F309FB1344BA
:100510004EEA044403FB0CFCA44508D93C1903F142
:10052000FF3E80F08280A4457FD9023B3C4443EAF1
:100530000040A4EB0C04A0FB02EC64457346E146CA
:1005400062D35FD05DB1B8EB030264EB090404FA37
:1005500006F622FA01F31E43CC40C5E900640021EF
:100560004FE7B1FBF2FC010C41EA0E4180B240EAD8
:1005700001423B4638463C46B846BE462026B1FBC3
:10058000F7F1A2EB080241EA0C4166E7014618E7E1
:1005900010462CE7C6F120022EFA02F3B740B14014
:1005A00020FA02F24FEA174E0A43B3FBFEF8BCB240
:1005B0000EFB1833110C41EA034108FB04F9B0406B
:1005C00089454FEA104380B23ED9791808F1FF3CC3
:1005D00001D289451FD8A1EB0901B1FBFEF909FB46
:1005E00004F80EFB191192B242EA0142424529D2A7
:1005F000BA1809F1FF31C4D24245C2D2A9F10201B1
:100600003A44BEE7F0459DD2BEEB02036CEB070C0B
:100610000138E14696E7A7EB09094944A8F1020C25
:10062000B1FBFEF909FB04F8DBE773467FE75046B0
:1006300066E70846FDE63B44023A33E7ACF1020CBC
:100640003B441CE749469CE7A1EB0901C446B1FBCA
:10065000FEF909FB04F8C4E7704700BFDFF834D0A7
:10066000002103E00C4B5B58435004310B480C4B0A
:1006700042189A42F6D30B4A02E0002342F8043BA8
:10068000094B9A42F9D305F0ADF824F0B1F901F025
:100690005FF8704700000320A83204080000002023
:1006A0006401002080030020C0430120FEE7704762
:1006B00008B500F0BDFDBDE8084000F041BD00F008
:1006C000B9BD704710B50421044622F0A4FF2046AE
:1006D00010BD000038B50C4B0C4C18800C4B822020
:1006E00019806368984740F6110398420AD1094D72
:1006F00023682C60822098472B688220DB6898470B
:10070000002038BD0120FCE7A60300204C0000209B
:10071000A4030020A80300204FF4A071F020FFF7ED
:10072000D9BF0000F7B5394D2B6804461B698220FC
:100730009847208000284ED02B680DF106025B6997
:1007400001A982209847324B1B78002B4BD0BDF873
:10075000062040F674639A423FD9ADF80630BDF8E2
:1007600006209B1A9BB20A2B42D90B22B3FBF2F351
:10077000284A1288934201D9013A93B2BDF8042065
:10078000254840F6B8318A4234D8C2F571620E323B
:10079000016892B20F25B2FBF5F2204D2D88AA42D6
:1007A00084BF05F1FF35AAB28A4215468EB22AD916
:1007B000921B91B21A4E3768BB42BAB28CBF9A1ADA
:1007C000D21A92B211440529C4BF05603360036890
:1007D00063803368A38003B0F0BDB32A9CBFB4220A
:1007E000ADF80620BBE7BDF80630A3F5B473B9E752
:1007F0000023C3E7C2F56D62083292B20E2A016887
:10080000C8D800252A46891A89B2D3E7A803002050
:1008100004250020A4030020A0030020A60300203C
:100820009C03002037B568460D461446FFF77AFF53
:10083000BDF8000030B1BDF802302B60BDF80430C7
:100840002360012003B030BD032821D8DFE800F089
:10085000020B12190F4B1A68B2FA82F252090421E4
:100860000D4805F031BE0B4B5A68B2FA82F25209BC
:100870000821F5E7074B9A68B2FA82F25209102173
:10088000EEE7044BDA68B2FA82F252092021E7E778
:10089000704700BFAC03002000100240032821D89D
:1008A000DFE800F0020B12190F4B1A68003A18BF6C
:1008B000012204210D4805F007BE0B4B5A68003A8F
:1008C00018BF01220821F5E7074B9A68003A18BFC4
:1008D00001221021EEE7044BDA68003A18BF01222A
:1008E0002021E7E7704700BFAC0300200010024062
:1008F00003280DD8DFE800F00206080A04210548A5
:1009000005F0E7BD0821FAE71021F8E72021F6E716
:10091000704700BF0010024008B5032811D8DFE877
:1009200000F0020A0C0E0421074805F0C7FD431E23
:100930005842584108BD0821F6E71021F4E720216C
:10094000F2E70020F3E700BF0010024070B5084D49
:1009500000240126E0B2FFF7DFFF18B12B68012B5E
:1009600018BF2E600134052C05F10405F2D170BDCD
:10097000AC030020012380F8781080F879307047AC
:100980007047002070470000034B4164003918BFD6
:1009900001211970704700BF7F3601207047002089
:1009A0007047836B0BB10846184770474FF6FF70CE
:1009B0007047406803689B691847704770477047E5
:1009C0007047704710B5044600F04AFD236803499C
:1009D000D3F890302046BDE810401847000000D002
:1009E00008B503680446D3F8843098472368204646
:1009F000DB6F984700F0ECF8236820465B6F984760
:100A0000292001F0A9F900F0E3F8236820465B6F84
:100A10009847F8E710B504460BF018F9236820460C
:100A2000D3F8BC30BDE81040184700F0FDBC00F022
:100A300001BD00F033BD00F0D3BC00F043BD00F0B9
:100A40004BBD00F0D7BC0AF02FBB10B58421044683
:100A500022F0E1FD204610BD10B590F8341090F85A
:100A600078400C4B8C421A7809D03AB90A4A0B49A3
:100A70001488088810800C8001221A7010BD002A8A
:100A8000FCD0054A05491488088810800C80002293
:100A9000F3E700BF78360120743601207636012056
:100AA00070B50D46194635B9094B0A4A0A4840F255
:100AB000FF2123F0EDFCC0E90F52084B003A18BFAC
:100AC00001221A700368BDE87040D3F890301847CF
:100AD00070550208A8550208F65502087E36012016
:100AE00008B5094B1B888B4203D8084B1B889342DF
:100AF00005D9074B074A0848A32123F0C9FC074B37
:100B00001980074B1A8008BD743601207636012003
:100B10003B5602089E560208F65502087A36012016
:100B20007C360120034690F87A0018B158680368B3
:100B30001B68184770470000012108B500220846CD
:100B400007F080FF0A4B186028B90A4B0A4A28218F
:100B50000A4823F09DFC00220421012008F01AF825
:100B6000074B186018B9074B034A2C21F0E708BD62
:100B7000C0030020E15602082A570208595702080C
:100B8000BC030020A3570208024B4FF0FF31186846
:100B900007F0A2BFC0030020014B186807F0C8BFD0
:100BA000C0030020024B0021186807F095BF00BF6A
:100BB000C0030020FFF7F0BF03480449006800238A
:100BC0001A4608F022B800BFBC0300200400002031
:100BD00013B5084C00231A4601A9206808F046F80E
:100BE00020684FF0FF33002201A908F03FF802B05F
:100BF00010BD00BFBC03002003685B6C18470120D8
:100C0000704703689B6A1847FEE740F2EF30704771
:100C1000054B0360054B4FF08062C3F88820BFF39B
:100C20004F8FBFF36F8F7047B462020800E100E09E
:100C300010B504464FF45A61FFF7EAFF204622F050
:100C4000EAFC204610BD000082B0002301930E4B49
:100C50001A6B42F400021A631A6B02F4000201924A
:100C6000019A1A6942F400021A611A6922F4000218
:100C70001A61064B064A1A61064A5A61064B4FF042
:100C800080629A6002B0704700380240F02600206F
:100C9000E90E0008090C000800E100E008B50A2888
:100CA00009D8DFE800F006100E0808080810101038
:100CB0001000022008BD054B054A0648902123F08C
:100CC000E7FB0020F6E70120F4E700BFE557020844
:100CD000005802084B58020838B50C46887FFFF7C9
:100CE000DDFFA58AE28A164B2169586342EA054274
:100CF0005A64628BD963521B1A642568082D0ED181
:100D00009A611A615862207F0E4A42EA0062DA61F3
:100D1000E2681A620C4A5961D9601A6038BD002233
:100D2000D8611A61E1680A0A480902F4784200F4BD
:100D3000FC600243C1F3C4010A439A63034AECE72F
:100D400000B002400900010001230200012303005A
:100D500008B50B280BD8DFE800F00612100A0A0AC3
:100D60000A0808080808022008BD0520FCE7054B12
:100D7000054A06486F2123F08BFB0020F4E7012091
:100D8000F2E700BFE5570208935802084B580208E3
:100D90002DE9F04191F81D800C464046FFF7D8FF41
:100DA000A77F05463846FFF7D3FF06463846FFF7CC
:100DB00075FFA18A628B444B521A1A649A61228B86
:100DC000521A1A61E28A586342EA01425A6421695E
:100DD0006268D963DA602068802828D0227F0FD823
:100DE000202867D0402865D004281AD0364B45EA21
:100DF000026545F40035B845DD6161D0334A44E011
:100E0000B0F5807F04D0B0F5007FEFD1304800E02E
:100E1000304840EA0262DA61E2681A625E62596151
:100E200032E045EA026242F40032DA61F6E7A06895
:100E3000021DDA62227F45EA026545F40035DD6174
:100E40005E625961017841B1012921D0224B234AC8
:100E500023484FF48D7123F01BFBDA69418822F49B
:100E60007F42013922F0100242EA0122DA610121B7
:100E7000154BDA6942F02002DA61DA699206FCD495
:100E800010229A600029B9D0164A1A60BDE8F08194
:100E9000B2F1FF01DA69408822F47F4200F1FF30AD
:100EA00022F0100242EA002242F0100218BF012193
:100EB000DA61DDE745EA0262034B42F40032B4E74F
:100EC00042F20132E1E700BF00B00240012301001D
:100ED000090002000A000200DD580208F758020863
:100EE0004B58020801230200024B1B685868036834
:100EF0005B6918478036012070B5044625460A4BC9
:100F00000C30002660602672667245F8203B602235
:100F100029460AF0F1FF04F55A63EE6024359D423C
:100F2000FBD1204670BD00BFB4620208034B1A68B3
:100F3000D207FCD423229A60704700BF00B0024061
:100F40007047000030B50F4C2568ED07FCD4232511
:100F50000904A56041F001010225FF2B656361646E
:100F6000E0630AD00849656241EA0363E361074B25
:100F700022626061E060236030BDE561039BA36392
:100F8000034BF8E700B00240090001000100020035
:100F90000100030030B50E4C2568ED07FCD4232575
:100FA0001204A56042F001020225FF2B6563626412
:100FB000E063E16008D01B0643F00213E361054BD8
:100FC00065626061236030BD034BE3610123F9E793
:100FD00000B0024001000200020002FF30B50B4CDD
:100FE0002568ED07FCD4232512041B06A56043F4F5
:100FF0000033022542F0010265636264E063E16050
:10100000E361034B65626061236030BD00B0024064
:1010100001000200012070470C2070470C2303FBE5
:101020000100083070470C2303FB010008307047B3
:101030000120704740F6F470704740F6F47303FBEC
:1010400001000830704740F6F47303FB01000830DC
:101050007047012070471020704700EB01100830E6
:10106000704700EB011008307047084601F024BDBE
:1010700010B5034B0360044609F06DFD204610BD1A
:101080006C63020810B50446FFF7F2FF20461421F6
:1010900022F0C1FA204610BD10B5034B0360044690
:1010A00009F059FD204610BD3863020810B504460A
:1010B000FFF7F2FF204640F6FC7122F0ACFA204622
:1010C00010BD000010B5034B0360044609F043FD5A
:1010D000204610BD0463020810B50446FFF7F2FF76
:1010E0002046182122F097FA204610BD10B5094B72
:1010F0000360044600F581500830FFF7B9FF04F1A2
:101100002C00FFF7C9FF04F11400FFF7DBFF2046B6
:1011100010BD00BFA063020808B50248FFF7E6FF54
:1011200008BD00BF9C12002010B50446FFF7DEFF8B
:10113000204641F29C1122F06EFA204610BD0000BC
:101140002DE9F34101F088FA054601F089FA0024FF
:101150000146234628462246009413F0C9F9274B3E
:10116000274A1A60204603F0ADFB264D264B274A3E
:1011700027489A6013F024F92B68BFF35B8FDB07D5
:1011800035D4284622F049FA88B3224C224B2360FA
:1011900004F12C0804F5825604F1140008F6FC77DB
:1011A0006060C4F80880E760266109F0D5FC1B4B3D
:1011B0006361404609F0D0FC194BE362384609F000
:1011C000CBFC04F5805303F13C00164A9A6203F00D
:1011D00001FC2246311F304603F0F2FB304601F09D
:1011E0006BFC114823F072F9284622F022FA0F48CE
:1011F00002B0BDE8F041FFF7E5BB00BFE4360120D7
:101200004804002098120020680400204C040020AC
:10121000080000209C120020A0630208046302085A
:10122000386302086C63020819110008C403002027
:10123000704700000148FFF7D3BB00BFC403002084
:1012400070B5264E264C274D274B23603046FFF7BE
:1012500053FE284618F052FA244810F059FE244B49
:101260002448DC6000224FF48071C3E91212224945
:101270001A86C3E91A12214983F85820C3E91E01CE
:101280001F49C3F880101F491F480B60F021C3E9B4
:101290000422C3E90622C3E90822C3E90A22C3E9FA
:1012A0000E22C3E91022C3E91422C3E917225A66A9
:1012B00083F870205A67C3E90165018013480180F3
:1012C00013484FF4A07101801248018012490A703E
:1012D000012283F83420114A1A6070BDF404002002
:1012E0009412002068040020605502084C0400207D
:1012F000C4030020000001010100000100045000AF
:101300001A00140080360120743601207A3601203C
:10131000763601207C36012078360120C86102082B
:101320000148FFF775BC00BFF4040020002070479F
:1013300081807047C180704701817047418170474B
:101340007047704770477047704710B4C48803688F
:10135000121B84885B6D091B12B25DF8044B09B245
:1013600018474FF6FF7383814FF0FF330362136812
:10137000C36110607047002070478B888380012014
:101380007047704780F82610704790F82600704725
:1013900010B50022B1F90840B1F90A10028042806C
:1013A0008480C18010BD0022028042808280C28081
:1013B00070470177704780ED080A704780F8241065
:1013C000704780F8251070470120704798307047AB
:1013D0008C3070478430704770477047704700000A
:1013E000034B902283F85A2383F85823704700BF99
:1013F00000E100E0094A0A49D3680A48C3F30A0336
:10140000013B9BB20B801169C1F30A0101390180D4
:101410001364536B43F0010353637047006801404A
:101420003A24002038240020014BD3F8AC00704748
:1014300000680140024B0122C3F8AC105A627047A9
:101440000068014010B52C21044622F0E4F8204643
:1014500010BD10B5BC21044622F0DDF8204610BDB9
:1014600070B5044609F075FE23689D6E0FF0E8FA2A
:1014700001462046A8472368054AD3F88C502046E9
:10148000AC460023BDE87040A2F51631604700BFAE
:1014900000B004D009F044BE09F04EBE09F00ABE07
:1014A00009F079BF90F8252012B103685B691847ED
:1014B000704790F825201AB190F8242002B11860E6
:1014C00070470000034B4FF080629A604FF08072CB
:1014D0009A60704700E100E0084B4FF08062C3F86B
:1014E0008820BFF34F8FBFF36F8F4FF08072C3F828
:1014F0008820BFF34F8FBFF36F8F704700E100E08C
:1015000070B50023124E8380124B0360336893F84A
:10151000582005460AB1D86C00B998680368DB6AA0
:1015200098473368B0FA80F4D86C640930B1036826
:10153000DB6A9847002808BF44F001042CB9064B29
:10154000064A07482C2122F0A3FF284670BD00BFA1
:1015500080360120B4630208355902089359020805
:10156000CC59020870B5254E3568BFF35B8F15F076
:10157000010540D1304622F050F800283BD0204CE5
:10158000204B256104F13400C4E90035C4E902555B
:10159000E584A562A58510F0A0FF04F158000CF0C9
:1015A0005FF9194BA3652046184B40F8843BFFF7C1
:1015B000A7FF174BC4F884302433C4F88C304FF4A1
:1015C000C803C4E928350023C4F8AC30C4F8B030EF
:1015D000C4F8B430C4F8B8300E480F4BC4F890507B
:1015E000C4F89C50C4F8A850C4F8983022F06EFF9C
:1015F000304622F01EF8024870BD00BF3C24002097
:101600004024002068710208D46302084C64020878
:101610001C710208DD130008FC70020838B5184C74
:1016200023685BB3174B184A1B6C11888B4216D189
:10163000164B198805F032FD236893F86A200025BF
:10164000013283F86A2083F87C50FFF7B5FA2068EE
:101650000AF0FCFA2846BDE83840FFF7F5B805F077
:101660001DFD2468236820461B6A9847012384F8DF
:101670007C300020BDE83840FFF710B938BD00BF0E
:1016800080360120006801403A24002038240020E0
:1016900007B5064BADF806001B68054801220DF1A1
:1016A000060106F0E7FA03B05DF804FB0C00002029
:1016B0008C25002030B595B0102200210AA823F017
:1016C000EEF81422002103A823F0E9F800241E4BB1
:1016D00001941A6C42F080521A641B6C03F0805320
:1016E0000193019B194B02941A6842F440421A601C
:1016F0001B6803F4404302930122029B4FF48033A2
:10170000CDE9082302254FF480030821CDE90E53CB
:101710004FF4B473CDE9101308A804231393129562
:1017200005F014FD05F0D8FC0F23CDE903354FF487
:10173000A0504FF48053CDE90603052103A805947A
:1017400005F0E0FE15B030BD0038024000700040EA
:101750002DE980489BB004F053F8FFF7ABFF14224B
:1017600000210DA823F09BF80024C94B00941A6BAC
:10177000C848C94D42F010021A631A6B02F01002F9
:101780000092009A01941A6B42F020021A631A6BBD
:1017900002F020020192019A02941A6B42F0800238
:1017A0001A631A6B02F080020292029A03941A6B77
:1017B00042F004021A631A6B02F004020392039AC5
:1017C00004941A6B42F001021A631A6B02F00102D0
:1017D0000492049A05941A6B42F002021A631A6B7F
:1017E00002F002020592059A06941A6B42F040023A
:1017F0001A631A6B02F040020692069A07941A6B5B
:1018000042F008021A631B6B03F008032246079399
:101810003C21079B04F058FEA0480122022104F05D
:1018200053FE22469D48042104F04EFE22469C4869
:101830004FF4405104F048FE01263C23CDE90D361B
:1018400094480F9403230DA90227109304F052FD2E
:1018500092480DA9CDE90D76CDE90F4404F04AFD7B
:1018600004238E480DA9CDE90D36CDE90F4704F0CC
:1018700041FD0DA94FF440538948CDE90D36CDE91E
:101880000F4704F037FD8748874B036004F060FA88
:10189000DFF83CC2854B2C62C5E900C328464FF4F3
:1018A0008043C5E90434C5E90244C5E9064405F0AE
:1018B00019F81021284605F05DFA2146284605F062
:1018C00078FA7B4DDFF80CE2AC624FF48273C5E925
:1018D00000E34FF400781823C5E9068328460A235D
:1018E000C5E90244C5E90444C5E90844EB6206F0D1
:1018F00065F98F232246394668488DF824308DF8E3
:10190000344004F0E1FD32464FF47A7309A92846C9
:1019100006F0B0F94FF47A7332460DA9284606F066
:1019200055FB324639465D48624D04F0CDFD9DF8C9
:101930003430D32B04BF604B1E70604B0126C5E9C9
:1019400000364FF0100940230024C5E904934FF4FA
:10195000C073C5E906344FF40063C5E908344FF499
:10196000005302274FF004084FF0030BAB620DA9A0
:1019700007232846CDE90D73CDE90F834FF0080A00
:10198000C5E90248CDE911B7139705F0FBFF4FF603
:10199000FF7209A92846CDE90AA6099608940C9475
:1019A00006F010F8304603F057FF4FF6FF7209A912
:1019B0002846CDE9097ACDE90B6406F003F84FF625
:1019C000FF7209A92846CDE909BACDE90B8405F0D3
:1019D000F9FF4FF40C730893089B0C934FF6FF72BA
:1019E00009A92846CDE9098A0B9605F0EBFF40F2DC
:1019F0006A51284606F004F8342221460DEB020015
:101A000022F04DFF2E4D2F4B2C61C5E900340923E8
:101A1000C5E905361D23C5E9073B40F20D1240F22A
:101A20004313C5E9092340F2171140F24713284632
:101A3000C5E90B13C5E90244AC8685F8364005F0CC
:101A40004BFAFF21F022CDE912144FF0050A4FF4B2
:101A500080614FF4A073CDE90E24CDE9141ACDE9CD
:101A600016420DA922462846CDE91037164D189387
:101A70000D94ADF864408DF8664005F0E1FA134B23
:101A80002B601B68DFF850B098472B6826E000BF3A
:101A900000380240001002409C260020000802404E
:101AA000000C02403027002000300240A0860100D8
:101AB0008C2500201025002004250020400100A0D6
:101AC000F425002000680140FC24002014000020C0
:101AD000005C0040005001400100000F504DDB68E9
:101AE0009847504B2846C5E90034C5E90274C5E95A
:101AF0000A47C5E90C4404F03BF93146284604F096
:101B0000EDF94A4621460DA822F0C9FE464D474848
:101B1000EE614FF48033C5E9000328466E61AC6086
:101B20002C612C7685F82040EC62C5F828B0EC607A
:101B300085F8304003F0A4FE0D220DA92846CDE91A
:101B40000D263B4D0F9404F015F821464A460DA88A
:101B500022F0A5FE374AEE614FF480332846C5E9EE
:101B600000236E61C5E90AB4AC602C612C7685F85F
:101B70002040EC6085F8304003F082FE0DA9284635
:101B8000CDE90DA60F9403F0F5FF2B482B4B2C4D00
:101B900003602C4E05F0AAFE1C2221460DA8CDE9BB
:101BA000094422F07CFE5923C5E9006328464FF61C
:101BB000FF73C5E90334AC60AC6106F07FFC09A992
:101BC0002846CDE9094406F0DBFD602342460DA915
:101BD0002846CDE90D340F94119406F0CBFC28462D
:101BE00000F0C8FBFEF764FDFEF761FD06F0AEFEF7
:101BF000154A3946484606F0CDFF144B144A186082
:101C00002146144806F0CEFE134B144A18602146B4
:101C1000134806F0C7FE134B186006F0A9FEFEE756
:101C2000F026002000B00240802700200020014064
:101C30003827002000210140E4250020000806503C
:101C40004425002000040040906402080025002084
:101C5000CC640208491E00080C250020A864020874
:101C6000BF06000808250020704770477FB5094B64
:101C70008DF817201B6802930DF1170201230092C3
:101C800001930A460146044804F0D4FE07B05DF80B
:101C900004FB00BF100000209C2600207FB500231D
:101CA0008DF81730084B1B6802930A4601230DF18B
:101CB0001701009101930146044804F04BFF9DF881
:101CC000170007B05DF804FB100000209C260020E0
:101CD0001FB5084C24680092CDE901340A4601235F
:101CE0000146054804F036FF003818BF012004B053
:101CF00010BD00BF100000209C26002003F0ACBDEA
:101D000010B5064C00222046042104F0DDFB2046DD
:101D10000122BDE81040042104F0D6BB00080240B7
:101D200038B50B4D044601220A484FF4005104F027
:101D3000CBFB00220421284604F0C6FB2046FFF717
:101D4000A7FC28460122BDE83840042104F0BCBBB2
:101D500000080240000C024038B50B4D044600223A
:101D60000A484FF4005104F0AFFB0022042128463A
:101D700004F0AAFB2046FFF78BFC28460122BDE8B1
:101D80003840042104F0A0BB00080240000C0240CF
:101D9000F7B5144E144F05460C4630460022042178
:101DA00004F092FB00224FF40051384604F08CFB03
:101DB0002846FFF76DFC0D4B0D481B68224601A914
:101DC00006F004F9384601224FF40051019C04F05A
:101DD0007BFB30460122042104F076FB204603B051
:101DE000F0BD00BF00080240000C02400C000020C3
:101DF0008C25002003F030BDA0F2A56210B592B290
:101E000040F25624A1F2A563A2429BB206D9B0F5D6
:101E10007A7F11D340F6B83290420FD840F2562262
:101E200093420DD9B1F57A7F0CD340F6B83399427D
:101E30008CBF4120002010BD5720FCE75320FAE75B
:101E40000020F8E74420F6E7F7B5194D194E0027B2
:101E5000284603F0BBFD304603F0B8FD0A212846B2
:101E600003F032FE0A21304603F02EFE284603F02E
:101E70007EFE0446304603F07AFE81B2A0B2FFF740
:101E8000BBFF04468DF8070060B1B8420BD00A488A
:101E900000231A4600680DF1070106F0B6FE9DF812
:101EA000073003B90024642006F0C0FD2746CFE7C1
:101EB0008027002038270020002500200268034BDF
:101EC0009A4201D103F0B6BC704700BF0010004039
:101ED0007047000082B00E4B00220092596C41F412
:101EE00080415964596C01F480410091009901923C
:101EF000196C41F0805119641B6C03F080530193FD
:101F0000019B0F216FF0010002B003F0E1BE00BFA2
:101F10000038024010B514228AB0044600210DEBAF
:101F2000020022F0BCFC2368214A93421FD1214BBE
:101F30002148002101915A6C42F480725A645A6C13
:101F400002F480720192019A02911A6B42F004022B
:101F50001A631B6B03F0040302930821029B032303
:101F6000CDE9051305A904F0C5F90AB010BD134A5F
:101F70009342FAD10F4B1248002103915A6C42F45C
:101F800000725A645A6C02F400720392039A04912C
:101F90001A6B42F001021A631B6B03F001030493F6
:101FA000049B20220323CDE9052305A9DBE700BF1D
:101FB000002001400038024000080240002101409A
:101FC000000002400268094B9A4282B00BD1002304
:101FD0000193074B1A6B42F480521A631B6B03F494
:101FE00080530193019B02B0704700BF0030024054
:101FF0000038024007B50F4B02689A4216D1002202
:10200000A3F5F0430192196B41F4000119631B6BB6
:1020100003F40003019305215A20019B03F058FEAD
:102020005A2003B05DF804EB03F084BE03B05DF802
:1020300004FB00BF00B002402DE9F043044689B024
:102040001422002103A822F02AFC2268244B9A4281
:1020500043D1244C244800250095236B43F004030E
:102060002363236B03F004030093009B0195236B10
:1020700043F001032363236B03F001030193019BEE
:102080004FF012094FF400734FF0010803270426A4
:1020900003A9CDE90339CDE90587079604F02AF9AC
:1020A0004FF480731148079603A9CDE90339CDE9B0
:1020B000058704F01FF90295236C43F400032364A1
:1020C000236C03F400030293029B236A43F400038E
:1020D0002362236A23F40003236209B0BDE8F0837E
:1020E000005C00400038024000080240000002404E
:1020F000F0B599B004461422002107A822F0CFFBC6
:1021000030220DEB0200002122F0C9FB22685E4B59
:102110009A4240F0B78008230C93C0231093042305
:1021200012930CA84FF40033159305F0B3FA08B1DD
:10213000FFF7CEFE554B5648002400945A6C42F0EF
:1021400080625A645A6C02F080620092009A019494
:102150001A6B42F020021A631A6B02F020020192FD
:10216000019A02941A6B42F001021A631A6B02F090
:1021700001020292029A03941A6B42F002021A635D
:102180001A6B02F002020392039A04941A6B42F053
:1021900040021A631A6B02F040020492049A0594FA
:1021A0001A6B42F004021A631A6B02F004020592E1
:1021B000059A06941A6B42F008021A631B6B03F02F
:1021C0000803069302250E26069B0B964FF48063A8
:1021D00007A9CDE90735CDE9094504F08BF841F6AB
:1021E00058032C480B9607A9CDE907350927CDE9F7
:1021F000094504F07FF8032327480B9707A9CDE989
:102200000735CDE9094504F075F84FF470632248AD
:102210000B9607A9CDE90735CDE9094504F06AF821
:102220004FF40C631D480B9607A9CDE90735CDE99E
:10223000094504F05FF8C02319480B9607A9CDE9BA
:102240000735CDE9094504F055F8082315480B96E4
:1022500007A9CDE90735CDE9094504F04BF84FF45E
:10226000A0530E480B9707A9CDE90735CDE90945DD
:1022700004F040F858202246052103F029FD58209B
:1022800003F058FD19B0F0BD00680140003802406D
:102290000014024000000240000402400018024006
:1022A00000080240000C02400268094B9A4282B0CA
:1022B0000BD100230193074B5A6B42F040025A6343
:1022C0005B6B03F040030193019B02B0704700BFBA
:1022D000000806500038024010B5044688B01422A9
:1022E000002103A822F0DBFA2268144B9A4223D182
:1022F00003F56843002101915A6C114842F48012A1
:102300005A645A6C02F480120192019A02911A6B7B
:1023100042F020021A631B6B03F020030293029B1E
:102320004FF4607202230321CDE903230523CDE995
:10233000061303A903F0DEFF08B010BD00500140F2
:10234000001402400268094B9A4282B00BD100236C
:102350000193074B1A6C42F002021A641B6C03F0E3
:1023600002030193019B02B0704700BF00040040CC
:102370000038024010B5044686B01422002101A89E
:1023800022F08DFA22680D4B9A4214D1002300935B
:102390000B4B0C481A6B42F001021A631B6B03F0E3
:1023A00001030093009B8022022301A9CDE90123B0
:1023B000059303F09FFF06B010BD00BF000400406E
:1023C00000380240000002402DE9F04186B00023B1
:1023D00003932B4B1C68002C4FD14FF00108C3F81E
:1023E0000080284B00949A6B274842EA08029A63BF
:1023F0009B6B03EA08030093022703260C25009B2E
:1024000001A94FF63F03CDE90137CDE9046503F09B
:1024100071FF1E48059501A9CDE90187CDE9034665
:1024200003F068FF48F233131948059501A9CDE977
:102430000137CDE9034603F05DFF4FF6837315487E
:10244000059501A9CDE90137CDE9034603F052FF17
:102450004CF203731048059501A9CDE90137CDE988
:10246000034603F047FF60230C48059501A9CDE919
:102470000137CDE9034603F03DFF06B0BDE8F0812A
:10248000C827002000380240001402400008024023
:102490000018024000100240000C024000040240FC
:1024A00070B588B000230293204B1A6C42F01002E2
:1024B0001A641B6C03F010030293054601A903A8DC
:1024C000029B05F0C9F8069B4BBB05F0B5F8184E0A
:1024D000184B336040F2E733F360174BB0FBF3F374
:1024E000013B7360304600233361B360B36105F094
:1024F000B9FF044680B9304605F08EFE044658B94F
:10250000362003F017FC0F2D0DD822462946362021
:1025100003F0DEFB094B1D60204608B070BD05F0DE
:102520008BF84000D3E70124F6E700BF00380240F3
:10253000CC2700200010004040420F007C0000200B
:102540007047FEE7FEE7FEE7FEE77047014805F04B
:10255000A1BE00BFCC270020014804F014BD00BF7D
:10256000F4250020014803F02FBC00BFF026002016
:102570000120704708B522F035FA162303604FF0AA
:10258000FF3008BD08B522F02DFA16230360FEE7E0
:1025900070B50D4614460E46731B9C4201DC204666
:1025A00070BDAFF3008006F8010BF5E770B50D467E
:1025B00014460E46731B9C4201DC204670BD16F883
:1025C000010BAFF30080F5E74FF0FF3070474FF499
:1025D00000534B6000207047012070470020704777
:1025E0000A4A116808B5034609B90949116010681B
:1025F000694603448B4206D922F0F4F90C230360A8
:102600004FF0FF3008BD1360FCE700BF1428002026
:10261000C0430120704708B5042914D8DFE801F051
:1026200003070B0B0F0002F099F9006808BD02F0D8
:1026300095F94068FAE702F091F98068F6E702F050
:102640008DF9C068F2E70020F0E710B504210446D8
:1026500020F0E1FF204610BD0048704704650208E5
:102660000420704713B5002451B1036801948DF81C
:10267000034001AA9C680DF10303A04702B010BDFE
:102680000846FBE7C0897047008A7047C0887047DA
:1026900080887047807A00F07F007047807AC00998
:1026A00070470020704700009FED010A704700BF8F
:1026B00000000000704710B50821044620F0ABFF71
:1026C000204610BD7047704700F598730868496848
:1026D00003C3704770477047416070477047704749
:1026E000064BC0F84C310023C0F8503100F5A273FE
:1026F000C0F84801C0F84031704700BFED2800081D
:10270000012303727047704710B4C26841685410C7
:10271000034601EB6200D20748BF0A599B685DF887
:10272000044B48BFD35818470346406830B19A68F5
:102730001AB9D86800F0010070470120704710B541
:102740000C21044620F067FF204610BD10B5102173
:10275000044620F060FF204610BD10B54FF4AE7166
:10276000044620F058FF204610BD10B50EF068F961
:102770000368BDE81040DB6B184710B50446D0F87D
:10278000400158B10368DB68984738B1D4F840017C
:1027900003689B6898470023C4F8403110BD0000CF
:1027A0002DE9F14FD0E9556A0746B06803681B6A06
:1027B000984740F6F373984205D8444B444AA32106
:1027C000444821F065FE706803681B6A98470F282B
:1027D00003D8414B3E4AA421F2E7F06803681B6A24
:1027E00098470B2803D83D4B394AA521E8E70EF05E
:1027F00027F9DFF8F09004300EF047F9D9F800001F
:1028000010B10368DB689847D9F8000010B103687D
:102810001B689847DFF8D080D8F8000010B1036833
:102820005B699847D7F83C0110B103685B6898472B
:10283000D8F8000010B103681B689847D7F83C012E
:1028400010B103689B689847F068036800215B6AD1
:1028500098474FF0000B224BC0F804B0044680F8B4
:1028600008B00360B068036859465B6A984705463C
:1028700002F022F97068036859465B6A9847294656
:10288000064602F0F5F8331DC7F83C61C9F8004070
:10289000C8F80050CAF800302B68C6F808A02846CF
:1028A000DB68EE639847336830461B6898472146DB
:1028B000284610F075FA236820461B69984723685C
:1028C0005B69204601B0BDE8F04F18474E5A020838
:1028D000DC5A0208AE5B0208F55B0208985C02084D
:1028E000D8650208C8360120C43601202DE9F14F11
:1028F000D0E9556A0746B06803681B6A9847B0F587
:10290000CE7F05D2444B454AA321454821F0C0FD66
:10291000706803681B6A98470F2803D8414B3F4AE9
:10292000A421F2E7F06803681B6A98470B2803D8D4
:102930003D4B3A4AA521E8E70EF082F8DFF8F09027
:1029400004300EF0A2F8D9F8000010B10368DB687B
:102950009847D9F8000010B103681B689847DFF862
:10296000D480D8F8000010B103685B699847D7F8A5
:102970003C0110B103685B689847D8F8000010B1BB
:1029800003681B689847D7F83C0110B103689B683F
:102990009847F068036800215B6A98474FF0000B86
:1029A000224BC0F804B0044680F808B00360B06859
:1029B000036859465B6A9847054602F03FF870681D
:1029C000036859465B6A98472946064602F014F8A0
:1029D000331DC7F83C61C9F80040C8F80050CAF878
:1029E00000302B68C6F808A02846DB68EE639847DD
:1029F000336830461B6898472146284610F0D0F9C6
:102A0000236820461B69984723685B69204601B00C
:102A1000BDE8F04F184700BF4E5A02083B5D020860
:102A2000AE5B0208F55B0208985C0208D8650208F4
:102A3000C8360120C4360120044B1B6893F8582087
:102A40000AB1D86C00B99868704700BF8036012081
:102A5000F8B5174604460E460EF0B4F8124B1C604B
:102A6000124B2360124B0025C4E95135114BC4E9C8
:102A700053551868036801219B68C4E94F55C4E9A0
:102A800055769847284601F01DFFFFF7D5FF18F04F
:102A9000DEFCFFF7D1FF18F055FDFFF7CDFF18F072
:102AA0005DFD2046F8BD00BFD436012084650208D4
:102AB0006C65020880360120064BC0F84C310023BB
:102AC000C0F8503100F5A273C0F84801C0F8403199
:102AD000704700BFED280008064BC0F84C310023BA
:102AE000C0F8503100F5A273C0F84801C0F8403179
:102AF000704700BFA1270008406A7047806A70478E
:102B000070478A880B8810B5D20A4C88C1699BB27D
:102B100051F8220043EA0443184410BD10B504469E
:102B2000BAB1107B68B1537BD27A1B0203F4E06325
:102B30001A43236A03EB82031A888A4202D193F96B
:102B4000020010BD05D8013880B204330028F3D14B
:102B5000F7E70020F5E710B52C21044620F05BFDD7
:102B6000204610BD30B58BB00446BDF860500895C6
:102B7000BDF85C5007959DF8505006959DF84C5057
:102B800005959DF8485004959DF8445003959DF88F
:102B9000405002959DF83C500195BDF83850009585
:102BA0000FF058FD064B2360159BE361169B2362D3
:102BB000199B63621A9BA36220460BB030BD00BF15
:102BC000FC650208806A704770477047704770471D
:102BD00070477047704770477047704790F82C30C7
:102BE0004BB100F16C021268C2653BB100F1740395
:102BF0001B680366704700F16802F4E700F1700398
:102C0000F6E708B590F82C303BB100F1C4031B681F
:102C1000C0F8A830FFF7E2FF08BD00F1C003F6E7F7
:102C200030B4C26844685510034604EB6200D20712
:102C300048BF62599B6830BC48BFD3581847034609
:102C4000406830B19A681AB9D86800F0010070473E
:102C50000120704790F82D3080F8AE3080F85A305F
:102C6000704790F82D3080F85A30704710B57821B1
:102C7000044620F0D0FC204610BD10B5C821044603
:102C800020F0C9FC204610BD10B51021044620F0EC
:102C9000C2FC204610BD10B54FF4CE71044620F0A2
:102CA000BAFC204610BD10B50446006B50B1036855
:102CB000DB68984730B1206B036821469B68BDE80C
:102CC0001040184710BD70B50D7990F82C300446AF
:102CD0003DB93BB123682046D3F88830BDE8704049
:102CE00018477BB1B5FA85F35B0984F82C3023686B
:102CF0002046D3F88C309847236820465B69984774
:102D0000002DE7D070BDC430884208B505D10DF064
:102D100097FEBDE80840FFF7DFBE08BD70B5036849
:102D200004461B6B154698472368294620465B6B73
:102D3000BDE87040184770B5036804469B6B1546A4
:102D40009847236829462046DB6BBDE8704018474A
:102D500038B504461D46FFF7E1FFBDF910202946AE
:102D60002046FFF7E8FF38BD0022C0E90122C0E994
:102D70000322C0E90522C0E907224FF48072828451
:102D8000014A0260704700BF6466020810B526223F
:102D90000446002121F083FD2046FFF7E5FF044BA8
:102DA0002360FF2384F826300023A362204610BD51
:102DB000BC7202084FF47F4370B50646838540F22B
:102DC000011300258384274B8562C0E90155C0E9C2
:102DD0000355C0E90555C0E90755056346F8343B7E
:102DE00004463046FFF7D2FF1F4B63632A4629464D
:102DF0003046C4E91A55C4E91C552566A4F8645048
:102E0000FFF78CFF31462046264607F0B7FE174BEA
:102E100046F8783B26222946304621F040FD3046D0
:102E2000FFF7A2FF124BA367124BC4F8A0304FF676
:102E3000FF73A4F8A4304FF47F03C4F8AC304FF014
:102E4000FF332046C4E92E35C4E93055C4F8A850F4
:102E5000A4F8B050C4F8B450314607F08FFE2046B5
:102E600070BD00BFCC6602082473020868670208C0
:102E70002C7202085C6502082DE9F04F044685B00B
:102E8000A04600250FF0E0FD564BE56348F8403BB7
:102E900004F16C0A404604F19806FFF777FF5046AC
:102EA000FFF774FF4FF6FF77262229463046ADF82C
:102EB000087021F0F4FC3046FFF756FF4A4BC4F887
:102EC0009830BDF80830A4F8BE3002A984F8C0706C
:102ED000304604F1C4070BF0B7F93846FFF76AFF34
:102EE000424BC4E96334424B4FF4A07BC4E96535DF
:102EF0002A4629464046CDF800B0F023FFF728FFC8
:102F000004F104094FF07F43A3664146484607F0A9
:102F100035FE2A4629465046CDF800B0F023FFF78B
:102F200017FF344BC4F894305146484607F026FE4C
:102F3000202229463046FFF7F1FE02A93046ADF8BF
:102F400008500BF081F9314648463C2607F016FE42
:102F50002A46294604F1F8000096C823FFF7F8FE38
:102F60000323A4F82831244BC4E94B33234BC4E991
:102F70004D33D4F8C4303846D3F88C30984704F534
:102F80009E781F4B029302A928234046ADF80C30CF
:102F90000AF0FEFFB4F9CE20B4F9CC104046FFF79A
:102FA000CAFE29460A2240460096C823FFF7D0FEF3
:102FB0004FF0FF33C4E961333846FFF722FE04F5D2
:102FC000C673C4F8F430DF22C823384600961421B3
:102FD000FFF7BEFE4846394607F0D0FD204605B053
:102FE000BDE8F08F1C6802088C73020804680208B0
:102FF000072D0008D0E8EDFF697578FF464D4FFFBB
:103000005C65020830B5036885B06D460181D3F870
:103010008430014604462846984795E807003C342A
:1030200084E8070005B030BD30B5036885B06D4653
:103030004181D3F88430014604462846984795E8F4
:1030400007003C3484E8070005B030BD0022028050
:1030500042808280C280704780F83610704770B519
:10306000036804461B6B154698472368294620468B
:103070005B6EBDE87040184700207047806C704759
:103080007047704770477047704770477047704788
:103090007047704703685B6B184790F82C304BB152
:1030A00000F16C021268C2653BB100F174031B6849
:1030B0000366704700F16802F4E700F17003F6E779
:1030C00008B590F82C303BB100F1C4031B68C0F880
:1030D000A830FFF7E2FF08BD00F1C003F6E730B407
:1030E000C26844685510034604EB6200D20748BF2B
:1030F00062599B6830BC48BFD358184703464068A4
:1031000030B19A681AB9D86800F001007047012000
:10311000704790F82D3080F8AE3080F85A30704704
:1031200090F82D3080F85A30704710B54C21044685
:1031300020F071FA204610BD10B57821044620F029
:103140006AFA204610BD10B5C821044620F063FA83
:10315000204610BD10B51021044620F05CFA204630
:1031600010BD10B540F6AC71044620F054FA20466C
:1031700010BD00F52A63994270B504460D4603D18F
:103180000DF05EFCFFF798FC04F6C8039D4203D1E6
:103190000DF056FCFFF790FC04F519639D4203D136
:1031A000236820461B6B984704F668339D4205D17F
:1031B000236820469B6BBDE87040184770BD08B57A
:1031C000FEF770F908BD0000036870B55E6B124B26
:1031D0001B6804468DB22BB9104B114A6C21114863
:1031E00021F056F91049828D0988914203D80F4B7E
:1031F0000B4A6D21F3E713F812200D4B1B6853F8AF
:10320000220003681B6B9847291A3346204609B2EF
:10321000BDE87040184700BFD83601200D5E020897
:103220004F5E02088A5E0208DC360120D15E020889
:10323000E03601200B7970B590F82C6004460D46FD
:103240000BB916B170BD002EFCD0B3FA83F35B0945
:1032500084F82C3023682046D3F88C3098472368B4
:1032600020465B699847002EECD02B79012BE9D1E1
:1032700023682046D3F88830BDE870401847000026
:103280004FF480710022818405490160C0E9012268
:10329000C0E90322C0E90522C0E907228262704723
:1032A0003C70020800224FF0FF31C0E9002182602B
:1032B000704710B50446FFF7F5FF204610BD00002B
:1032C00010B500210446262221F0E9FA2046FFF736
:1032D0004BFD094B2360094BA3624FF6FF73A38597
:1032E0004FF47F020023C4E90C32238704F13C0031
:1032F000FFF7D8FF204610BD2C7202085C6502085B
:1033000010B50446FFF7DCFF024B23600023A364E3
:10331000204610BD5068020870B50446FFF7B0FFA4
:103320004FF47F432646A3850123002584F82430EB
:10333000134B256346F8343B3046FFF727FD114B0E
:1033400063632A4629463046C4E91A55C4E91C5528
:103350002566A4F86450FFF7E1FC31462046264676
:1033600007F00CFC084B46F8783B3046FFF7A8FF07
:103370002046C4E93055314607F000FC204670BDB8
:10338000E0680208247302087C69020810B403672D
:10339000019B436703685DF8044BD3F88C30C0E9A8
:1033A0001A12184738B5044600F1780528460AF085
:1033B000EFFDB4F90A20B4F908102846FFF7BBFC6A
:1033C00038BD0368C0E93012D3F88C3018470000CC
:1033D0002DE9F04F0446BBB0254600260FF034FB24
:1033E000DC4BE66345F8403B04F16C072846FFF7E9
:1033F000CDFC04F198093846FFF7C8FC4846FFF7B2
:103400003FFF04F1C403184604F1F00A1E9304F5CB
:103410008E7BFFF7BBFC5046FFF7B8FC5846FFF722
:103420006FFF04F5B47318461F93FFF7AFFC04F564
:10343000CA7318460E93FFF763FF04F5F07318463E
:103440002093FFF7A3FC04F5037318460F93FFF7CF
:1034500057FF04F5167318462193FFF797FC04F500
:10346000217318461093FFF74BFF04F53473184689
:103470002293FFF78BFC04F53F7318461193FFF777
:103480003FFF04F5527318462393FFF77FFC04F5C2
:103490005D7318460393FFF733FF04F57073184606
:1034A0002493FFF773FC04F57B7318461293FFF720
:1034B00027FF04F5876318462593FFF767FC04F29E
:1034C000644318461393FFF71BFF04F596631846F1
:1034D0002693FFF75BFC04F2DC4318461493FFF7D6
:1034E0000FFF04F5A56318462793FFF74FFC04F27E
:1034F000545318461593FFF703FF04F5B4631846B9
:103500002893FFF743FC04F2CC5318461693FFF7B9
:10351000F7FE04F5C36318462993FFF737FC04F25E
:10352000446318461793FFF7EBFE04F5D263184681
:103530002A93FFF72BFC04F2BC6318461893FFF79D
:10354000DFFE04F5E16318462B93FFF71FFC04F23E
:10355000347318461993FFF7D3FE04F5F063184649
:103560002C93FFF713FC04F2AC7318461A93FFF781
:10357000C7FE04F5FF6318462D93FFF707FC04F61A
:10358000240318461B93FFF7BBFE04F50763184698
:103590000293FFF775FE04F69C0318462E93FFF77F
:1035A000F5FB04F6C80318460493FFF7B5FE04F5CF
:1035B000196318460593FFF7AFFE04F65823184623
:1035C0000693FFF77DFE04F52A6318460793FFF77D
:1035D000A3FE04F6683318460893FFF79DFE04F532
:1035E000436318460993FFF74BFE04F65C43184605
:1035F0002F93FFF7CBFB04F6884318461C93FFF785
:103600007FFE04F6D44318460A93FFF759FE04F6EA
:103610001C5318460B93FFF733FE04F64853184625
:103620003093FFF7B3FB04F6745318461D93FFF76E
:1036300067FE04F55C6318460C93FFF741FE04F641
:10364000086326224FF6FF78314618460D93ADF8F1
:10365000DC8021F024F90D98FFF786FB3E4BC4F87F
:10366000083EBDF8DC300D98A4F82E3E84F8308E6C
:1036700037A90AF0E9FD394BC4F89C3F4FF4A07814
:10368000374BC4F8A43F32462846C4F8A04FC4F8CC
:10369000A86FF023CDF800803146FFF759FB4FF0BB
:1036A0007F43A366231D29461846319307F066FA27
:1036B00032463846CDF80080F0233146FFF748FB0C
:1036C000284BC4F89430DC253946201D07F056FA03
:1036D0002B4600955A220A214846FFF739FB2B4614
:1036E00032461E9800953146FFF732FB1E4B1E995D
:1036F000C4F8EC30484607F041FA3227A6221146BA
:103700003B4650460097FFF723FB184BC4F818318F
:103710005146484607F032FA1323B6220093AB21F4
:1037200028235846FFF714FB4FF07F43C4F84C3171
:10373000D4F81C31A4F8506132ADD3F88430DFF8EE
:10374000308059462846984795E8070004F5AC7341
:1037500010E000BF306A02088C730208186A020881
:1037600073310008D0E8EDFF7483B5FF6691E8FF80
:10377000D836012083E8070004F634631E93D8F896
:1037800000302BB9074B084A6021084820F080FE22
:10379000DFF820A0BAF80030022B0DD8044B024A03
:1037A0006121F2E70D5E02080F5F02088A5E0208DF
:1037B000D15E0208DC360120CD4B0221186801F0F1
:1037C000BDF8CC4A03460A211E9810F0EBFD1E9A64
:1037D000C4F864211423C84A3792584637A9ADF873
:1037E000E0300AF0D5FB5946484607F0C7F93B469A
:1037F000A6221F9800977021FFF7AAFABF49C4F8C4
:10380000901148461F9907F0B9F91320B62200908D
:1038100028230E987521FFF79BFAD4F894310E995E
:10382000D3F88430A4F8C8614FF07F40C4F8C401D5
:103830002846984795E8070004F5E87383E80700F1
:10384000D8F8003004F6486B002B9BD0BAF8003053
:10385000032BA3D9A64B0321186801F06FF8A54AE2
:1038600003460A21584610F09DFD37A8A24AC4F825
:10387000DCB1152301460E983792ADF8E0300AF01E
:1038800087FB0E99484607F079F93B46A622209817
:1038900000973A21FFF75CFA9849C4F808124846A5
:1038A000209907F06BF91320B622009028230F9877
:1038B0003E21FFF74DFAD4F80C320F99D3F884303B
:1038C000A4F840624FF07F40C4F83C022846984775
:1038D00095E8070004F5127383E80700D8F8003074
:1038E00004F65C6B002B3FF44DAFBAF80030042BAC
:1038F0007FF654AF7E4B0421186801F01FF87D4A13
:1039000003460A21584610F04DFD37A87A4AC4F8FC
:1039100054B2162301460F983792ADF8E0300AF002
:1039200037FB0F99484607F029F93B46A622219814
:1039300000970421FFF70CFA7049C4F8801248463A
:10394000219907F01BF91320B62200902823109824
:103950000921FFF7FDF9D4F884321099D3F88430A7
:10396000A4F8B8624FF07F40C4F8B40228469847E4
:1039700095E8070004F5307383E80700D8F80030B5
:1039800004F5676B002B3FF4FDAEBAF80030052B51
:103990007FF604AF564B0521186800F0CFFF554A5B
:1039A00003460A21584610F0FDFC37A8524AC4F8D5
:1039B000CCB21723014610983792ADF8E0300AF0E8
:1039C000E7FA1099484607F0D9F83B46702222984A
:1039D0000097A621494FFFF7BBF92299C4F8F87266
:1039E000484607F0CBF81321802211980091282334
:1039F000AA21FFF7ADF9D4F8FC32A4F830634FF0F8
:103A00007F412846D3F88430C4F82C131199984785
:103A100095E8070004F54E7383E80700D8F80030F6
:103A200004F68465002B3FF4ADAEBAF80030062BE7
:103A30007FF6B4AE2E4BDFF8CC801868062100F07C
:103A40007DFF2C4A03460A21284610F0ABFCC4F83F
:103A5000445337AD284A1198379218232946ADF8B8
:103A6000E0300AF095FA1199484607F087F83226B7
:103A700070221146334623980096FFF769F923997F
:103A8000C4F87073484607F079F813202823802281
:103A9000009075210398FFF75BF932AF4FF07F403C
:103AA0004FF0000B0399C4F8A403A4F8A8B3384658
:103AB000FFF7FFFB039800F13C0397E8070083E85A
:103AC0000700D8F8003004F6986A002B3FF45AAE8D
:103AD0000B4F3B88072B7FF661AE054B072118681B
:103AE00000F02CFF034A03460A2150460CE000BFB9
:103AF000E43601205A5F02085C6502086691E8FF1F
:103B0000DC360120D836012010F04CFCD04A039856
:103B1000C4F8BCA3192329463792ADF8E0300AF067
:103B200037FA0399484607F029F83346702224985B
:103B300000963A21FFF70CF9C649C4F8E813484645
:103B4000249907F01BF81320282380223F2100909E
:103B50001298FFF7FDF84FF07F40C4F81C04A4F85A
:103B600020B42846FFF79EFB95E8070004F585631F
:103B700083E80700D8F8003004F6AC6A002B3FF465
:103B800001AE3B88082B7FF609AEB34B08211868BD
:103B900000F0D4FEB14A03460A21504610F002FC60
:103BA000AB4A1298C4F834A41A2329463792ADF8C8
:103BB000E0300AF0EDF91299484606F0DFFF33468F
:103BC0007022259800960421FFF7C2F8A149C4F895
:103BD00060144846259906F0D1FF1320282380223F
:103BE000092100901398FFF7B3F84FF07F40C4F815
:103BF0009404A4F898B42846FFF754FB95E807000E
:103C000004F5946383E80700D8F8003004F56C6A83
:103C1000002B3FF4B7AD3B88092B7FF6BFAD8E4B31
:103C20000921186800F08AFE8C4A03460A21504692
:103C300010F0B8FB864A1398C4F8ACA41B2329469D
:103C40003792ADF8E0300AF0A3F91399484606F030
:103C500095FF33463A2226980096A621FFF778F87A
:103C60007C49C4F8D8144846269906F087FF1320EB
:103C700028234A22AB2100901498FFF769F84FF0EF
:103C80007F40C4F80C05A4F810B52846FFF70AFBDE
:103C900095E8070004F5A36383E80700D8F800302F
:103CA00004F6D46A002B3FF46DAD3B880A2B7FF6F7
:103CB00075AD694B0A21186800F040FE674A03465B
:103CC0000A21504610F06EFB614A1498C4F824A5EE
:103CD0001C2329463792ADF8E0300AF059F91499BF
:103CE000484606F04BFF33463A222798009670214B
:103CF000FFF72EF85749C4F850154846279906F0A3
:103D00003DFF132028234A22752100901598FFF7C4
:103D10001FF84FF07F40C4F88405A4F888B5284602
:103D2000FFF7C0FA95E8070004F5B26383E80700DF
:103D3000D8F8003004F6E865002B3FF423AD3B884B
:103D40000B2B7FF62BAD444B0B21186800F0F6FDD2
:103D5000424A03460A21284610F024FBC4F89C5529
:103D600037AD3B4A159837921D232946ADF8E03010
:103D70000AF00EF91599484606F000FF3A2211465E
:103D8000334628980096FEF7E3FF3249C4F8C81579
:103D90004846289906F0F2FE132028234A223F21A4
:103DA00000901698FEF7D4FF4FF07F40C4F8FC0552
:103DB000A4F800B62846FFF775FA95E8070004F561
:103DC000C16383E80700D8F80030DA4604F6FC6BDC
:103DD000002B3FF4D7AC3B880C2B7FF6DFAC1E4B9F
:103DE0000C21186800F0AAFD1C4A03460A21584617
:103DF00010F0D8FA164A1698C4F814B61E232946AD
:103E00003792ADF8E0300AF0C3F81699484606F04C
:103E1000B5FE33463A22299800960421FEF798FF12
:103E20000C49C4F840164846299906F0A7FE13200D
:103E300028234A22092100901798FEF789FF4FF0A6
:103E40007F40C4F87406A4F878A6284608E000BFAE
:103E50005C6502086691E8FFE43601205A5F0208BB
:103E6000FFF720FA95E8070004F5D06383E8070020
:103E7000D8F8003004F5716B002B3FF483AC3B881D
:103E80000D2B7FF68BACD34B0D21186800F056FD3F
:103E9000D14A03460A21584610F084FACF4A1798AF
:103EA000C4F88CB61F2329463792ADF8E0300AF0EB
:103EB0006FF81799484606F061FE334604222A98A7
:103EC0000096A621FEF744FFC549C4F8B816484637
:103ED0002A9906F053FE132028231422AB210090C8
:103EE0001898FEF735FF4FF07F40C4F8EC06A4F8B1
:103EF000F0A62846FFF7D6F995E8070004F5DF633A
:103F000083E80700D8F8003004F6247B002B3FF448
:103F100039AC3B880E2B7FF641ACAE4B0E211868B6
:103F200000F00CFDAC4A03460A21584610F03AFA5C
:103F3000AA4A1898C4F804B7202329463792ADF846
:103F4000E0300AF025F81899484606F017FE334687
:103F500004222B9800967021FEF7FAFEA049C4F8BF
:103F6000301748462B9906F009FE13202823142207
:103F7000752100901998FEF7EBFE4FF07F40C4F8D2
:103F80006407A4F868A72846FFF78CF995E80700AE
:103F900004F5EE6383E80700D8F8003004F6387BB8
:103FA000002B3FF4EFAB3B880F2B7FF6F7AB894B31
:103FB0000F21186800F0C2FC874A03460A215846C0
:103FC00010F0F0F9854A1998C4F87CB721232946E6
:103FD0003792ADF8E03009F0DBFF1999484606F05A
:103FE000CDFD334604222C9800963A21FEF7B0FE10
:103FF0007B49C4F8A81748462C9906F0BFFD132248
:1040000028233F211A9800921422FEF7A1FE4FF0B8
:104010007F42C4F8DC272846A4F8E0A7FFF742F95E
:1040200095E8070004F5FD6383E80700D8F8003041
:1040300004F64C75002B3FF4A5AB3B88102B7FF6A4
:10404000ADAB644BDFF894B11868102100F076FC3A
:1040500037AE614A03460A21284610F0A3F922230D
:104060001A98C4F8F4573146ADF8E030CDF8DCB01A
:1040700009F08EFF1A99484606F080FD3222134659
:104080000092042211462D98FEF762FE544B2D99A2
:10409000C4F82038484606F071FD132209211B9808
:1040A000009228231422FEF753FE4FF07F43C4F8FA
:1040B0005438A4F858A83046FFF7F4F896E80700FB
:1040C00004F5066383E80700D8F80030554604F588
:1040D0007667002B3FF456AB42490B88112B7FF6D5
:1040E0005DAB3C4B1121186800F028FC3A4A0346AE
:1040F0000A21384610F056F923231B98C4F86C782F
:104100003146ADF8E030CDF8DCB009F041FF48466B
:104110001B9906F033FD68274946201D06F02EFD49
:10412000514602980097F0239422FEF711FE524662
:1041300084F895A851462E980097F023FEF708FEC4
:10414000294B2E990298C4F8C438192706F016FD99
:10415000524651463C2304F6FC000097FEF7F8FD5A
:10416000224ADFF890A0224B4FF002001146A4F83B
:104170002C090498CDF800A0FFF708F9252304982E
:10418000ADF8E03031464FF0FF38CDF8DCB0FFF746
:1041900009F93C230322294604F514600097FEF731
:1041A000D7FD049842464146FFF70BF904F69C7987
:1041B0003C231A46C4F8F89804980097A021FEF70B
:1041C000C7FD0499029806F0D9FC6E232A462946B9
:1041D00012E000BFE43601205A5F02085C65020865
:1041E0006691E8FFDC3601202D5403FF1F0EB2FF5D
:1041F000663300FF996633FF04F6C4100097FEF79C
:10420000A7FDD64AD64B4FF002001146A4F8F40998
:104210000598CDF800A0FFF7B9F826230598ADF86A
:10422000E0303146CDF8DCB0FFF7BCF86E23032256
:10423000294604F608200097FEF78AFD05984246B5
:104240004146FFF7BEF86E23C4F8C0993C2205989A
:1042500000971421FEF77CFD0599029806F08EFC6C
:10426000102206983821FEF759FD0DF1C80C604662
:104270000699C4F8888AA4F88C5A09F0EFFB0698CE
:104280000DF1C80C00F13C039CE8070083E807002F
:1042900024230698ADF8E0303146CDF8DCB009F0C3
:1042A00077FE0699029806F069FC0299201D06F037
:1042B00065FC3C232A46294604F6D4200097FEF7E5
:1042C00047FD4FF00200A74AA4F8040BA44BA649EF
:1042D0000798CDF800A0FFF759F82B230798ADF801
:1042E000E0303146CDF8DCB0FFF75CF83C23032228
:1042F000294604F618300097FEF72AFD0798424633
:104300004146FFF75EF83C231A46C4F8D09A079856
:104310000097AA21FEF71CFD0799201D06F02EFC30
:104320003C232A46294604F69C300097FEF710FDF0
:104330004FF002008B4AA4F8CC0B894B8A490898AD
:10434000CDF800A0FFF722F827230898ADF8E03059
:104350003146CDF8DCB0FFF725F83C23032229468F
:1043600004F53E600097FEF7F3FC0898424641468C
:10437000FFF727F83C231A46C4F8989B0898009743
:104380006421FEF7E5FC0899201D06F0F7FB4FF0CD
:10439000320C0998CDF800C03C230522AA21FEF773
:1043A000D7FC4FF0320CCDF800C03C232A462F98A2
:1043B0002946FEF7CDFC6D482F99C4F8840C099866
:1043C00006F0DCFB4FF0130C2A233A4609211C9817
:1043D000CDF800C0FEF7BCFCC4F8B88CA4F8BC5CF7
:1043E0003046FEF75FFF96E8070004F6C44383E813
:1043F00007005F4A136804F67479002B3FF4C2A9E2
:104400005C490B88002B3FF4C9A95B4B294618680F
:1044100000F094FA594A03460A2148460FF0C2FFB9
:1044200012231C98C4F8D09C3146ADF8E030CDF88A
:10443000DCB04FF0140909F0ABFD1C99099806F0A7
:104440009DFB3C2301220A98CDF800902946FEF7F7
:104450007FFC0DF1C80C60460A99C4F8048DA4F8DD
:10446000085D09F0FBFA0A980DF1C80C00F13C0355
:104470009CE807004FF02A0A83E807000A98CDF865
:10448000DCB03146ADF8E0A009F082FDDDE90901BC
:1044900006F074FB0999201D06F070FB4FF0320CFA
:1044A0000B98CDF800C03C2305226421FEF750FC98
:1044B0004FF0320CCDF800C03C232A4630982946F4
:1044C000FEF746FC29483099C4F8700D0B9806F0A9
:1044D00055FB4FF0130C3A46534609211D98CDF871
:1044E00000C0FEF735FCC4F8A48DA4F8A85D3046E2
:1044F000FEF7D8FE96E8070004F55B6383E8070043
:104500001B4A136804F68877002B3FF43BA919492E
:104510000B88012B7FF642A9174B0121186800F088
:104520000DFA164A03460A2138460FF03BFF4FF0BA
:1045300013031D98C4F8BC7D3146ADF8E030CDF8CA
:10454000DCB009F025FD1D990B9806F017FB0C98BF
:10455000CDF800900122294612E000BF1F0EB2FFE5
:10456000663300FFCC9900FF996600FF46468FFF37
:10457000D8360120DC360120E43601205A5F0208DB
:104580003C23FEF7E5FB32AB0C99C4F8F08D1846DE
:10459000A4F8F45D09F062FA32AA07CA0C9BCDF8C0
:1045A000DCB03C3383E8070029230C98ADF8E030F9
:1045B000314609F0EDFCDDE90B0106F0DFFA0B995D
:1045C000201D06F0DBFA05220D980A21FEF7A6FB56
:1045D0004FF00200ADF8DC0031460D9809F034FED2
:1045E000201D0D9906F0CAFA20463BB0BDE8F08FB9
:1045F0007047000030B5164D2C6814F001048FB0E0
:10460000BFF35B8F21D128461FF007F8E8B1114BAB
:10461000114912480A94CDE90B433F230993104BEB
:104620000893104B05940122CDE906430423CDE9FC
:10463000033214230093CDE90144FEF793FA0A48AC
:104640001FF044FF28461EF0F4FF04480FB030BDB1
:10465000182800206C6A0208608902081C280020C3
:10466000F88B0208088C0208F1450008704700002A
:1046700030B5164D2C6814F001048FB0BFF35B8F7A
:1046800021D128461EF0C9FFE8B13F230993104B02
:104690000893104B07930123CDE9054304930423AA
:1046A000CDE902430E230C4900931B22CDE90B44B4
:1046B0000A480A940194FEF755FA09481FF006FFCC
:1046C00028461EF0B6FF05480FB030BD4828002030
:1046D000FC8B02080C8C0208708902084C28002010
:1046E0006D4600087047000030B5164D2C6814F078
:1046F00001048FB0BFF35B8F21D128461EF08DFFE0
:10470000E8B13F230993104B0893104B104911480F
:104710000A94CDE9064301220423CDE90332142390
:1047200000930A22CDE90B44CDE901440594FEF73C
:1047300019FA09481FF0CAFE28461EF07AFF0548FC
:104740000FB030BD78280020008C0208108C0208C1
:10475000EC8A02087C280020E5460008704700002B
:1047600030B5174D2C6814F001048FB0BFF35B8F88
:1047700022D128461EF051FFF0B13F230993114B7F
:104780000893114B114912480A94CDE906430122BE
:104790000423CDE903321E23009309222423CDE90B
:1047A0000B44CDE901440594FEF7DCF909481FF0FC
:1047B0008DFE28461EF03DFF05480FB030BD00BFFE
:1047C000A8280020048C0208148C0208788B0208A8
:1047D000AC2800205D47000800207047002070478B
:1047E0000EB403B503AB002153F8042B01930DF075
:1047F000AFF902B05DF804EB03B070470CB407B535
:1048000004AB53F8042B01930DF0A2F903B05DF84B
:1048100004EB02B070470000436C10B5044673B35C
:10482000038F2BB9184B194AC52119481FF030FEC8
:10483000C38E00EB43035B8C0BB30FF00AF8238F9E
:10484000012B03D8134B144ACB21EEE7E28E531C05
:104850009BB2092B194688BFA3F10A0104EB410161
:1048600040F63F10498C814209D10A2B04EB4202E9
:1048700028BF002304EB4303508C58845184204606
:10488000BDE810400EF0E8BE5D5F0208665F0208FA
:10489000116002085B600208696002080EF0A3BEA6
:1048A00010B586B002AC84E806001A460AAB059340
:1048B0000193099B00932146089B0BF05FFC06B017
:1048C00010BD000038B518BB124B13481C681349C3
:1048D000B4B1226822440260626822440A60A2687D
:1048E00014440F4B00221A8000F038F8054600F0FF
:1048F00033F80C4B1C600C4B1D600C4B188007E010
:104900000B4B03600B4B0B600B4B1C68002CE8D16E
:1049100038BD00BFE4280020DC280020D828002073
:10492000E0280020D8360120E0360120DC360120C6
:10493000C88C0208188C0208888D0208044B1B687A
:1049400053F82100034B1B6803EB4000704700BF86
:10495000D8280020DC2800202C2070470048704711
:10496000E828002010B5FFF745FE064C2060FFF751
:10497000F7FE6060FFF77CFEA060FFF7B5FEE06029
:1049800010BD00BFE828002010B5002404600C60B2
:1049900014601C6010BD704710B54FF4AE71044632
:1049A0001EF039FE204610BD10B50446D0F858015F
:1049B00000F013F82046BDE810400CF0C3B800002A
:1049C00010B50446FEF744F8014B2360204610BDA5
:1049D000CC6E0208002202607047704770470438AE
:1049E0007047704710B5102104461EF014FE204693
:1049F00010BDA0F10400F5E700228260024A0260C7
:104A000018324260C1607047206F02087047000092
:104A100010B5034B03600446FEF7DEF8204610BDD8
:104A2000486F020810B50446FFF7F2FF20464FF426
:104A3000CE711EF0F0FD204610BD000010B50446FA
:104A4000FEF71AFA014B2360204610BD486F02089A
:104A5000FEF7C3B8704704387047704710B510218F
:104A600004461EF0D8FD204610BDA0F10400F5E775
:104A700000228260024A026018324260C1607047C0
:104A80007C6F020870470368DB68184710B5034B5A
:104A900003600446FEF7FCFA204610BDA46F02082E
:104AA00010B50446FFF7F2FF204640F6F4711EF001
:104AB000B2FD204610BD000010B50446FEF788FC8C
:104AC000014B2360204610BDA46F0208F7B50546D0
:104AD00000F6B87200F6F8710024A2F1100353F842
:104AE000040F00B901349342F9D103F110028A4254
:104AF000F3D16CB31D48694602F010FF08B10023E2
:104B00000093009BB3FBF4F2002604FB12334FF03A
:104B1000FF3105F6A8721046002450F8047FDFB973
:104B200001318B4218D1114801A902F0F7FE88B972
:104B3000019B0A22B3FBF2F102FB1133092B14BFD4
:104B40000223042304EB860405EB8404C4F8AC3F81
:104B500003B0F0BD0223F5E70134042CDDD10136AA
:104B6000042E02F11002D6D1F2E700BFE4250020A6
:104B70002DE9F04FBBB000F624030A9300F2AC73AA
:104B80000B9300F234730C9300F2BC630D9300F2AC
:104B900044630E9300F2CC530F9300F254531093DE
:104BA00000F2DC43119300F26443129300F57B732F
:104BB000139300F55D73149300F53F73159300F59F
:104BC0002173169300F50373179300F5CA731893B6
:104BD00000F58E73199300F5FF631A9300F5F063E7
:104BE0001B9300F5E1631C9300F5D2631D9300F560
:104BF000C3631E9300F5B4631F9300F5A563209370
:104C000000F59663219300F58763229300F5707396
:104C1000239300F55273249300F53473259300F524
:104C20001673269300F5F073279300F5B473289359
:104C300000F1F003299300F576632A9300F64C7394
:104C40002B9300F638732C9300F624732D9300F504
:104C500071632E9300F6FC632F9300F6E8633093A4
:104C600000F6D463319300F56C63329300F6AC63C5
:104C7000339300F69863349300F68463359300F51C
:104C80006763369300F65C63379300F648633893A6
:104C900000F6346339933E4B02AA044603F1200721
:104CA000164618685968154603C50833BB422A469C
:104CB000F7D1DFF814914FF0100804F698774744C5
:104CC000A8F1100501960AAB019853F805B03149D7
:104CD000314A1AAB55F803A057F8043F002B08BF20
:104CE0000A4630F8021B01902AA840590FF05AFBDF
:104CF0003A68402A3DD027DC082A3CD01DDC022A35
:104D00003BD0264B042A18BF4B46CAF82830DBF8A4
:104D1000003058465B699847DAF8003050465B69C6
:104D2000043598474545CED1402D05F1100806F1D0
:104D30000806C2D13BB0BDE8F08F102A1FD0184B37
:104D4000202A18BF4B46E0E7B2F5007F19D007DCF8
:104D5000802A18D0134BB2F5807F18BF4B46D4E79A
:104D6000B2F5806F11D0104BB2F5006F18BF4B46F3
:104D7000CBE70E4BC9E70E4BC7E70E4BC5E70E4B13
:104D8000C3E70E4BC1E70E4BBFE70E4BBDE700BFBD
:104D9000E45402088B6102083B610208C8E0EDFFA1
:104DA0005F7CF6FF61CCEDFF2EC2EDFF3B5EF6FFB0
:104DB00079B1F2FFDAE4EEFF6395F5FF50C8EDFF3D
:104DC00072CFEDFF3FC5EDFFB5C1CDFF00212DE94D
:104DD000F04F034600F6A87C8B46894600256646C0
:104DE0004FF0FF3A2C464FEA810856F8042FD2B113
:104DF000002C23DD04F1FF3E08EB0E0703EB8707D1
:104E0000D7F8AC0F824219D1D64517D05200C7F857
:104E1000AC2FD3F8EC0F1044C3F8EC0FF246C6F8F1
:104E200000904FF0010B0135042DDED10131042932
:104E30000CF1100CD2D15846BDE8F08FAC4209D02D
:104E400008EB040003EB80004FF0010BC0F8AC2F1F
:104E5000C6F800900134E6E700212DE9F04F034643
:104E600000F6BC7C8B468946032566464FF0040A53
:104E70002C464FEA810856F8042DD2B1022C22DCD0
:104E800004F1010E08EB0E0703EB8707D7F8AC0F10
:104E9000824218D1D64516D05200C7F8AC2FD3F8AD
:104EA000EC0F1044C3F8EC0FF246C6F800904FF038
:104EB000010B013DDFD2013104290CF1100CD3D1DB
:104EC0005846BDE8F08FAC4209D008EB040003EB74
:104ED00080004FF0010BC0F8AC2FC6F80090013CE9
:104EE000E7E700232DE9F043024699469E46002558
:104EF00002EB83064FF0FF3C2C46D6F8AC1FD1B135
:104F0000002C23DD04F1FF3803EB880702EB870751
:104F1000D7F8AC0F814219D1E04517D04900C7F846
:104F2000AC1FD2F8EC0F0844C2F8EC0FC446C6F828
:104F3000ACEF4FF001090135042D06F11006DCD16C
:104F40000133042BD3D14846BDE8F083AC4209D0ED
:104F500003EB840002EB80004FF00109C0F8AC1FA6
:104F6000C6F8ACEF0134E6E700232DE9F043024632
:104F700099469E46032502EB83064FF0040C2C460F
:104F8000D6F8DC1FD1B1022C23DC04F1010803EBBD
:104F9000880702EB8707D7F8AC0F814219D1E045AB
:104FA00017D04900C7F8AC1FD2F8EC0F0844C2F87C
:104FB000EC0FC446C6F8DCEF4FF00109013D691C57
:104FC000A6F11006DCD10133042BD3D14846BDE84D
:104FD000F083AC4209D003EB840002EB80004FF079
:104FE0000109C0F8AC1FC6F8DCEF013CE6E700F6AB
:104FF000B87230B500F6F8751446A4F1100151F8F6
:10500000043FABB1A142FAD101F11004AC42F4D19A
:1050100000F14004D0F8B01FD0F8AC3F8B4207D06D
:10502000D0F8B43F994203D0D0F8B81F8B4201D1D9
:10503000002030BD1030A042ECD10121A2F11003BC
:1050400053F8044F18698442F2D09342F8D10131E9
:10505000042903F11002F1D10120EAE738B50C4C24
:105060000C4BB3FBF1F1236815464A1E4908DA627E
:10507000204699630421E26003F040FB284600F0DB
:10508000EBFB20460421BDE8384003F077BB00BFAE
:105090004425002040420F0070B50C4D06460FCD50
:1050A00086B001AC0FC42B68236001AD002455F815
:1050B000041B78223046FFF7D1FF0134322000F084
:1050C000CBFB052CF3D106B070BD00BF0455020820
:1050D00030B587B0044600F0C5FF00230B210193D3
:1050E0000123CDE903130225694601A8059501F0C6
:1050F000ADF818B1FCF7ECFE07B030BDD4F8F02FD6
:105100000449D317284600F0F1FF0028F2D100F03F
:10511000BBFFF1E700000F08034B1B685A1C08BFD8
:105120000023C0F8F03F704700000F0838B5044670
:1051300000F68875D0F8EC3F064A28460A210FF0A1
:1051400031F9C4F8BC5D04F67450BDE838400CF089
:1051500029BE00BF3B61020838B5D0F8F02FD0F867
:10516000EC3F9342044603DDC0F8F03FFFF7B0FF89
:1051700004F67475D4F8F03F064A28460A210FF069
:1051800011F9C4F8D05C04F68840BDE838400CF052
:1051900009BE00BF3B61020810B50446FDF779FF68
:1051A000234604F140010022C3F8AC2FC3F8B02F0E
:1051B000C3F8B42FC3F8B82F10338B42F4D1C4F81E
:1051C000EC2F2046FFF7A8FFFFF780FC2046FFF7F3
:1051D0007DFC2046FFF7CCFC2046FFF7A7FF2046CA
:1051E000BDE81040FFF7B8BF37B5264D0446286824
:1051F00003F06CFD08B34FF0FF33286800220DF177
:10520000070103F033FD9DF80730532B2ED016D83D
:10521000412B2FD0442B31D02046FFF7E8FE60B160
:10522000012384F8953804F507600CF0BBFD204697
:10523000FFF792FF2046FFF72FFF03B030BD572B3B
:10524000EAD12046FFF74DFE0028E5D01E224FF49C
:1052500096712046FFF702FF2046FFF737FC2046F5
:10526000FFF786FC2046FFF761FFD5E72046FFF7F2
:105270007BFEE9E72046FFF7A9FDE5E72046FFF7BB
:10528000EBFDE1E70025002010B50023044680F87F
:10529000953800F507600CF085FD23682046DB6833
:1052A000BDE810401847F02070474FF4A0707047D9
:1052B0002920FCF751BD2820FCF74EBD08B5FCF7AE
:1052C0001FFDCA20FCF748FDC320FCF729FD08207C
:1052D000FCF726FD5020FCF723FDCF20FCF73CFD1A
:1052E0000020FCF71DFDC120FCF71AFD3020FCF763
:1052F00017FDED20FCF730FD6420FCF711FD0320C5
:10530000FCF70EFD1220FCF70BFD8120FCF708FDD9
:10531000E820FCF721FD8520FCF702FD0020FCF7CA
:10532000FFFC7820FCF7FCFCCB20FCF715FD3920B6
:10533000FCF7F6FC2C20FCF7F3FC0020FCF7F0FC5B
:105340003420FCF7EDFC0220FCF7EAFCF720FCF728
:1053500003FD2020FCF7E4FCEA20FCF7FDFC002024
:10536000FCF7DEFC0020FCF7DBFCB120FCF7F4FCD2
:105370000020FCF7D5FC1B20FCF7D2FCB620FCF784
:10538000EBFC0A20FCF7CCFCA220FCF7C9FCC020F7
:10539000FCF7E2FC1020FCF7C3FCC120FCF7DCFCAE
:1053A0001020FCF7BDFCC520FCF7D6FC4520FCF71F
:1053B000B7FC1520FCF7B4FCC720FCF7CDFC90200F
:1053C000FCF7AEFC3620FCF7C7FCC820FCF7A8FCB5
:1053D000F220FCF7C1FC0020FCF7A2FCB020FCF797
:1053E000BBFCC220FCF79CFCB620FCF7B5FC0A20F5
:1053F000FCF796FCA720FCF793FC2720FCF790FC19
:105400000420FCF78DFC2A20FCF7A6FC0020FCF70A
:1054100087FC0020FCF784FC0020FCF781FCEF20D7
:10542000FCF77EFC2B20FCF797FC0020FCF778FCB7
:105430000020FCF775FC0120FCF772FC3F20FCF714
:105440006FFCF620FCF788FC0120FCF769FC0020CB
:10545000FCF766FC0620FCF763FC2C20FCF77CFCC8
:10546000C820FCF7C7FC2620FCF776FC0120FCF7DF
:1054700057FCE020FCF770FC0F20FCF751FC2920C2
:10548000FCF74EFC2420FCF74BFC0C20FCF748FCFE
:105490000E20FCF745FC0920FCF742FC4E20FCF7EF
:1054A0003FFC7820FCF73CFC3C20FCF739FC092051
:1054B000FCF736FC1320FCF733FC0520FCF730FC2E
:1054C0001720FCF72DFC1120FCF72AFC0020FCF72C
:1054D00027FCE120FCF740FC0020FCF721FC162013
:1054E000FCF71EFC1B20FCF71BFC0420FCF718FC3F
:1054F0001120FCF715FC0720FCF712FC3120FCF70B
:105500000FFC3320FCF70CFC4220FCF709FC0520C3
:10551000FCF706FC0C20FCF703FC0A20FCF700FC5F
:105520002820FCF7FDFB2F20FCF7FAFB0F20FCF7EF
:10553000F7FB1120FCF710FCC820FCF75BFC2920CE
:10554000FCF70AFCBDE808402C20FCF705BC08B5B8
:10555000FCF7D6FB0321D320FCF71AFC80B208BD70
:1055600010B5C4B2022203212046FCF77FFB0A20BB
:10557000FCF7C4FB204600220321FCF777FBBDE8C3
:1055800010400220FCF7BABB38B50446E4B2FCF781
:105590006BFB00212046FCF781FB012105462046DC
:1055A000FCF77CFB40EA052080B238BD10B5C4B2E0
:1055B00040212046FCF772FB030607D54C2120460C
:1055C000FCF76CFB003818BF012010BD01224B21F5
:1055D0002046FCF74BFB204600224B21FCF746FB04
:1055E0000020F2E773B50423C4B20E461546D72156
:1055F0000DEB03022046FCF76BFB019B1BBA1A0D57
:10560000C3F30B23328020462B8001224B21FCF771
:105610002DFB00224B212046FCF728FB02B070BD79
:1056200010B50A4A1378984204460DD05178884242
:105630000AD00BB141B90123D454FCF715FB204625
:10564000BDE81040FFF78CBF10BD00BFF828002058
:1056500010B5C4B209212046FCF720FB40F001023E
:10566000D2B220460921BDE81040FCF7FFBA10B5C0
:10567000C4B209212046FCF711FB092100F0FE020B
:105680002046BDE81040FCF7F1BA38B5C4B20D466B
:1056900020460A21FCF702FB40EA0502D2B220466E
:1056A0000A21BDE83840FCF7E1BA10B50446FCF722
:1056B000DCFA20461F21FFF7E8FF2046BDE8104036
:1056C000FFF7C6BF38B5C4B20D4620460A21FCF725
:1056D000E5FA20EA0502D2B220460A21BDE83840A8
:1056E000FCF7C4BA10B50446FFF7C1FF20461F21DE
:1056F000BDE81040FFF7E6BF10B5C0B20C460B2165
:10570000FCF7CCFA204010BD1F21FFF7F5BF0A4679
:10571000C0B20B21FCF7AABA1F21FFF7F8BF38B5BA
:10572000C4B20D4620461721FCF7B8FA20EA05025C
:10573000D2B220461721BDE83840FCF797BA70B5C1
:10574000C4B2064604212046FCF7A8FA042100F062
:10575000FB0205462046FCF789FA3046F021FFF7A8
:10576000DEFF05F0F80220460421FCF77FFA49220B
:1057700020212046FCF77AFA0220FCF7BFFA2046E7
:1057800001222121FCF772FA20469A224121FCF7DE
:105790006DFA204601224A21FCF768FA20460122D0
:1057A0004B21FCF763FA204600224B21FCF75EFAFE
:1057B000204601225621FCF759FA204601225821A1
:1057C000FCF754FA204601224021FCF74FFA20460C
:1057D000FF220B21FCF74AFABDE870400220FCF7DB
:1057E0008DBA0000054BD3F8882042F47002C3F84C
:1057F00088204FF000629A60704700BF00ED00E023
:1058000008B50B4B1A6842F400721A601A6842F429
:1058100080621A601A6842F480721A60032000F0F5
:1058200045FA0020FCF73CFEFCF754FB002008BDC5
:10583000003C0240034A044B11681B780B44136080
:10584000704700BFFC28002078000020014B18683A
:10585000704700BFFC28002038B50446FFF7F6FF6C
:10586000631C1CBF054B1B78054618BFE418FFF7E7
:10587000EDFF431BA342FAD338BD00BF78000020E0
:1058800038B50446002800F09B80056C25B9FCF76C
:1058900041FB656484F83C50236CDB0600F18E808C
:1058A000236C23F4885323F0020343F002032364A0
:1058B000444B5A6822F440325A605A6861680A437D
:1058C0005A60236821695A6822F480725A605A68C3
:1058D00042EA01225A605A68A16822F040725A6076
:1058E0005A680A435A609A68E16822F400629A6032
:1058F0009A680A439A603449A26A8A4252D09968E7
:1059000021F07061996099680A439A609A68E16A27
:1059100022F040529A609A680A439A609A6822F08C
:1059200002029A609A68217E42EA41029A6094F8E3
:105930002020002A3ED05A68616A42F400625A6010
:105940005A6822F460425A605A68013942EA413288
:105950005A60DA6AE16922F47002DA62DA6A0139BD
:1059600042EA0152DA629A6822F400729A609A68F6
:1059700094F8301042EA41229A609A68616922F4F0
:1059800080629A609A68002042EA81229A6060648C
:10599000236C23F0030343F001032364002384F802
:1059A0003C3038BD9A6822F070629A609A6822F0A2
:1059B0004052B2E75A6822F40062C9E70120EDE7DD
:1059C0000120EEE7002301400100000F82B0002318
:1059D000019390F83C30012B69D0012380F83C30D2
:1059E00003689A68D2070BD59A68D1071AD4036C5A
:1059F00043F010030364436C43F0010343644CE041
:105A00009A682C4942F001029A602B4A1268B2FB54
:105A1000F1F202EB42020192019A002AE4D0019ACB
:105A2000013AF8E7026C22F4E06222F0010242F44B
:105A3000807202645A68520541BF026C22F44052DF
:105A400042F480520264026C12F480521CBF426C19
:105A500022F006024264002280F83C206FF022020D
:105A60001A60164A516811F01F0F15491CD18B425C
:105A700007D001F580718B420CD1526812F01F0FD4
:105A80000BD19A6812F0405F07D19A6842F08042C9
:105A90009A6002E00B498B4202D0002002B07047AE
:105AA000526812F0100FEBE78B42F6D1E9E70220C3
:105AB000F4E700BF40420F007400002000230140C3
:105AC000002001400022014003689A68520570B529
:105AD00004460D460BD59B68DE0508D5036C43F0E4
