:020000040800F2
:10000000000003205D060008812400088324000806
:1000100085240008872400088924000800000000C7
:10002000000000000000000000000000018B00083C
:100030008B24000800000000918B00080D8400084C
:10004000AD060008AD060008AD060008AD060008C4
:10005000AD060008AD060008AD060008AD060008B4
:10006000AD060008AD060008AD060008AD060008A4
:10007000AD060008AD060008AD060008AD06000894
:10008000AD060008AD060008AD060008AD06000884
:10009000AD060008AD060008AD060008AD06000874
:1000A000AD060008AD060008AD060008AD06000864
:1000B000AD060008AD060008AD060008AD06000854
:1000C000AD060008AD060008AD060008AD06000844
:1000D000AD060008AD060008AD060008AD06000834
:1000E000AD060008AD060008AD060008AD06000824
:1000F000AD060008AD060008AD060008AD06000814
:10010000AD060008AD060008AD060008AD06000803
:10011000AD060008AD0600088D240008AD060008F5
:10012000AD060008AD060008AD060008AD060008E3
:10013000AD060008AD060008AD060008AD060008D3
:10014000AD060008AD060008AD060008AD060008C3
:10015000AD060008AD060008AD060008AD060008B3
:10016000AD060008AD060008AD060008AD060008A3
:10017000AD060008AD060008AD060008000000004E
:10018000AD060008AD060008AD060008AD06000883
:10019000AD060008AD060008AD060008AD06000873
:0C01A00099240008AD060008A524000802
:1001B00010B5054C237833B9044B13B10448AFF3A1
:1001C00000800123237010BD800300200000000088
:1001D000AC4F020808B5034B1BB103490348AFF30A
:1001E000008008BD0000000084030020AC4F02081E
:1001F00001F0FF01102A2BDB10F0070F08D010F8D8
:10020000013B013A8B422DD010F0070F42B3F6D1DB
:10021000F0B441EA012141EA014122F007047FF0F4
:1002200000070023F0E80256083C85EA010586EA4B
:10023000010685FA47F5A3FA87F586FA47F6A5FA87
:1002400087F68EB9EED1F0BC01F0FF0102F0070293
:1002500032B110F8013B013A83EA010313B1F8D13E
:100260000020704701387047002D06BF354603381F
:10027000073815F0010F07D1013015F4807F02BF58
:10028000013015F4C03F0130F0BC0138704700BFA9
:100290007BB972B90029BEBF00204FF0004106E0D3
:1002A00008BF00281CBF6FF000414FF0FF3000F086
:1002B000D3B9ADF1080C6DE904CE002909DB002BA0
:1002C0001ADB00F04DF8DDF804E0DDE9022304B0AC
:1002D0007047404261EB4101002B1BDB00F040F80E
:1002E000DDF804E0DDE9022304B0404261EB4101A6
:1002F000524263EB43037047524263EB430300F007
:100300002FF8DDF804E0DDE9022304B0404261EBA0
:1003100041017047524263EB430300F021F8DDF8DE
:1003200004E0DDE9022304B0524263EB430370476B
:1003300053B94AB9002908BF00281CBF4FF0FF314C
:100340004FF0FF3000F088B9ADF1080C6DE904CE34
:1003500000F006F8DDF804E0DDE9022304B07047A0
:100360002DE9F047089D8E4604468846002B4AD169
:100370008A42174662D9B2FA82F64EB1C6F120031C
:1003800001FA06F820FA03F3B74043EA0808B4403C
:100390004FEA174E1FFA87FCB8FBFEF1230C0EFB49
:1003A000118843EA084301FB0CF29A4209D9FB1871
:1003B00001F1FF3080F0EA809A4240F2E780023992
:1003C0003B449A1AA3B2B2FBFEF00EFB102243EAA2
:1003D000024300FB0CFC9C4509D9FB1800F1FF32DD
:1003E00080F0D6809C4540F2D3803B44023840EAFE
:1003F0000140A3EB0C0300211DB1F3400022C5E92D
:100400000032BDE8F0878B4205D90DB1C5E9000186
:1004100000210846F5E7B3FA83F1002946D1734578
:1004200002D3824200F20581841A6EEB030201209E
:100430009046002DE5D0C5E90048E2E7002A00F02B
:100440009080B2FA82F6002E40F0A4808A1A030C43
:100450004FEA174E80B2BCB20121B2FBFEFC0EFB8C
:100460001C2243EA024304FB0CF29A4207D9FB1810
:100470000CF1FF3802D29A4200F2E080C4469B1A87
:10048000B3FBFEF20EFB123340EA034302FB04F41B
:100490009C4207D9FB1802F1FF3002D29C4200F2C5
:1004A000CA8002461B1B42EA0C40A5E7C1F12006A8
:1004B0008B4022FA06F71F430EFA01F420FA06F3E6
:1004C0002EFA06FE4FEA1749234300FA01F81FFAF5
:1004D00087FCBEFBF9F01C0C09FB10EE44EA0E444D
:1004E00000FB0CFEA64502FA01F209D93C1900F105
:1004F000FF3A80F09C80A64540F2998002383C4447
:10050000A4EB0E041FFA83FEB4FBF9F309FB1344BA
:100510004EEA044403FB0CFCA44508D93C1903F142
:10052000FF3E80F08280A4457FD9023B3C4443EAF1
:100530000040A4EB0C04A0FB02EC64457346E146CA
:1005400062D35FD05DB1B8EB030264EB090404FA37
:1005500006F622FA01F31E43CC40C5E900640021EF
:100560004FE7B1FBF2FC010C41EA0E4180B240EAD8
:1005700001423B4638463C46B846BE462026B1FBC3
:10058000F7F1A2EB080241EA0C4166E7014618E7E1
:1005900010462CE7C6F120022EFA02F3B740B14014
:1005A00020FA02F24FEA174E0A43B3FBFEF8BCB240
:1005B0000EFB1833110C41EA034108FB04F9B0406B
:1005C00089454FEA104380B23ED9791808F1FF3CC3
:1005D00001D289451FD8A1EB0901B1FBFEF909FB46
:1005E00004F80EFB191192B242EA0142424529D2A7
:1005F000BA1809F1FF31C4D24245C2D2A9F10201B1
:100600003A44BEE7F0459DD2BEEB02036CEB070C0B
:100610000138E14696E7A7EB09094944A8F1020C25
:10062000B1FBFEF909FB04F8DBE773467FE75046B0
:1006300066E70846FDE63B44023A33E7ACF1020CBC
:100640003B441CE749469CE7A1EB0901C446B1FBCA
:10065000FEF909FB04F8C4E7704700BFDFF834D0A7
:10066000002103E00C4B5B58435004310B480C4B0A
:1006700042189A42F6D30B4A02E0002342F8043BA8
:10068000094B9A42F9D305F03DF823F021FF01F020
:100690005FF8704700000320742D0408000000205C
:1006A000640100208003002080430120FEE77047A2
:1006B00008B500F0BDFDBDE8084000F041BD00F008
:1006C000B9BD704710B50421044622F014FD204640
:1006D00010BD000038B50C4B0C4C18800C4B822020
:1006E00019806368984740F6110398420AD1094D72
:1006F00023682C60822098472B688220DB6898470B
:10070000002038BD0120FCE7A60300204C0000209B
:10071000A4030020A80300204FF4A071F020FFF7ED
:10072000D9BF0000F7B5394D2B6804461B698220FC
:100730009847208000284ED02B680DF106025B6997
:1007400001A982209847324B1B78002B4BD0BDF873
:10075000062040F674639A423FD9ADF80630BDF8E2
:1007600006209B1A9BB20A2B42D90B22B3FBF2F351
:10077000284A1288934201D9013A93B2BDF8042065
:10078000254840F6B8318A4234D8C2F571620E323B
:10079000016892B20F25B2FBF5F2204D2D88AA42D6
:1007A00084BF05F1FF35AAB28A4215468EB22AD916
:1007B000921B91B21A4E3768BB42BAB28CBF9A1ADA
:1007C000D21A92B211440529C4BF05603360036890
:1007D00063803368A38003B0F0BDB32A9CBFB4220A
:1007E000ADF80620BBE7BDF80630A3F5B473B9E752
:1007F0000023C3E7C2F56D62083292B20E2A016887
:10080000C8D800252A46891A89B2D3E7A803002050
:100810000C250020A4030020A0030020A603002034
:100820009C03002037B568460D461446FFF77AFF53
:10083000BDF8000030B1BDF802302B60BDF80430C7
:100840002360012003B030BD032821D8DFE800F089
:10085000020B12190F4B1A68B2FA82F252090421E4
:100860000D4805F0C1BD0B4B5A68B2FA82F252092D
:100870000821F5E7074B9A68B2FA82F25209102173
:10088000EEE7044BDA68B2FA82F252092021E7E778
:10089000704700BFAC03002000100240032821D89D
:1008A000DFE800F0020B12190F4B1A68003A18BF6C
:1008B000012204210D4805F097BD0B4B5A68003A00
:1008C00018BF01220821F5E7074B9A68003A18BFC4
:1008D00001221021EEE7044BDA68003A18BF01222A
:1008E0002021E7E7704700BFAC0300200010024062
:1008F00003280DD8DFE800F00206080A04210548A5
:1009000005F077BD0821FAE71021F8E72021F6E786
:10091000704700BF0010024008B5032811D8DFE877
:1009200000F0020A0C0E0421074805F057FD431E93
:100930005842584108BD0821F6E71021F4E720216C
:10094000F2E70020F3E700BF0010024070B5084D49
:1009500000240126E0B2FFF7DFFF18B12B68012B5E
:1009600018BF2E600134052C05F10405F2D170BDCD
:10097000AC030020012380F8781080F879307047AC
:100980007047002070470000034B4164003918BFD6
:1009900001211970704700BF3F36012070470020C9
:1009A0007047836B0BB10846184770474FF6FF70CE
:1009B0007047406803689B691847704770477047E5
:1009C0007047704710B5044600F04AFD236803499C
:1009D000D3F890302046BDE810401847000000D002
:1009E00008B503680446D3F8843098472368204646
:1009F000DB6F984700F0ECF8236820465B6F984760
:100A0000292001F08BF900F0E3F8236820465B6FA2
:100A10009847F8E710B504460AF088FE2368204698
:100A2000D3F8BC30BDE81040184700F0FDBC00F022
:100A300001BD00F033BD00F0D3BC00F043BD00F0B9
:100A40004BBD00F0D7BC0AF09FB810B58421044616
:100A500022F051FB204610BD10B590F8341090F8EC
:100A600078400C4B8C421A7809D03AB90A4A0B49A3
:100A70001488088810800C8001221A7010BD002A8A
:100A8000FCD0054A05491488088810800C80002293
:100A9000F3E700BF38360120343601203636012016
:100AA00070B50D46194635B9094B0A4A0A4840F255
:100AB000FF2123F05DFAC0E90F52084B003A18BF3E
:100AC00001221A700368BDE87040D3F890301847CF
:100AD0003C50020874500208C25002083E36012001
:100AE00008B5094B1B888B4203D8084B1B889342DF
:100AF00005D9074B074A0848A32123F039FA074BC9
:100B00001980074B1A8008BD343601203636012083
:100B1000075102086A510208C25002083A36012001
:100B20003C360120034690F87A0018B158680368F3
:100B30001B68184770470000012108B500220846CD
:100B400007F0EEFC0A4B186028B90A4B0A4A282124
:100B50000A4823F00DFA00220421012007F088FD45
:100B6000074B186018B9074B034A2C21F0E708BD62
:100B7000C0030020AD510208F651020825520208B8
:100B8000BC0300206F520208024B4FF0FF3118687F
:100B900007F010BDC0030020014B186807F036BDF8
:100BA000C0030020024B0021186807F003BD00BFFE
:100BB000C0030020FFF7F0BF03480449006800238A
:100BC0001A4607F090BD00BFBC03002004000020BF
:100BD00013B5084C00231A4601A9206807F0B4FD9C
:100BE00020684FF0FF33002201A907F0ADFD02B0ED
:100BF00010BD00BFBC03002003685B6C18470120D8
:100C0000704703689B6A1847FEE740F2EF30704771
:100C1000054B0360054B4FF08062C3F88820BFF39B
:100C20004F8FBFF36F8F7047805D020800E100E0D7
:100C300010B504464FF45A61FFF7EAFF204622F050
:100C40005AFA204610BD000082B0002301930E4BDB
:100C50001A6B42F400021A631A6B02F4000201924A
:100C6000019A1A6942F400021A611A6922F4000218
:100C70001A61064B064A1A61064A5A61064B4FF042
:100C800080629A6002B0704700380240B0260020AF
:100C9000E90E0008090C000800E100E008B50A2888
:100CA00009D8DFE800F006100E0808080810101038
:100CB0001000022008BD054B054A0648902123F08C
:100CC00057F90020F6E70120F4E700BFB15202080F
:100CD000CC5202081753020838B50C46887FFFF73C
:100CE000DDFFA58AE28A164B2169586342EA054274
:100CF0005A64628BD963521B1A642568082D0ED181
:100D00009A611A615862207F0E4A42EA0062DA61F3
:100D1000E2681A620C4A5961D9601A6038BD002233
:100D2000D8611A61E1680A0A480902F4784200F4BD
:100D3000FC600243C1F3C4010A439A63034AECE72F
:100D400000B002400900010001230200012303005A
:100D500008B50B280BD8DFE800F00612100A0A0AC3
:100D60000A0808080808022008BD0520FCE7054B12
:100D7000054A06486F2123F0FBF80020F4E7012024
:100D8000F2E700BFB15202085F530208175302088E
:100D90002DE9F04191F81D800C464046FFF7D8FF41
:100DA000A77F05463846FFF7D3FF06463846FFF7CC
:100DB00075FFA18A628B444B521A1A649A61228B86
:100DC000521A1A61E28A586342EA01425A6421695E
:100DD0006268D963DA602068802828D0227F0FD823
:100DE000202867D0402865D004281AD0364B45EA21
:100DF000026545F40035B845DD6161D0334A44E011
:100E0000B0F5807F04D0B0F5007FEFD1304800E02E
:100E1000304840EA0262DA61E2681A625E62596151
:100E200032E045EA026242F40032DA61F6E7A06895
:100E3000021DDA62227F45EA026545F40035DD6174
:100E40005E625961017841B1012921D0224B234AC8
:100E500023484FF48D7123F08BF8DA69418822F42E
:100E60007F42013922F0100242EA0122DA610121B7
:100E7000154BDA6942F02002DA61DA699206FCD495
:100E800010229A600029B9D0164A1A60BDE8F08194
:100E9000B2F1FF01DA69408822F47F4200F1FF30AD
:100EA00022F0100242EA002242F0100218BF012193
:100EB000DA61DDE745EA0262034B42F40032B4E74F
:100EC00042F20132E1E700BF00B00240012301001D
:100ED000090002000A000200A9530208C3530208D5
:100EE0001753020801230200024B1B68586803686D
:100EF0005B6918474036012070B5044625460A4B09
:100F00000C30002660602672667245F8203B602235
:100F100029460AF061FD04F55A63EE6024359D42CE
:100F2000FBD1204670BD00BF805D0208034B1A68EC
:100F3000D207FCD423229A60704700BF00B0024061
:100F40007047000030B50F4C2568ED07FCD4232511
:100F50000904A56041F001010225FF2B656361646E
:100F6000E0630AD00849656241EA0363E361074B25
:100F700022626061E060236030BDE561039BA36392
:100F8000034BF8E700B00240090001000100020035
:100F90000100030030B50E4C2568ED07FCD4232575
:100FA0001204A56042F001020225FF2B6563626412
:100FB000E063E16008D01B0643F00213E361054BD8
:100FC00065626061236030BD034BE3610123F9E793
:100FD00000B0024001000200020002FF30B50B4CDD
:100FE0002568ED07FCD4232512041B06A56043F4F5
:100FF0000033022542F0010265636264E063E16050
:10100000E361034B65626061236030BD00B0024064
:1010100001000200012070470C2070470C2303FBE5
:101020000100083070470C2303FB010008307047B3
:101030000120704740F6F870704740F6F87303FBE4
:1010400001000830704740F6F87303FB01000830D8
:101050007047012070471020704700EB01100830E6
:10106000704700EB011008307047084601F0C4BC1F
:1010700010B5034B0360044609F0DDFA204610BDAD
:10108000385E020810B50446FFF7F2FF204614212F
:1010900022F031F8204610BD10B5034B0360044622
:1010A00009F0C9FA204610BD045E020810B50446D6
:1010B000FFF7F2FF20464FF4805122F01CF8204643
:1010C00010BD000010B5034B0360044609F0B3FAED
:1010D000204610BDD05D020810B50446FFF7F2FFB0
:1010E0002046182122F007F8204610BD10B5094B04
:1010F0000360044600F581500C30FFF7B9FF04F19E
:101100002C00FFF7C9FF04F11400FFF7DBFF2046B6
:1011100010BD00BF6C5E020808B50248FFF7E6FF8D
:1011200008BD00BF9C12002010B50446FFF7DEFF8B
:1011300020464FF48D5121F0DEFF204610BD000007
:101140002DE9F34101F028FA054601F029FA0024BF
:101150000146234628462246009412F039FF274BC9
:10116000274A1A60204603F04DFB264D264B274A9E
:1011700027489A6012F094FE2B68BFF35B8FDB0761
:1011800036D4284621F0B9FF90B3224C224B23607D
:1011900004F12C0808F5805707F1180604F1140033
:1011A0006060C4F80880E760266109F045FA1B4BCF
:1011B0006361404609F040FA194BE362384609F092
:1011C0003BFA04F58053174ADA6204F5825003F0C3
:1011D000A1FB224604F58251304603F091FB3046D4
:1011E00001F00AFC104822F0E1FE284621F091FFB0
:1011F0000E4802B0BDE8F041FFF7E4BBA436012081
:101200004804002098120020680400204C040020AC
:10121000080000209C1200206C5E0208D05D0208CD
:10122000045E0208385E020819110008C403002099
:10123000704700000148FFF7D3BB00BFC403002084
:1012400070B5264E264C274D274B23603046FFF7BE
:1012500053FE284617F0C2FF244810F0C9FB244B68
:101260002448DC6000224FF48071C3E91212224945
:101270001A86C3E91A12214983F85820C3E91E01CE
:101280001F49C3F880101F491F480B60F021C3E9B4
:101290000422C3E90622C3E90822C3E90A22C3E9FA
:1012A0000E22C3E91022C3E91422C3E917225A66A9
:1012B00083F870205A67C3E90165018013480180F3
:1012C00013484FF4A07101801248018012490A703E
:1012D000012283F83420114A1A6070BDF404002002
:1012E00094120020680400202C5002084C040020B6
:1012F000C4030020000001010100000100045000AF
:101300001A00140040360120343601203A360120FC
:10131000363601203C36012038360120945C020824
:101320000148FFF775BC00BFF4040020002070479F
:1013300081807047C180704701817047418170474B
:101340007047704770477047704710B4C48803688F
:10135000121B84885B6D091B12B25DF8044B09B245
:1013600018474FF6FF7383814FF0FF330362136812
:10137000C36110607047002070478B888380012014
:101380007047704780F82610704790F82600704725
:1013900010B50022B1F90840B1F90A10028042806C
:1013A0008480C18010BD0022028042808280C28081
:1013B00070470177704780ED080A704780F8241065
:1013C000704780F8251070470120704798307047AB
:1013D0008C3070478430704770477047704700000A
:1013E000034B902283F85A2383F85823704700BF99
:1013F00000E100E0094A0A49D3680A48C3F30A0336
:10140000013B9BB20B801169C1F30A0101390180D4
:101410001364536B43F0010353637047006801404A
:101420003E2400203C240020014BD3F8AC00704740
:1014300000680140024B0122C3F8AC105A627047A9
:101440000068014010B52C21044621F054FE2046CE
:1014500010BD10B5BC21044621F04DFE204610BD44
:1014600070B5044609F0E5FB23689D6E0FF058F84F
:1014700001462046A8472368054AD3F88C502046E9
:10148000AC460023BDE87040A2F51631604700BFAE
:1014900000B004D009F0B4BB09F0BEBB09F07ABBC0
:1014A00009F0E9BC90F8252012B103685B69184780
:1014B000704790F825201AB190F8242002B11860E6
:1014C00070470000034B4FF080629A604FF08072CB
:1014D0009A60704700E100E0084B4FF08062C3F86B
:1014E0008820BFF34F8FBFF36F8F4FF08072C3F828
:1014F0008820BFF34F8FBFF36F8F704700E100E08C
:1015000070B50023124E8380124B0360336893F84A
:10151000582005460AB1D86C00B998680368DB6AA0
:1015200098473368B0FA80F4D86C640930B1036826
:10153000DB6A9847002808BF44F001042CB9064B29
:10154000064A07482C2122F013FD284670BD00BF33
:1015500040360120805E0208015402085F540208F0
:101560009854020870B5254E3568BFF35B8F15F0AF
:10157000010540D1304621F0C0FD00283BD0204C71
:10158000204B256104F13400C4E90035C4E902555B
:10159000E584A562A58510F010FD04F158000BF05C
:1015A000CFFE194BA3652046184B40F8843BFFF74C
:1015B000A7FF174BC4F884302433C4F88C304FF4A1
:1015C000C803C4E928350023C4F8AC30C4F8B030EF
:1015D000C4F8B430C4F8B8300E480F4BC4F890507B
:1015E000C4F89C50C4F8A850C4F8983022F0DEFC2F
:1015F000304621F08EFD024870BD00BF402400201F
:1016000044240020346C0208A05E0208185F02081F
:10161000E86B0208DD130008C86B020838B5184CE7
:1016200023685BB3174B184A1B6C11888B4216D189
:10163000164B198805F0C2FC236893F86A20002530
:10164000013283F86A2083F87C50FFF7B5FA2068EE
:101650000AF06CF82846BDE83840FFF7F5B805F009
:10166000ADFC2468236820461B6A9847012384F850
:101670007C300020BDE83840FFF710B938BD00BF0E
:1016800040360120006801403E2400203C24002018
:1016900007B5064BADF806001B68054801220DF1A1
:1016A000060106F077FA03B05DF804FB0C00002099
:1016B0004C25002030B595B0102200210AA822F058
:1016C0005EFE1422002103A822F059FE00241E4BC6
:1016D00001941A6C42F080521A641B6C03F0805320
:1016E0000193019B194B02941A6842F440421A601C
:1016F0001B6803F4404302930122029B4FF48033A2
:10170000CDE9082302254FF480030821CDE90E53CB
:101710004FF4B473CDE9101308A804231393129562
:1017200005F0A4FC05F068FC0F23CDE903354FF468
:10173000A0504FF48053CDE90603052103A805947A
:1017400005F070FE15B030BD00380240007000405A
:101750002DE980489BB003F0E3FFFFF7ABFF1422B5
:1017600000210DA822F00BFE0024C94B00941A6B37
:10177000C848C94D42F010021A631A6B02F01002F9
:101780000092009A01941A6B42F020021A631A6BBD
:1017900002F020020192019A02941A6B42F0800238
:1017A0001A631A6B02F080020292029A03941A6B77
:1017B00042F004021A631A6B02F004020392039AC5
:1017C00004941A6B42F001021A631A6B02F00102D0
:1017D0000492049A05941A6B42F002021A631A6B7F
:1017E00002F002020592059A06941A6B42F040023A
:1017F0001A631A6B02F040020692069A07941A6B5B
:1018000042F008021A631B6B03F008032246079399
:101810003C21079B04F0E8FDA0480122022104F0CE
:10182000E3FD22469D48042104F0DEFD22469C484B
:10183000802104F0D9FD22469A484FF4405104F02B
:10184000D3FD01263C23CDE90D3692480F940323A6
:101850000DA90227109304F0DDFC90480DA9CDE9F5
:101860000D76CDE90F4404F0D5FC04238B480DA977
:10187000CDE90D36CDE90F4704F0CCFC8023884834
:101880000DA9CDE90D36CDE90F4404F0C3FC0DA937
:101890004FF440538348CDE90D36CDE90F4704F0AE
:1018A000B9FC8148814B036004F0E2F98048814B28
:1018B0002C62C5E900034FF480432846C5E904348F
:1018C000C5E90244C5E9064404F09CFF10212846FE
:1018D00005F0E0F92146284605F0FBF9764DDFF8E2
:1018E000F4C1AC624FF48273C5E900C34FF4007ECB
:1018F0001823C5E906E328460A23C5E90244C5E9D9
:101900000444C5E90844EB6206F0E8F88F23224658
:10191000394662488DF824308DF8344004F064FD77
:1019200032464FF47A7309A9284606F033F94FF48A
:101930007A7332460DA9284606F0D8FA324639465F
:1019400056485E4D04F050FD9DF83430D32B04BF53
:101950005B4B1E705B4B01261027C5E90036402308
:101960000024C5E904734FF4C073C5E906344FF48D
:101970000063C5E908344FF400534FF002084FF0FC
:10198000040A4FF0030BAB620DA907232846CDE9EB
:101990000FA3CDE90D834FF00809C5E9024ACDE94F
:1019A00011B8CDF84C8005F07DFF4FF6FF7209A904
:1019B0002846CDE90A96089409960C9405F092FF02
:1019C000304603F0D9FE4FF6FF7209A92846CDE94B
:1019D0000989CDE90B6405F085FF4FF6FF7209A96F
:1019E0002846CDE909B9CDE90BA405F07BFF4FF4FA
:1019F0000C730893089B0C934FF6FF7209A92846B5
:101A0000CDE909A90B9605F06DFF40F26A51284611
:101A100005F086FF342221460DEB020022F0AFFCD8
:101A2000294D2A4B2C61C5E900340923C5E9053647
:101A30001D23C5E9073B40F20D1240F24313C5E9EF
:101A4000092340F2171140F247132846C5E90B134A
:101A5000C5E90244AC8685F8364005F0CDF9FF2192
:101A6000F022CDE912144FF005094FF480614FF4D4
:101A7000A073CDE90E24CDE91419CDE916420DA9C4
:101A800022462846CDE91038114D18930D9423E0D5
:101A900000380240001002405C260020000802408E
:101AA00000000240000C0240F026002000300240FE
:101AB000005C0040A08601004C2500201825002075
:101AC0000C250020400100A0B42500200068014042
:101AD0000025002000500140ADF864408DF86640BC
:101AE00005F03EFA3F4B2B601B68DFF83CA198479E
:101AF0002B683D4DDB6898473C4B2846C5E90034D0
:101B0000C5E90284C5E90A48C5E90C4404F0C0F8F7
:101B10003146284604F072F9354D3A4621460DA863
:101B200022F02DFC334BAC604FF4803B2846C5E9D6
:101B3000003B2C612C7685F82040EC62C5F828A08B
:101B4000EC60EE6185F830406E6103F029FE0D23F4
:101B50000DA92846CDE90D36274D0F9403F09AFFC5
:101B60003A4621460DA822F00AFC244BAC602846D8
:101B7000C5E9003BC5E90AA42C612C7685F8204014
:101B8000EC60EE6185F830406E6103F009FE0DA94E
:101B90002846CDE90D960F9403F07CFF1848194BA9
:101BA000036005F033FEFEF783FDFEF780FD06F0CF
:101BB0003BFC154A4146384606F05AFD134B144A81
:101BC00018602146134806F05BFC134B134A18605B
:101BD0002146134806F054FC124B186006F036FC00
:101BE000FEE700BF14000020B026002000B0024035
:101BF0004027002000200140F8260020002101405D
:101C0000A4250020000806505C5F0208042500207F
:101C1000985F02080D1E000814250020745F02085A
:101C2000BF060008102500200100000F7047704714
:101C30007FB5094B8DF817201B6802930DF1170231
:101C40000123009201930A460146044804F082FEF3
:101C500007B05DF804FB00BF100000205C260020E8
:101C60007FB500238DF81730084B1B6802930A4696
:101C700001230DF11701009101930146044804F07E
:101C8000F9FE9DF8170007B05DF804FB1000002076
:101C90005C2600201FB5084C24680092CDE9013471
:101CA0000A4601230146054804F0E4FE003818BF47
:101CB000012004B010BD00BF100000205C260020F1
:101CC00003F05ABD10B5064C00222046042104F052
:101CD0008BFB20460122BDE81040042104F084BBA8
:101CE0000008024038B50B4D044601220A484FF463
:101CF000005104F079FB00220421284604F074FB13
:101D00002046FFF7C5FC28460122BDE838400421E3
:101D100004F06ABB00080240000C024038B50B4DCD
:101D2000044600220A484FF4005104F05DFB0022F3
:101D30000421284604F058FB2046FFF7A9FC28465A
:101D40000122BDE83840042104F04EBB00080240E7
:101D5000000C0240F7B5144E144F05460C463046B1
:101D60000022042104F040FB00224FF400513846C9
:101D700004F03AFB2846FFF78BFC0D4B0D481B681F
:101D8000224601A906F0B2F8384601224FF400516C
:101D9000019C04F029FB30460122042104F024FBBD
:101DA000204603B0F0BD00BF00080240000C024016
:101DB0000C0000204C25002003F0DEBCA0F2A56240
:101DC00010B592B240F25624A1F2A563A2429BB292
:101DD00006D9B0F57A7F11D340F6B83290420FD8C9
:101DE00040F2562293420DD9B1F57A7F0CD340F6DA
:101DF000B83399428CBF4120002010BD5720FCE72A
:101E00005320FAE70020F8E74420F6E7F7B5194D2C
:101E1000194E0027284603F069FD304603F066FDA1
:101E20000A21284603F0E0FD0A21304603F0DCFDDC
:101E3000284603F02CFE0446304603F028FE81B20B
:101E4000A0B2FFF7BBFF04468DF8070060B1B842AF
:101E50000BD00A4800231A4600680DF1070106F06E
:101E600042FC9DF8073003B90024642006F04CFBC7
:101E70002746CFE740270020F82600200425002031
:101E80000268034B9A4201D103F064BC704700BF63
:101E9000001000407047000082B00E4B00220092FC
:101EA000596C41F480415964596C01F480410091AE
:101EB00000990192196C41F0805119641B6C03F078
:101EC00080530193019B0F216FF0010002B003F0DA
:101ED0008FBE00BF0038024010B514228AB00446FD
:101EE00000210DEB020022F04AFA2368214A9342B6
:101EF0001FD1214B2148002101915A6C42F480727C
:101F00005A645A6C02F480720192019A02911A6B1F
:101F100042F004021A631B6B03F0040302930821CE
:101F2000029B0323CDE9051305A904F073F90AB058
:101F300010BD134A9342FAD10F4B1248002103916E
:101F40005A6C42F400725A645A6C02F400720392A2
:101F5000039A04911A6B42F001021A631B6B03F09F
:101F600001030493049B20220323CDE9052305A943
:101F7000DBE700BF002001400038024000080240BB
:101F800000210140000002400268094B9A4282B0E1
:101F90000BD100230193074B1A6B42F480521A6352
:101FA0001B6B03F480530193019B02B0704700BF89
:101FB000003002400038024007B50F4B02689A42D9
:101FC00016D10022A3F5F0430192196B41F40001F0
:101FD00019631B6B03F40003019305215A20019B35
:101FE00003F006FE5A2003B05DF804EB03F032BEA6
:101FF00003B05DF804FB00BF00B002402DE9F043E0
:10200000044689B01422002103A822F0B8F92268FE
:10201000244B9A4243D1244C244800250095236B3D
:1020200043F004032363236B03F004030093009B3A
:102030000195236B43F001032363236B03F001033A
:102040000193019B4FF012094FF400734FF0010808
:102050000327042603A9CDE90339CDE905870796AF
:1020600004F0D8F84FF480731148079603A9CDE91E
:102070000339CDE9058704F0CDF80295236C43F4CC
:1020800000032364236C03F400030293029B236A7E
:1020900043F400032362236A23F40003236209B09C
:1020A000BDE8F083005C00400038024000080240B8
:1020B00000000240F0B599B004461422002107A8A0
:1020C00022F05DF930220DEB0200002122F057F9D9
:1020D00022685E4B9A4240F0B78008230C93C023DD
:1020E0001093042312930CA84FF40033159305F0BA
:1020F00061FA08B1FFF7CEFE554B56480024009414
:102100005A6C42F080625A645A6C02F0806200920B
:10211000009A01941A6B42F020021A631A6B02F0C3
:1021200020020192019A02941A6B42F001021A6392
:102130001A6B02F001020292029A03941A6B42F0A7
:1021400002021A631A6B02F002020392039A0494C9
:102150001A6B42F040021A631A6B02F040020492BA
:10216000049A05941A6B42F004021A631A6B02F087
:1021700004020592059A06941A6B42F008021A634B
:102180001B6B03F00803069302250E26069B0B9695
:102190004FF4806307A9CDE90735CDE9094504F07F
:1021A00039F841F658032C480B9607A9CDE90735B5
:1021B0000927CDE9094504F02DF8032327480B979B
:1021C00007A9CDE90735CDE9094504F023F84FF417
:1021D000706322480B9607A9CDE90735CDE909457B
:1021E00004F018F84FF40C631D480B9607A9CDE9CD
:1021F0000735CDE9094504F00DF8C02319480B96C1
:1022000007A9CDE90735CDE9094504F003F808230E
:1022100015480B9607A9CDE90735CDE9094503F027
:10222000F9FF4FF4A0530E480B9707A9CDE90735E6
:10223000CDE9094503F0EEFF58202246052103F0C1
:10224000D7FC582003F006FD19B0F0BD006801402E
:102250000038024000140240000002400004024026
:102260000018024000080240000C02400268094BBE
:102270009A4282B00BD100230193074B5A6B42F074
:1022800040025A635B6B03F040030193019B02B071
:10229000704700BF000806500038024010B50446E1
:1022A00088B01422002103A822F069F82268144B98
:1022B0009A4223D103F56843002101915A6C1148D9
:1022C00042F480125A645A6C02F480120192019A0C
:1022D00002911A6B42F020021A631B6B03F0200379
:1022E0000293029B4FF4607202230321CDE9032382
:1022F0000523CDE9061303A903F08CFF08B010BD38
:1023000000500140001402402DE9F04186B0002346
:1023100003932B4B1C68002C4FD14FF00108C3F8DE
:102320000080284B00949A6B274842EA08029A637F
:102330009B6B03EA08030093022703260C25009BEE
:1023400001A94FF63F03CDE90137CDE9046503F05C
:1023500061FF1E48059501A9CDE90187CDE9034636
:1023600003F058FF48F233131948059501A9CDE948
:102370000137CDE9034603F04DFF4FF6837315484F
:10238000059501A9CDE90137CDE9034603F042FFE8
:102390004CF203731048059501A9CDE90137CDE949
:1023A000034603F037FF60230C48059501A9CDE9EA
:1023B0000137CDE9034603F02DFF06B0BDE8F081FB
:1023C0008827002000380240001402400008024024
:1023D0000018024000100240000C024000040240BD
:1023E00070B588B000230293204B1A6C42F01002A3
:1023F0001A641B6C03F010030293054601A903A89D
:10240000029B05F0B9F8069B4BBB05F0A5F8184EEA
:10241000184B336040F2E733F360174BB0FBF3F334
:10242000013B7360304600233361B360B36105F054
:1024300027FF044680B9304605F0FCFD044658B934
:10244000362003F007FC0F2D0DD8224629463620F2
:1024500003F0CEFB094B1D60204608B070BD05F0AF
:102460007BF84000D3E70124F6E700BF00380240C4
:102470008C2700200010004040420F007C0000200C
:102480007047FEE7FEE7FEE7FEE77047014805F00C
:102490000FBE00BF8C270020014804F004BD00BF20
:1024A000B4250020014803F01FBC00BFB026002067
:1024B0000120704708B522F005F8162303604FF09D
:1024C000FF3008BD08B521F0FDFF16230360FEE7CD
:1024D00070B50D4614460E46731B9C4201DC204627
:1024E00070BDAFF3008006F8010BF5E770B50D463F
:1024F00014460E46731B9C4201DC204670BD16F844
:10250000010BAFF30080F5E74FF0FF3070474FF459
:1025100000534B6000207047012070470020704737
:102520000A4A116808B5034609B9094911601068DB
:10253000694603448B4206D921F0C4FF0C23036093
:102540004FF0FF3008BD1360FCE700BFD427002028
:1025500080430120704708B5042914D8DFE801F052
:1025600003070B0B0F0002F099F9006808BD02F099
:1025700095F94068FAE702F091F98068F6E702F011
:102580008DF9C068F2E70020F0E710B50421044699
:1025900020F0B1FD204610BD00487047D05F020812
:1025A0000420704713B5002451B1036801948DF8DD
:1025B000034001AA9C680DF10303A04702B010BDBF
:1025C0000846FBE7C0897047008A7047C08870479B
:1025D00080887047807A00F07F007047807AC00959
:1025E00070470020704700009FED010A704700BF50
:1025F00000000000704710B50821044620F07BFD64
:10260000204610BD7047704700F598730868496808
:1026100003C3704770477047416070477047704709
:10262000064BC0F84C310023C0F8503100F5A273BE
:10263000C0F84801C0F84031704700BF2D2800089D
:10264000012303727047704710B4C2684168541088
:10265000034601EB6200D20748BF0A599B685DF848
:10266000044B48BFD35818470346406830B19A68B6
:102670001AB9D86800F0010070470120704710B502
:102680000C21044620F037FD204610BD10B5102166
:10269000044620F030FD204610BD10B54FF4AE7159
:1026A000044620F028FD204610BD10B50DF038FF7F
:1026B0000368BDE81040DB6B184710B50446D0F83E
:1026C000400158B10368DB68984738B1D4F840013D
:1026D00003689B6898470023C4F8403110BD000090
:1026E0002DE9F14FD0E9556A0746B06803681B6AC7
:1026F000984740F6F773984205D8444B444AA321C3
:10270000444821F035FC706803681B6A98470F281D
:1027100003D8414B3E4AA421F2E7F06803681B6AE4
:1027200098470B2803D83D4B394AA521E8E70DF01F
:10273000F7FEDFF8F09004300DF017FFD9F8000035
:1027400010B10368DB689847D9F8000010B103683E
:102750001B689847DFF8D080D8F8000010B10368F4
:102760005B699847D7F83C0110B103685B689847EC
:10277000D8F8000010B103681B689847D7F83C01EF
:1027800010B103689B689847F068036800215B6A92
:1027900098474FF0000B224BC0F804B0044680F875
:1027A00008B00360B068036859465B6A98470546FD
:1027B00002F022F97068036859465B6A9847294617
:1027C000064602F0F5F8331DC7F83C61C9F8004031
:1027D000C8F80050CAF800302B68C6F808A0284690
:1027E000DB68EE639847336830461B68984721469C
:1027F000284610F045F8236820461B69984723684F
:102800005B69204601B0BDE8F04F18471A55020831
:10281000A85502087A560208C156020864570208F1
:10282000A460020888360120843601202DE9F14F8A
:10283000D0E9556A0746B06803681B6A9847B0F547
:10284000CE7F05D2444B454AA321454821F090FB59
:10285000706803681B6A98470F2803D8414B3F4AAA
:10286000A421F2E7F06803681B6A98470B2803D895
:102870003D4B3A4AA521E8E70DF052FEDFF8F09013
:1028800004300DF072FED9F8000010B10368DB6867
:102890009847D9F8000010B103681B689847DFF823
:1028A000D480D8F8000010B103685B699847D7F866
:1028B0003C0110B103685B689847D8F8000010B17C
:1028C00003681B689847D7F83C0110B103689B6800
:1028D0009847F068036800215B6A98474FF0000B47
:1028E000224BC0F804B0044680F808B00360B0681A
:1028F000036859465B6A9847054602F03FF87068DE
:10290000036859465B6A98472946064602F014F860
:10291000331DC7F83C61C9F80040C8F80050CAF838
:1029200000302B68C6F808A02846DB68EE6398479D
:10293000336830461B689847214628460FF0A0FFB1
:10294000236820461B69984723685B69204601B0CD
:10295000BDE8F04F184700BF1A5502080758020893
:102960007A560208C156020864570208A460020899
:102970008836012084360120044B1B6893F85820C8
:102980000AB1D86C00B99868704700BF4036012082
:10299000F8B5174604460E460DF084FE124B1C6037
:1029A000124B2360124B0025C4E95135114BC4E989
:1029B00053551868036801219B68C4E94F55C4E961
:1029C00055769847284601F01DFFFFF7D5FF18F010
:1029D000AEFAFFF7D1FF18F025FBFFF7CDFF18F097
:1029E0002DFB2046F8BD00BF943601205060020840
:1029F0003860020840360120064BC0F84C310023F5
:102A0000C0F8503100F5A273C0F84801C0F8403159
:102A1000704700BF2D280008064BC0F84C3100233A
:102A2000C0F8503100F5A273C0F84801C0F8403139
:102A3000704700BFE1260008406A7047806A70470F
:102A400070478A880B8810B5D20A4C88C1699BB23E
:102A500051F8220043EA0443184410BD10B504465F
:102A6000BAB1107B68B1537BD27A1B0203F4E063E6
:102A70001A43236A03EB82031A888A4202D193F92C
:102A8000020010BD05D8013880B204330028F3D10C
:102A9000F7E70020F5E710B52C21044620F02BFBCA
:102AA000204610BD30B58BB00446BDF86050089587
:102AB000BDF85C5007959DF8505006959DF84C5018
:102AC00005959DF8485004959DF8445003959DF850
:102AD000405002959DF83C500195BDF83850009546
:102AE0000FF028FB064B2360159BE361169B2362C6
:102AF000199B63621A9BA36220460BB030BD00BFD6
:102B0000C8600208806A7047704770477047704716
:102B100070477047704770477047704790F82C3087
:102B20004BB100F16C021268C2653BB100F1740355
:102B30001B680366704700F16802F4E700F1700358
:102B4000F6E708B590F82C303BB100F1C4031B68E0
:102B5000C0F8A830FFF7E2FF08BD00F1C003F6E7B8
:102B600030B4C26844685510034604EB6200D207D3
:102B700048BF62599B6830BC48BFD35818470346CA
:102B8000406830B19A681AB9D86800F001007047FF
:102B90000120704790F82D3080F8AE3080F85A3020
:102BA000704790F82D3080F85A30704710B5782172
:102BB000044620F0A0FA204610BD10B5C8210446F6
:102BC00020F099FA204610BD10B51021044620F0DF
:102BD00092FA204610BD10B54FF4CE71044620F095
:102BE0008AFA204610BD10B50446006B50B1036848
:102BF000DB68984730B1206B036821469B68BDE8CD
:102C00001040184710BD70B50D7990F82C3004466F
:102C10003DB93BB123682046D3F88830BDE8704009
:102C200018477BB1B5FA85F35B0984F82C3023682B
:102C30002046D3F88C309847236820465B69984734
:102C4000002DE7D070BDC430884208B505D10DF025
:102C500067FCBDE80840FFF7DFBE08BD70B503683C
:102C600004461B6B154698472368294620465B6B34
:102C7000BDE87040184770B5036804469B6B154665
:102C80009847236829462046DB6BBDE8704018470B
:102C900038B504461D46FFF7E1FFBDF9102029466F
:102CA0002046FFF7E8FF38BD0022C0E90122C0E955
:102CB0000322C0E90522C0E907224FF48072828412
:102CC000014A0260704700BF3061020810B5262239
:102CD0000446002121F053FB2046FFF7E5FF044B9B
:102CE0002360FF2384F826300023A362204610BD12
:102CF000886D02084FF47F4370B50646838540F225
:102D0000011300258384274B8562C0E90155C0E982
:102D10000355C0E90555C0E90755056346F8343B3E
:102D200004463046FFF7D2FF1F4B63632A4629460D
:102D30003046C4E91A55C4E91C552566A4F8645008
:102D4000FFF78CFF31462046264607F087FC174BDD
:102D500046F8783B26222946304621F010FB3046C3
:102D6000FFF7A2FF124BA367124BC4F8A0304FF637
:102D7000FF73A4F8A4304FF47F03C4F8AC304FF0D5
:102D8000FF332046C4E92E35C4E93055C4F8A850B5
:102D9000A4F8B050C4F8B450314607F05FFC2046A8
:102DA00070BD00BF98610208F06D0208346202082D
:102DB000F86C0208286002082DE9F04F044685B03F
:102DC000A04600250FF0B0FB564BE56348F8403BAA
:102DD00004F16C0A404604F19806FFF777FF50466D
:102DE000FFF774FF4FF6FF77262229463046ADF8ED
:102DF000087021F0C4FA3046FFF756FF4A4BC4F87A
:102E00009830BDF80830A4F8BE3002A984F8C0702C
:102E1000304604F1C4070AF087FF3846FFF76AFF1F
:102E2000424BC4E96334424B4FF4A07BC4E965359F
:102E30002A4629464046CDF800B0F023FFF728FF88
:102E400004F104094FF07F43A3664146484607F06A
:102E500005FC2A4629465046CDF800B0F023FFF77E
:102E600017FF344BC4F894305146484607F0F6FB40
:102E7000202229463046FFF7F1FE02A93046ADF880
:102E800008500AF051FF314648463C2607F0E6FB61
:102E90002A46294604F1F8000096C823FFF7F8FEF9
:102EA0000323A4F82831244BC4E94B33234BC4E952
:102EB0004D33D4F8C4303846D3F88C30984704F5F5
:102EC0009E781F4B029302A928234046ADF80C3090
:102ED0000AF0CEFDB4F9CE20B4F9CC104046FFF78D
:102EE000CAFE29460A2240460096C823FFF7D0FEB4
:102EF0004FF0FF33C4E961333846FFF722FE04F593
:102F0000C673C4F8F430DF22C82338460096142173
:102F1000FFF7BEFE4846394607F0A0FB204605B045
:102F2000BDE8F08FE8620208586E0208D06202081D
:102F3000472C0008D0E8EDFF697578FF464D4FFF3C
:102F40002860020830B5036885B06D460181D3F86A
:102F50008430014604462846984795E807003C34EB
:102F600084E8070005B030BD30B5036885B06D4614
:102F70004181D3F88430014604462846984795E8B5
:102F800007003C3484E8070005B030BD0022028011
:102F900042808280C280704780F83610704770B5DA
:102FA000036804461B6B154698472368294620464C
:102FB0005B6EBDE87040184700207047806C70471A
:102FC0007047704770477047704770477047704749
:102FD0007047704703685B6B184790F82C304BB113
:102FE00000F16C021268C2653BB100F174031B680A
:102FF0000366704700F16802F4E700F17003F6E73A
:1030000008B590F82C303BB100F1C4031B68C0F840
:10301000A830FFF7E2FF08BD00F1C003F6E730B4C7
:10302000C26844685510034604EB6200D20748BFEB
:1030300062599B6830BC48BFD35818470346406864
:1030400030B19A681AB9D86800F0010070470120C1
:10305000704790F82D3080F8AE3080F85A307047C5
:1030600090F82D3080F85A30704710B54C21044646
:1030700020F041F8204610BD10B57821044620F01C
:103080003AF8204610BD10B5C821044620F033F8A8
:10309000204610BD10B51021044620F02CF8204623
:1030A00010BD10B540F6AC71044620F024F820465F
:1030B00010BD00F52A63994270B504460D4603D150
:1030C0000DF02EFAFFF798FC04F6C8039D4203D1D9
:1030D0000DF026FAFFF790FC04F519639D4203D129
:1030E000236820461B6B984704F668339D4205D140
:1030F000236820469B6BBDE87040184770BD08B53B
:10310000FEF7D0F908BD0000036870B55E6B124B86
:103110001B6804468DB22BB9104B114A6C21114823
:1031200020F026FF1049828D0988914203D80F4B69
:103130000B4A6D21F3E713F812200D4B1B6853F86F
:10314000220003681B6B9847291A3346204609B2B0
:10315000BDE87040184700BF98360120D9580208D2
:103160001B590208565902089C3601209D59020835
:10317000A03601200B7970B590F82C6004460D46FE
:103180000BB916B170BD002EFCD0B3FA83F35B0906
:1031900084F82C3023682046D3F88C309847236875
:1031A00020465B699847002EECD02B79012BE9D1A2
:1031B00023682046D3F88830BDE8704018470000E7
:1031C0004FF480710022818405490160C0E9012229
:1031D000C0E90322C0E90522C0E9072282627047E4
:1031E000086B020800224FF0FF31C0E90021826025
:1031F000704710B50446FFF7F5FF204610BD0000EC
:1032000010B500210446262221F0B9F82046FFF728
:103210004BFD094B2360094BA3624FF6FF73A38557
:103220004FF47F020023C4E90C32238704F13C00F1
:10323000FFF7D8FF204610BDF86C0208286002088E
:1032400010B50446FFF7DCFF024B23600023A364A4
:10325000204610BD1C63020870B50446FFF7B0FF9E
:103260004FF47F432646A3850123002584F82430AC
:10327000134B256346F8343B3046FFF727FD114BCF
:1032800063632A4629463046C4E91A55C4E91C55E9
:103290002566A4F86450FFF7E1FC31462046264637
:1032A00007F0DCF9084B46F8783B3046FFF7A8FFFB
:1032B0002046C4E93055314607F0D0F9204670BDAC
:1032C000AC630208F06D02084864020810B403679A
:1032D000019B436703685DF8044BD3F88C30C0E969
:1032E0001A12184738B5044600F1780528460AF046
:1032F000BFFBB4F90A20B4F908102846FFF7BBFC5D
:1033000038BD0368C0E93012D3F88C30184700008C
:103310002DE9F04F0446BBB0254600260FF004F916
:10332000DC4BE66345F8403B04F16C072846FFF7A9
:10333000CDFC04F198093846FFF7C8FC4846FFF772
:103340003FFF04F1C403184604F1F00A1E9304F58C
:103350008E7BFFF7BBFC5046FFF7B8FC5846FFF7E3
:103360006FFF04F5B47318461F93FFF7AFFC04F525
:10337000CA7318460E93FFF763FF04F5F0731846FF
:103380002093FFF7A3FC04F5037318460F93FFF790
:1033900057FF04F5167318462193FFF797FC04F5C1
:1033A000217318461093FFF74BFF04F5347318464A
:1033B0002293FFF78BFC04F53F7318461193FFF738
:1033C0003FFF04F5527318462393FFF77FFC04F583
:1033D0005D7318460393FFF733FF04F570731846C7
:1033E0002493FFF773FC04F57B7318461293FFF7E1
:1033F00027FF04F5876318462593FFF767FC04F25F
:10340000644318461393FFF71BFF04F596631846B1
:103410002693FFF75BFC04F2DC4318461493FFF796
:103420000FFF04F5A56318462793FFF74FFC04F23E
:10343000545318461593FFF703FF04F5B463184679
:103440002893FFF743FC04F2CC5318461693FFF77A
:10345000F7FE04F5C36318462993FFF737FC04F21F
:10346000446318461793FFF7EBFE04F5D263184642
:103470002A93FFF72BFC04F2BC6318461893FFF75E
:10348000DFFE04F5E16318462B93FFF71FFC04F2FF
:10349000347318461993FFF7D3FE04F5F06318460A
:1034A0002C93FFF713FC04F2AC7318461A93FFF742
:1034B000C7FE04F5FF6318462D93FFF707FC04F6DB
:1034C000240318461B93FFF7BBFE04F50763184659
:1034D0000293FFF775FE04F69C0318462E93FFF740
:1034E000F5FB04F6C80318460493FFF7B5FE04F590
:1034F000196318460593FFF7AFFE04F658231846E4
:103500000693FFF77DFE04F52A6318460793FFF73D
:10351000A3FE04F6683318460893FFF79DFE04F5F2
:10352000436318460993FFF74BFE04F65C431846C5
:103530002F93FFF7CBFB04F6884318461C93FFF745
:103540007FFE04F6D44318460A93FFF759FE04F6AB
:103550001C5318460B93FFF733FE04F648531846E6
:103560003093FFF7B3FB04F6745318461D93FFF72F
:1035700067FE04F55C6318460C93FFF741FE04F602
:10358000086326224FF6FF78314618460D93ADF8B2
:10359000DC8020F0F4FE0D98FFF786FB3E4BC4F86C
:1035A000083EBDF8DC300D98A4F82E3E84F8308E2D
:1035B00037A90AF0B9FB394BC4F89C3F4FF4A07807
:1035C000374BC4F8A43F32462846C4F8A04FC4F88D
:1035D000A86FF023CDF800803146FFF759FB4FF07C
:1035E0007F43A366231D29461846319307F036F81A
:1035F00032463846CDF80080F0233146FFF748FBCD
:10360000284BC4F89430DC253946201D07F026F8F5
:103610002B4600955A220A214846FFF739FB2B46D4
:1036200032461E9800953146FFF732FB1E4B1E991D
:10363000C4F8EC30484607F011F83227A6221146AC
:103640003B4650460097FFF723FB184BC4F8183150
:103650005146484607F002F81323B6220093AB21E7
:1036600028235846FFF714FB4FF07F43C4F84C3132
:10367000D4F81C31A4F8506132ADD3F88430DFF8AF
:10368000308059462846984795E8070004F5AC7302
:1036900010E000BFFC640208586E0208E4640208EF
:1036A000B3300008D0E8EDFF7483B5FF6691E8FF02
:1036B0009836012083E8070004F634631E93D8F897
:1036C00000302BB9074B084A6021084820F050FC15
:1036D000DFF820A0BAF80030022B0DD8044B024AC4
:1036E0006121F2E7D9580208DB590208565902084D
:1036F0009D5902089C360120CD4B0221186801F02B
:10370000BDF8CC4A03460A211E9810F0BBFB1E9A56
:10371000C4F864211423C84A3792584637A9ADF833
:10372000E0300AF0A5F95946484606F097FF3B46B7
:10373000A6221F9800977021FFF7AAFABF49C4F884
:10374000901148461F9906F089FF1320B622009079
:1037500028230E987521FFF79BFAD4F894310E991F
:10376000D3F88430A4F8C8614FF07F40C4F8C40196
:103770002846984795E8070004F5E87383E80700B2
:10378000D8F8003004F6486B002B9BD0BAF8003014
:10379000032BA3D9A64B0321186801F06FF8A54AA3
:1037A00003460A21584610F06DFB37A8A24AC4F818
:1037B000DCB1152301460E983792ADF8E0300AF0DF
:1037C00057F90E99484606F049FF3B46A622209835
:1037D00000973A21FFF75CFA9849C4F80812484666
:1037E000209906F03BFF1320B622009028230F9863
:1037F0003E21FFF74DFAD4F80C320F99D3F88430FC
:10380000A4F840624FF07F40C4F83C022846984735
:1038100095E8070004F5127383E80700D8F8003034
:1038200004F65C6B002B3FF44DAFBAF80030042B6C
:103830007FF654AF7E4B0421186801F01FF87D4AD3
:1038400003460A21584610F01DFB37A87A4AC4F8EF
:1038500054B2162301460F983792ADF8E0300AF0C3
:1038600007F90F99484606F0F9FE3B46A622219833
:1038700000970421FFF70CFA7049C4F880124846FB
:10388000219906F0EBFE1320B62200902823109811
:103890000921FFF7FDF9D4F884321099D3F8843068
:1038A000A4F8B8624FF07F40C4F8B40228469847A5
:1038B00095E8070004F5307383E80700D8F8003076
:1038C00004F5676B002B3FF4FDAEBAF80030052B12
:1038D0007FF604AF564B0521186800F0CFFF554A1C
:1038E00003460A21584610F0CDFA37A8524AC4F8C8
:1038F000CCB21723014610983792ADF8E0300AF0A9
:10390000B7F81099484606F0A9FE3B467022229867
:103910000097A621494FFFF7BBF92299C4F8F87226
:10392000484606F09BFE132180221198009128231F
:10393000AA21FFF7ADF9D4F8FC32A4F830634FF0B8
:103940007F412846D3F88430C4F82C131199984746
:1039500095E8070004F54E7383E80700D8F80030B7
:1039600004F68465002B3FF4ADAEBAF80030062BA8
:103970007FF6B4AE2E4BDFF8CC801868062100F03D
:103980007DFF2C4A03460A21284610F07BFAC4F832
:10399000445337AD284A1198379218232946ADF879
:1039A000E0300AF065F81199484606F057FE3226D5
:1039B00070221146334623980096FFF769F9239940
:1039C000C4F87073484606F049FE1320282380226D
:1039D000009075210398FFF75BF932AF4FF07F40FD
:1039E0004FF0000B0399C4F8A403A4F8A8B3384619
:1039F000FFF7FFFB039800F13C0397E8070083E81B
:103A00000700D8F8003004F6986A002B3FF45AAE4D
:103A10000B4F3B88072B7FF661AE054B07211868DB
:103A200000F02CFF034A03460A2150460CE000BF79
:103A3000A4360120265A0208286002086691E8FF91
:103A40009C3601209836012010F01CFAD04A0398C9
:103A5000C4F8BCA3192329463792ADF8E0300AF028
:103A600007F80399484606F0F9FD3346702224987A
:103A700000963A21FFF70CF9C649C4F8E813484606
:103A8000249906F0EBFD1320282380223F2100908B
:103A90001298FFF7FDF84FF07F40C4F81C04A4F81B
:103AA00020B42846FFF79EFB95E8070004F58563E0
:103AB00083E80700D8F8003004F6AC6A002B3FF426
:103AC00001AE3B88082B7FF609AEB34B082118687E
:103AD00000F0D4FEB14A03460A21504610F0D2F954
:103AE000AB4A1298C4F834A41A2329463792ADF889
:103AF000E03009F0BDFF1299484606F0AFFD3346AD
:103B00007022259800960421FFF7C2F8A149C4F855
:103B100060144846259906F0A1FD13202823802231
:103B2000092100901398FFF7B3F84FF07F40C4F8D5
:103B30009404A4F898B42846FFF754FB95E80700CE
:103B400004F5946383E80700D8F8003004F56C6A44
:103B5000002B3FF4B7AD3B88092B7FF6BFAD8E4BF2
:103B60000921186800F08AFE8C4A03460A21504653
:103B700010F088F9864A1398C4F8ACA41B23294690
:103B80003792ADF8E03009F073FF1399484606F01C
:103B900065FD33463A2226980096A621FFF778F86D
:103BA0007C49C4F8D8144846269906F057FD1320DE
:103BB00028234A22AB2100901498FFF769F84FF0B0
:103BC0007F40C4F80C05A4F810B52846FFF70AFB9F
:103BD00095E8070004F5A36383E80700D8F80030F0
:103BE00004F6D46A002B3FF46DAD3B880A2B7FF6B8
:103BF00075AD694B0A21186800F040FE674A03461C
:103C00000A21504610F03EF9614A1498C4F824A5E0
:103C10001C2329463792ADF8E03009F029FF1499AA
:103C2000484606F01BFD33463A222798009670213D
:103C3000FFF72EF85749C4F850154846279906F063
:103C40000DFD132028234A22752100901598FFF7B7
:103C50001FF84FF07F40C4F88405A4F888B52846C3
:103C6000FFF7C0FA95E8070004F5B26383E80700A0
:103C7000D8F8003004F6E865002B3FF423AD3B880C
:103C80000B2B7FF62BAD444B0B21186800F0F6FD93
:103C9000424A03460A21284610F0F4F8C4F89C551D
:103CA00037AD3B4A159837921D232946ADF8E030D1
:103CB00009F0DEFE1599484606F0D0FC3A2211467E
:103CC000334628980096FEF7E3FF3249C4F8C8153A
:103CD0004846289906F0C2FC132028234A223F2197
:103CE00000901698FEF7D4FF4FF07F40C4F8FC0513
:103CF000A4F800B62846FFF775FA95E8070004F522
:103D0000C16383E80700D8F80030DA4604F6FC6B9C
:103D1000002B3FF4D7AC3B880C2B7FF6DFAC1E4B5F
:103D20000C21186800F0AAFD1C4A03460A215846D7
:103D300010F0A8F8164A1698C4F814B61E2329469F
:103D40003792ADF8E03009F093FE1699484606F038
:103D500085FC33463A22299800960421FEF798FF05
:103D60000C49C4F840164846299906F077FC132000
:103D700028234A22092100901798FEF789FF4FF067
:103D80007F40C4F87406A4F878A6284608E000BF6F
:103D9000286002086691E8FFA4360120265A02082E
:103DA000FFF720FA95E8070004F5D06383E80700E1
:103DB000D8F8003004F5716B002B3FF483AC3B88DE
:103DC0000D2B7FF68BACD34B0D21186800F056FD00
:103DD000D14A03460A21584610F054F8CF4A1798A2
:103DE000C4F88CB61F2329463792ADF8E03009F0AD
:103DF0003FFE1799484606F031FC334604222A98C4
:103E00000096A621FEF744FFC549C4F8B8164846F7
:103E10002A9906F023FC132028231422AB210090BA
:103E20001898FEF735FF4FF07F40C4F8EC06A4F871
:103E3000F0A62846FFF7D6F995E8070004F5DF63FA
:103E400083E80700D8F8003004F6247B002B3FF409
:103E500039AC3B880E2B7FF641ACAE4B0E21186877
:103E600000F00CFDAC4A03460A21584610F00AF84F
:103E7000AA4A1898C4F804B7202329463792ADF807
:103E8000E03009F0F5FD1899484606F0E7FB3346A7
:103E900004222B9800967021FEF7FAFEA049C4F880
:103EA000301748462B9906F0D9FB132028231422FB
:103EB000752100901998FEF7EBFE4FF07F40C4F893
:103EC0006407A4F868A72846FFF78CF995E807006F
:103ED00004F5EE6383E80700D8F8003004F6387B79
:103EE000002B3FF4EFAB3B880F2B7FF6F7AB894BF2
:103EF0000F21186800F0C2FC874A03460A21584681
:103F00000FF0C0FF854A1998C4F87CB721232946D1
:103F10003792ADF8E03009F0ABFD1999484606F04C
:103F20009DFB334604222C9800963A21FEF7B0FE02
:103F30007B49C4F8A81748462C9906F08FFB13223A
:103F400028233F211A9800921422FEF7A1FE4FF079
:103F50007F42C4F8DC272846A4F8E0A7FFF742F91F
:103F600095E8070004F5FD6383E80700D8F8003002
:103F700004F64C75002B3FF4A5AB3B88102B7FF665
:103F8000ADAB644BDFF894B11868102100F076FCFB
:103F900037AE614A03460A2128460FF073FF2223F9
:103FA0001A98C4F8F4573146ADF8E030CDF8DCB0DB
:103FB00009F05EFD1A99484606F050FB322213467E
:103FC0000092042211462D98FEF762FE544B2D9963
:103FD000C4F82038484606F041FB132209211B98FB
:103FE000009228231422FEF753FE4FF07F43C4F8BB
:103FF0005438A4F858A83046FFF7F4F896E80700BC
:1040000004F5066383E80700D8F80030554604F548
:104010007667002B3FF456AB42490B88112B7FF695
:104020005DAB3C4B1121186800F028FC3A4A03466E
:104030000A2138460FF026FF23231B98C4F86C781A
:104040003146ADF8E030CDF8DCB009F011FD48465E
:104050001B9906F003FB68274946201D06F0FEFA6F
:10406000514602980097F0239422FEF711FE524623
:1040700084F895A851462E980097F023FEF708FE85
:10408000294B2E990298C4F8C438192706F0E6FA8D
:10409000524651463C2304F6FC000097FEF7F8FD1B
:1040A000224ADFF890A0224B4FF002001146A4F8FC
:1040B0002C090498CDF800A0FFF708F925230498EF
:1040C000ADF8E03031464FF0FF38CDF8DCB0FFF707
:1040D00009F93C230322294604F514600097FEF7F2
:1040E000D7FD049842464146FFF70BF904F69C7948
:1040F0003C231A46C4F8F89804980097A021FEF7CC
:10410000C7FD0499029806F0A9FA6E232A462946AB
:1041100012E000BFA4360120265A020828600208D7
:104120006691E8FF9C3601202D5403FF1F0EB2FF5D
:10413000663300FF996633FF04F6C4100097FEF75C
:10414000A7FDD64AD64B4FF002001146A4F8F40959
:104150000598CDF800A0FFF7B9F826230598ADF82B
:10416000E0303146CDF8DCB0FFF7BCF86E23032217
:10417000294604F608200097FEF78AFD0598424676
:104180004146FFF7BEF86E23C4F8C0993C2205985B
:1041900000971421FEF77CFD0599029806F05EFA5F
:1041A000102206983821FEF759FD0DF1C80C604623
:1041B0000699C4F8888AA4F88C5A09F0BFF90698C1
:1041C0000DF1C80C00F13C039CE8070083E80700F0
:1041D00024230698ADF8E0303146CDF8DCB009F084
:1041E00047FC0699029806F039FA0299201D06F05C
:1041F00035FA3C232A46294604F6D4200097FEF7D8
:1042000047FD4FF00200A74AA4F8040BA44BA649AF
:104210000798CDF800A0FFF759F82B230798ADF8C1
:10422000E0303146CDF8DCB0FFF75CF83C230322E8
:10423000294604F618300097FEF72AFD07984246F3
:104240004146FFF75EF83C231A46C4F8D09A079817
:104250000097AA21FEF71CFD0799201D06F0FEF924
:104260003C232A46294604F69C300097FEF710FDB1
:104270004FF002008B4AA4F8CC0B894B8A4908986E
:10428000CDF800A0FFF722F827230898ADF8E0301A
:104290003146CDF8DCB0FFF725F83C230322294650
:1042A00004F53E600097FEF7F3FC0898424641464D
:1042B000FFF727F83C231A46C4F8989B0898009704
:1042C0006421FEF7E5FC0899201D06F0C7F94FF0C0
:1042D000320C0998CDF800C03C230522AA21FEF734
:1042E000D7FC4FF0320CCDF800C03C232A462F9863
:1042F0002946FEF7CDFC6D482F99C4F8840C099827
:1043000006F0ACF94FF0130C2A233A4609211C9809
:10431000CDF800C0FEF7BCFCC4F8B88CA4F8BC5CB7
:104320003046FEF75FFF96E8070004F6C44383E8D3
:1043300007005F4A136804F67479002B3FF4C2A9A2
:104340005C490B88002B3FF4C9A95B4B29461868D0
:1043500000F094FA594A03460A2148460FF092FDAC
:1043600012231C98C4F8D09C3146ADF8E030CDF84B
:10437000DCB04FF0140909F07BFB1C99099806F09A
:104380006DF93C2301220A98CDF800902946FEF7EA
:104390007FFC0DF1C80C60460A99C4F8048DA4F89E
:1043A000085D09F0CBF80A980DF1C80C00F13C0348
:1043B0009CE807004FF02A0A83E807000A98CDF826
:1043C000DCB03146ADF8E0A009F052FBDDE90901AF
:1043D00006F044F90999201D06F040F94FF0320C1F
:1043E0000B98CDF800C03C2305226421FEF750FC59
:1043F0004FF0320CCDF800C03C232A4630982946B5
:10440000FEF746FC29483099C4F8700D0B9806F069
:1044100025F94FF0130C3A46534609211D98CDF863
:1044200000C0FEF735FCC4F8A48DA4F8A85D3046A2
:10443000FEF7D8FE96E8070004F55B6383E8070003
:104440001B4A136804F68877002B3FF43BA91949EF
:104450000B88012B7FF642A9174B0121186800F049
:104460000DFA164A03460A2138460FF00BFD4FF0AD
:1044700013031D98C4F8BC7D3146ADF8E030CDF88B
:10448000DCB009F0F5FA1D990B9806F0E7F80C98E6
:10449000CDF800900122294612E000BF1F0EB2FFA6
:1044A000663300FFCC9900FF996600FF46468FFFF8
:1044B000983601209C360120A4360120265A020895
:1044C0003C23FEF7E5FB32AB0C99C4F8F08D18469F
:1044D000A4F8F45D09F032F832AA07CA0C9BCDF8B3
:1044E000DCB03C3383E8070029230C98ADF8E030BA
:1044F000314609F0BDFADDE90B0106F0AFF80B9982
:10450000201D06F0ABF805220D980A21FEF7A6FB48
:104510004FF00200ADF8DC0031460D9809F004FCC4
:10452000201D0D9906F09AF820463BB0BDE8F08FAB
:104530007047000030B5164D2C6814F001048FB0A0
:10454000BFF35B8F21D128461EF0D7FDE8B1114B98
:10455000114912480A94CDE90B433F230993104BAC
:104560000893104B05940122CDE906430423CDE9BD
:10457000033214230093CDE90144FEF793FA0A486D
:104580001FF014FD28461EF0C4FD04480FB030BDD6
:10459000D8270020386502082C840208DC27002078
:1045A000C4860208D486020831450008704700001E
:1045B00030B5164D2C6814F001048FB0BFF35B8F3B
:1045C00021D128461EF099FDE8B13F230993104BF5
:1045D0000893104B07930123CDE90543049304236B
:1045E000CDE902430E230C4900931B22CDE90B4475
:1045F0000A480A940194FEF755FA09481FF0D6FCC0
:1046000028461EF086FD05480FB030BD0828002062
:10461000C8860208D88602083C8402080C280020BC
:10462000AD4500087047000030B5164D2C6814F0F9
:1046300001048FB0BFF35B8F21D128461EF05DFDD2
:10464000E8B13F230993104B0893104B10491148D0
:104650000A94CDE9064301220423CDE90332142351
:1046600000930A22CDE90B44CDE901440594FEF7FD
:1046700019FA09481FF09AFC28461EF04AFD054821
:104680000FB030BD38280020CC860208DC86020836
:10469000B88502083C280020254600087047000025
:1046A00030B5174D2C6814F001048FB0BFF35B8F49
:1046B00022D128461EF021FDF0B13F230993114B72
:1046C0000893114B114912480A94CDE9064301227F
:1046D0000423CDE903321E23009309222423CDE9CC
:1046E0000B44CDE901440594FEF7DCF909481FF0BD
:1046F0005DFC28461EF00DFD05480FB030BD00BF23
:1047000068280020D0860208E08602084486020855
:104710006C2800209D46000800207047002070474C
:104720000EB403B503AB002153F8042B01930CF036
:104730007FFF02B05DF804EB03B070470CB407B51F
:1047400004AB53F8042B01930CF072FF03B05DF837
:1047500004EB02B070470000436C10B5044673B31D
:10476000038F2BB9184B194AC52119481FF000FCBB
:10477000C38E00EB43035B8C0BB30EF0DAFD238F8B
:10478000012B03D8134B144ACB21EEE7E28E531CC6
:104790009BB2092B194688BFA3F10A0104EB410122
:1047A00040F63F10498C814209D10A2B04EB4202AA
:1047B00028BF002304EB4303508C588451842046C7
:1047C000BDE810400EF0B8BC295A0208325A02085F
:1047D000DD5A0208275B0208355B02080EF073BC45
:1047E00010B586B002AC84E806001A460AAB059301
:1047F0000193099B00932146089B0BF02FFA06B00A
:1048000010BD000038B518BB124B13481C68134983
:10481000B4B1226822440260626822440A60A2683D
:1048200014440F4B00221A8000F038F8054600F0BF
:1048300033F80C4B1C600C4B1D600C4B188007E0D0
:104840000B4B03600B4B0B600B4B1C68002CE8D12F
:1048500038BD00BFA42800209C28002098280020F4
:10486000A028002098360120A03601209C36012087
:1048700094870208E486020854880208044B1B68E7
:1048800053F82100034B1B6803EB4000704700BF47
:10489000982800209C2800202C2070470048704752
:1048A000A828002010B5FFF745FE064C2060FFF752
:1048B000F7FE6060FFF77CFEA060FFF7B5FEE060EA
:1048C00010BD00BFA828002010B5002404600C60B3
:1048D00014601C6010BD704710B54FF4AE710446F3
:1048E0001EF009FC204610BD10B50446D0F8580152
:1048F00000F013F82046BDE810400BF093BE000016
:1049000010B50446FEF744F8014B2360204610BD65
:1049100098690208002202607047704770470438A7
:104920007047704710B5102104461EF0E4FB204686
:1049300010BDA0F10400F5E700228260024A026087
:1049400018324260C1607047EC690208704700008D
:1049500010B5034B03600446FEF7DEF8204610BD99
:10496000146A020810B50446FFF7F2FF20464FF420
:10497000CE711EF0C0FB204610BD000010B50446ED
:10498000FEF71AFA014B2360204610BD146A020894
:10499000FEF7C3B8704704387047704710B5102150
:1049A00004461EF0A8FB204610BDA0F10400F5E768
:1049B00000228260024A026018324260C160704781
:1049C000486A020870470368DB68184710B5034B54
:1049D00003600446FEF7FCFA204610BD706A020828
:1049E00010B50446FFF7F2FF204640F6F8711EF0BE
:1049F00082FB204610BD000010B50446FEF788FC7F
:104A0000044B2360002384F8F03FC4F8F43F2046B1
:104A100010BD00BF706A020810B501220446802153
:104A2000044801F0E1FC012384F8F03F0A23C4F8B4
:104A3000F43F10BD00000240F7B5054600F6B8721D
:104A400000F6F8710024A2F1100353F8040F00B926
:104A500001349342F9D103F110028A42F3D16CB3CD
:104A60001D48694602F0EAFE08B100230093009B4E
:104A7000B3FBF4F2002604FB12334FF0FF3105F6CE
:104A8000A8721046002450F8047FDFB901318B4230
:104A900018D1114801A902F0D1FE88B9019B0A2260
:104AA000B3FBF2F102FB1133092B14BF02230423E1
:104AB00004EB860405EB8404C4F8AC3F03B0F0BDFE
:104AC0000223F5E70134042CDDD10136042E02F176
:104AD0001002D6D1F2E700BFA42500202DE9F04F47
:104AE000BBB000F624030A9300F2AC730B9300F200
:104AF00034730C9300F2BC630D9300F244630E9385
:104B000000F2CC530F9300F25453109300F2DC43A5
:104B1000119300F26443129300F57B73139300F535
:104B20005D73149300F53F73159300F5217316938D
:104B300000F50373179300F5CA73189300F58E738D
:104B4000199300F5FF631A9300F5F0631B9300F5CA
:104B5000E1631C9300F5D2631D9300F5C3631E93BC
:104B600000F5B4631F9300F5A563209300F59663E9
:104B7000219300F58763229300F57073239300F56A
:104B80005273249300F53473259300F5167326931E
:104B900000F5F073279300F5B473289300F1F00348
:104BA000299300F576632A9300F64C732B9300F655
:104BB00038732C9300F624732D9300F571632E93B4
:104BC00000F6FC632F9300F6E863309300F6D4639D
:104BD000319300F56C63329300F6AC63339300F6C7
:104BE0009863349300F68463359300F567633693D6
:104BF00000F65C63379300F64863389300F634633D
:104C000039933E4B02AA044603F120071646186862
:104C10005968154603C50833BB422A46F7D1DFF869
:104C200014914FF0100804F698774744A8F1100546
:104C300001960AAB019853F805B03149314A1AABD5
:104C400055F803A057F8043F002B08BF0A4630F878
:104C5000021B01902AA840590FF014F93A68402A23
:104C60003DD027DC082A3CD01DDC022A3BD0264B55
:104C7000042A18BF4B46CAF82830DBF800305846E3
:104C80005B699847DAF8003050465B69043598470D
:104C90004545CED1402D05F1100806F10806C2D1D8
:104CA0003BB0BDE8F08F102A1FD0184B202A18BF48
:104CB0004B46E0E7B2F5007F19D007DC802A18D018
:104CC000134BB2F5807F18BF4B46D4E7B2F5806F27
:104CD00011D0104BB2F5006F18BF4B46CBE70E4B0F
:104CE000C9E70E4BC7E70E4BC5E70E4BC3E70E4BAC
:104CF000C1E70E4BBFE70E4BBDE700BFC44F020834
:104D0000575C0208075C0208C8E0EDFF5F7CF6FF15
:104D100061CCEDFF2EC2EDFF3B5EF6FF79B1F2FFF5
:104D2000DAE4EEFF6395F5FF50C8EDFF72CFEDFFBB
:104D30003FC5EDFFB5C1CDFF00212DE9F04F034682
:104D400000F6A87C8B468946002566464FF0FF3A60
:104D50002C464FEA810856F8042FD2B1002C23DDEF
:104D600004F1FF3E08EB0E0703EB8707D7F8AC0F03
:104D7000824219D1D64517D05200C7F8AC2FD3F8CC
:104D8000EC0F1044C3F8EC0FF246C6F800904FF059
:104D9000010B0135042DDED1013104290CF1100C79
:104DA000D2D15846BDE8F08FAC4209D008EB0400E0
:104DB00003EB80004FF0010BC0F8AC2FC6F8009059
:104DC0000134E6E700212DE9F04F034600F6BC7CF4
:104DD0008B468946032566464FF0040A2C464FEA67
:104DE000810856F8042DD2B1022C22DC04F1010E08
:104DF00008EB0E0703EB8707D7F8AC0F824218D1F8
:104E0000D64516D05200C7F8AC2FD3F8EC0F10449B
:104E1000C3F8EC0FF246C6F800904FF0010B013DCD
:104E2000DFD2013104290CF1100CD3D15846BDE872
:104E3000F08FAC4209D008EB040003EB80004FF088
:104E4000010BC0F8AC2FC6F80090013CE7E7002347
:104E50002DE9F043024699469E46002502EB830663
:104E60004FF0FF3C2C46D6F8AC1FD1B1002C23DD0F
:104E700004F1FF3803EB880702EB8707D7F8AC0F84
:104E8000814219D1E04517D04900C7F8AC1FD2F8CC
:104E9000EC0F0844C2F8EC0FC446C6F8ACEF4FF074
:104EA00001090135042D06F11006DCD10133042B74
:104EB000D3D14846BDE8F083AC4209D003EB84006F
:104EC00002EB80004FF00109C0F8AC1FC6F8ACEF50
:104ED0000134E6E700232DE9F043024699469E4659
:104EE000032502EB83064FF0040C2C46D6F8DC1F9A
:104EF000D1B1022C23DC04F1010803EB880702EB9B
:104F00008707D7F8AC0F814219D1E04517D0490087
:104F1000C7F8AC1FD2F8EC0F0844C2F8EC0FC44637
:104F2000C6F8DCEF4FF00109013D691CA6F110063F
:104F3000DCD10133042BD3D14846BDE8F083AC4229
:104F400009D003EB840002EB80004FF00109C0F8A8
:104F5000AC1FC6F8DCEF013CE6E700F6B87230B5EE
:104F600000F6F8751446A4F1100151F8043FABB1F6
:104F7000A142FAD101F11004AC42F4D100F1400495
:104F8000D0F8B01FD0F8AC3F8B4207D0D0F8B43F78
:104F9000994203D0D0F8B81F8B4201D1002030BD18
:104FA0001030A042ECD10121A2F1100353F8044FBC
:104FB00018698442F2D09342F8D10131042903F1F7
:104FC0001002F1D10120EAE710B586B000F0DAFF57
:104FD00000230B2101930123CDE903130224694629
:104FE00001A8059401F0C2F818B1FCF753FF06B010
:104FF00010BD064B06491A682046D31701F006F883
:105000000028F2D100F0D0FFF1E700BF0825002012
:1050100000000F08034B1B685A1C034A08BF0023FB
:105020001360704700000F080825002038B50446BB
:1050300000F68875D0F8EC3F064A28460A210EF0A3
:1050400021FFC4F8BC5D04F67450BDE838400CF094
:1050500019BC00BF075C020870B50D4DD0F8EC3FDD
:105060002A689342044602DD2B60FFF7ADFF04F689
:1050700074762B68074A30460A210EF003FFC4F805
:10508000D06C04F68840BDE870400CF0FBBB00BF5C
:1050900008250020075C020810B50446FDF799FFBB
:1050A000234604F140010022C3F8AC2FC3F8B02F0F
:1050B000C3F8B42FC3F8B82F10338B42F4D1C4F81F
:1050C000EC2F2046FFF7A6FFFFF7B6FC2046FFF7C0
:1050D000B3FC2046FFF702FD2046FFF7A7FF20465E
:1050E000BDE81040FFF7B8BF90F8F03F37B5044671
:1050F00073B1D0F8F43F013B002BC0F8F43F07DC5C
:1051000027480022802101F06FF9002384F8F03F46
:10511000244D286803F048FB80B14FF0FF33286826
:1051200000220DF1070103F00FFB9DF80730532B10
:1051300029D005D8412B2AD0442B2CD003B030BD28
:10514000572BFBD12046FFF782FE0028F6D02046E1
:10515000FFF762FC2046FFF76FFC2046FFF7BEFC1E
:105160002046FFF763FF2046FFF7F7FE0028E5D053
:10517000012304F5076084F895380CF083FB204682
:10518000FFF76AFFDAE72046FFF7A4FEDDE72046D7
:10519000FFF7D2FDD9E72046FFF714FED5E700BFA1
:1051A000000002400425002010B50023044680F8CA
:1051B000953800F507600CF065FB23682046DB6836
:1051C000BDE810401847F02070474FF4A0707047BA
:1051D0002920FCF7A3BD2820FCF7A0BD08B5FCF7EB
:1051E00071FDCA20FCF79AFDC320FCF77BFD082067
:1051F000FCF778FD5020FCF775FDCF20FCF78EFD05
:105200000020FCF76FFDC120FCF76CFD3020FCF79F
:1052100069FDED20FCF782FD6420FCF763FD0320AF
:10522000FCF760FD1220FCF75DFD8120FCF75AFDC4
:10523000E820FCF773FD8520FCF754FD0020FCF707
:1052400051FD7820FCF74EFDCB20FCF767FD39209F
:10525000FCF748FD2C20FCF745FD0020FCF742FD43
:105260003420FCF73FFD0220FCF73CFDF720FCF763
:1052700055FD2020FCF736FDEA20FCF74FFD00200D
:10528000FCF730FD0020FCF72DFDB120FCF746FDBA
:105290000020FCF727FD1B20FCF724FDB620FCF7BF
:1052A0003DFD0A20FCF71EFDA220FCF71BFDC020DF
:1052B000FCF734FD1020FCF715FDC120FCF72EFD96
:1052C0001020FCF70FFDC520FCF728FD4520FCF75A
:1052D00009FD1520FCF706FDC720FCF71FFD9020F7
:1052E000FCF700FD3620FCF719FDC820FCF7FAFC9E
:1052F000F220FCF713FD0020FCF7F4FCB020FCF7D3
:105300000DFDC220FCF7EEFCB620FCF707FD0A20DD
:10531000FCF7E8FCA720FCF7E5FC2720FCF7E2FC03
:105320000420FCF7DFFC2A20FCF7F8FC0020FCF747
:10533000D9FC0020FCF7D6FC0020FCF7D3FCEF20C2
:10534000FCF7D0FC2B20FCF7E9FC0020FCF7CAFCA2
:105350000020FCF7C7FC0120FCF7C4FC3F20FCF751
:10536000C1FCF620FCF7DAFC0120FCF7BBFC0020B6
:10537000FCF7B8FC0620FCF7B5FC2C20FCF7CEFCB3
:10538000C820FCF719FD2620FCF7C8FC0120FCF71B
:10539000A9FCE020FCF7C2FC0F20FCF7A3FC2920AD
:1053A000FCF7A0FC2420FCF79DFC0C20FCF79AFCE9
:1053B0000E20FCF797FC0920FCF794FC4E20FCF72C
:1053C00091FC7820FCF78EFC3C20FCF78BFC09203C
:1053D000FCF788FC1320FCF785FC0520FCF782FC19
:1053E0001720FCF77FFC1120FCF77CFC0020FCF769
:1053F00079FCE120FCF792FC0020FCF773FC1620FE
:10540000FCF770FC1B20FCF76DFC0420FCF76AFC29
:105410001120FCF767FC0720FCF764FC3120FCF747
:1054200061FC3320FCF75EFC4220FCF75BFC0520AE
:10543000FCF758FC0C20FCF755FC0A20FCF752FC4A
:105440002820FCF74FFC2F20FCF74CFC0F20FCF72A
:1054500049FC1120FCF762FCC820FCF7ADFC2920B8
:10546000FCF75CFCBDE808402C20FCF757BC08B5F5
:10547000FCF728FC0321D320FCF76CFC80B208BDAC
:1054800010B5C4B2022203212046FCF7D1FB0A204A
:10549000FCF716FC204600220321FCF7C9FBBDE8FF
:1054A00010400220FCF70CBC38B50446E4B2FCF70F
:1054B000BDFB00212046FCF7D3FB01210546204619
:1054C000FCF7CEFB40EA052080B238BD10B5C4B26F
:1054D00040212046FCF7C4FB030607D54C2120469B
:1054E000FCF7BEFB003818BF012010BD01224B2184
:1054F0002046FCF79DFB204600224B21FCF798FB41
:105500000020F2E773B50423C4B20E461546D72136
:105510000DEB03022046FCF7BDFB019B1BBA1A0DE5
:10552000C3F30B23328020462B8001224B21FCF752
:105530007FFB00224B212046FCF77AFB02B070BDB6
:1055400010B50A4A1378984204460DD05178884223
:105550000AD00BB141B90123D454FCF767FB2046B4
:10556000BDE81040FFF78CBF10BD00BFB828002079
:1055700010B5C4B209212046FCF772FB40F00102CD
:10558000D2B220460921BDE81040FCF751BB10B54E
:10559000C4B209212046FCF763FB092100F0FE029A
:1055A0002046BDE81040FCF743BB38B5C4B20D46F9
:1055B00020460A21FCF754FB40EA0502D2B22046FD
:1055C0000A21BDE83840FCF733BB10B50446FCF7B0
:1055D0002EFB20461F21FFF7E8FF2046BDE81040C4
:1055E000FFF7C6BF38B5C4B20D4620460A21FCF706
:1055F00037FB20EA0502D2B220460A21BDE8384036
:10560000FCF716BB10B50446FFF7C1FF20461F216B
:10561000BDE81040FFF7E6BF10B5C0B20C460B2145
:10562000FCF71EFB204010BD1F21FFF7F5BF0A4607
:10563000C0B20B21FCF7FCBA1F21FFF7F8BF38B549
:10564000C4B20D4620461721FCF70AFB20EA0502EA
:10565000D2B220461721BDE83840FCF7E9BA70B550
:10566000C4B2064604212046FCF7FAFA042100F0F1
:10567000FB0205462046FCF7DBFA3046F021FFF737
:10568000DEFF05F0F80220460421FCF7D1FA49229A
:1056900020212046FCF7CCFA0220FCF711FB204623
:1056A00001222121FCF7C4FA20469A224121FCF76D
:1056B000BFFA204601224A21FCF7BAFA204601220D
:1056C0004B21FCF7B5FA204600224B21FCF7B0FA3B
:1056D000204601225621FCF7ABFA20460122582130
:1056E000FCF7A6FA204601224021FCF7A1FA204649
:1056F000FF220B21FCF79CFABDE870400220FCF76A
:10570000DFBA0000054BD3F8882042F47002C3F8DA
:1057100088204FF000629A60704700BF00ED00E003
:1057200008B50B4B1A6842F400721A601A6842F40A
:1057300080621A601A6842F480721A60032000F0D6
:1057400045FA0020FCF74CFEFCF7A6FB002008BD44
:10575000003C0240034A044B11681B780B44136061
:10576000704700BFBC28002078000020014B18685B
:10577000704700BFBC28002038B50446FFF7F6FF8D
:10578000631C1CBF054B1B78054618BFE418FFF7C8
:10579000EDFF431BA342FAD338BD00BF78000020C1
:1057A00038B50446002800F09B80056C25B9FCF74D
:1057B00093FB656484F83C50236CDB0600F18E801B
:1057C000236C23F4885323F0020343F00203236481
:1057D000444B5A6822F440325A605A6861680A435E
:1057E0005A60236821695A6822F480725A605A68A4
:1057F00042EA01225A605A68A16822F040725A6057
:105800005A680A435A609A68E16822F400629A6012
:105810009A680A439A603449A26A8A4252D09968C7
:1058200021F07061996099680A439A609A68E16A08
:1058300022F040529A609A680A439A609A6822F06D
:1058400002029A609A68217E42EA41029A6094F8C4
:105850002020002A3ED05A68616A42F400625A60F1
:105860005A6822F460425A605A68013942EA413269
:105870005A60DA6AE16922F47002DA62DA6A01399E
:1058800042EA0152DA629A6822F400729A609A68D7
:1058900094F8301042EA41229A609A68616922F4D1
:1058A00080629A609A68002042EA81229A6060646D
:1058B000236C23F0030343F001032364002384F8E3
:1058C0003C3038BD9A6822F070629A609A6822F083
:1058D0004052B2E75A6822F40062C9E70120EDE7BE
:1058E0000120EEE7002301400100000F82B00023F9
:1058F000019390F83C30012B69D0012380F83C30B3
:1059000003689A68D2070BD59A68D1071AD4036C3A
:1059100043F010030364436C43F0010343644CE021
:105920009A682C4942F001029A602B4A1268B2FB35
:10593000F1F202EB42020192019A002AE4D0019AAC
:10594000013AF8E7026C22F4E06222F0010242F42C
:10595000807202645A68520541BF026C22F44052C0
:1059600042F480520264026C12F480521CBF426CFA
:1059700022F006024264002280F83C206FF02202EE
:105980001A60164A516811F01F0F15491CD18B423D
:1059900007D001F580718B420CD1526812F01F0FB5
:1059A0000BD19A6812F0405F07D19A6842F08042AA
:1059B0009A6002E00B498B4202D0002002B070478F
:1059C000526812F0100FEBE78B42F6D1E9E70220A4
:1059D000F4E700BF40420F007400002000230140A4
:1059E000002001400022014003689A68520570B50A
:1059F00004460D460BD59B68DE0508D5036C43F0C5
:105A000020030364002380F83C30012070BDFFF7C1
:105A1000ADFE064623681A6891070CD56FF0120296
:105A20001A60226C42F4007222649A6812F0405F9D
:105A300017D00020EAE7681CEDD065B923681B6821
:105A400013F00203E6D1226C84F83C3042F00402E9
:105A500022640320DAE7FFF789FE801BA842EDD815
:105A6000D8E7227E002AE4D1DA6A12F4700F02D05D
:105A70009B685A05DDD4236C23F480732364236C64
:105A8000DB04D6D4236C43F001032364D1E703681D
:105A9000D86C7047F7B50023019390F83C30012B88
:105AA000054600F08680012380F83C3008682B68AA
:105AB0008E68092884B233D904EB4402DF681E3AA9
:105AC0004FF0070C0CFA02FC27EA0C07DF60DF68D6
:105AD00006FA02F23A43DA604968062901EB8102CC
