:020000040800F2
:10000000000003205D0600087D2300087F23000810
:1000100081230008832300088523000800000000D6
:10002000000000000000000000000000517E0008F9
:100030008723000800000000E17E000875770008B3
:10004000AD060008AD060008AD060008AD060008C4
:10005000AD060008AD060008AD060008AD060008B4
:10006000AD060008AD060008AD060008AD060008A4
:10007000AD060008AD060008AD060008AD06000894
:10008000AD060008AD060008AD060008AD06000884
:10009000AD060008AD060008AD060008AD06000874
:1000A000AD060008AD060008AD060008AD06000864
:1000B000AD060008AD060008AD060008AD06000854
:1000C000AD060008AD060008AD060008AD06000844
:1000D000AD060008AD060008AD060008AD06000834
:1000E000AD060008AD060008AD060008AD06000824
:1000F000AD060008AD060008AD060008AD06000814
:10010000AD060008AD060008AD060008AD06000803
:10011000AD060008AD06000889230008AD060008FA
:10012000AD060008AD060008AD060008AD060008E3
:10013000AD060008AD060008AD060008AD060008D3
:10014000AD060008AD060008AD060008AD060008C3
:10015000AD060008AD060008AD060008AD060008B3
:10016000AD060008AD060008AD060008AD060008A3
:10017000AD060008AD060008AD060008000000004E
:10018000AD060008AD060008AD060008AD06000883
:10019000AD060008AD060008AD060008AD06000873
:0C01A00095230008AD060008A12300080C
:1001B00010B5054C237833B9044B13B10448AFF3A1
:1001C00000800123237010BD800300200000000088
:1001D000BC42020808B5034B1BB103490348AFF307
:1001E000008008BD0000000084030020BC4202081B
:1001F00001F0FF01102A2BDB10F0070F08D010F8D8
:10020000013B013A8B422DD010F0070F42B3F6D1DB
:10021000F0B441EA012141EA014122F007047FF0F4
:1002200000070023F0E80256083C85EA010586EA4B
:10023000010685FA47F5A3FA87F586FA47F6A5FA87
:1002400087F68EB9EED1F0BC01F0FF0102F0070293
:1002500032B110F8013B013A83EA010313B1F8D13E
:100260000020704701387047002D06BF354603381F
:10027000073815F0010F07D1013015F4807F02BF58
:10028000013015F4C03F0130F0BC0138704700BFA9
:100290007BB972B90029BEBF00204FF0004106E0D3
:1002A00008BF00281CBF6FF000414FF0FF3000F086
:1002B000D3B9ADF1080C6DE904CE002909DB002BA0
:1002C0001ADB00F04DF8DDF804E0DDE9022304B0AC
:1002D0007047404261EB4101002B1BDB00F040F80E
:1002E000DDF804E0DDE9022304B0404261EB4101A6
:1002F000524263EB43037047524263EB430300F007
:100300002FF8DDF804E0DDE9022304B0404261EBA0
:1003100041017047524263EB430300F021F8DDF8DE
:1003200004E0DDE9022304B0524263EB430370476B
:1003300053B94AB9002908BF00281CBF4FF0FF314C
:100340004FF0FF3000F088B9ADF1080C6DE904CE34
:1003500000F006F8DDF804E0DDE9022304B07047A0
:100360002DE9F047089D8E4604468846002B4AD169
:100370008A42174662D9B2FA82F64EB1C6F120031C
:1003800001FA06F820FA03F3B74043EA0808B4403C
:100390004FEA174E1FFA87FCB8FBFEF1230C0EFB49
:1003A000118843EA084301FB0CF29A4209D9FB1871
:1003B00001F1FF3080F0EA809A4240F2E780023992
:1003C0003B449A1AA3B2B2FBFEF00EFB102243EAA2
:1003D000024300FB0CFC9C4509D9FB1800F1FF32DD
:1003E00080F0D6809C4540F2D3803B44023840EAFE
:1003F0000140A3EB0C0300211DB1F3400022C5E92D
:100400000032BDE8F0878B4205D90DB1C5E9000186
:1004100000210846F5E7B3FA83F1002946D1734578
:1004200002D3824200F20581841A6EEB030201209E
:100430009046002DE5D0C5E90048E2E7002A00F02B
:100440009080B2FA82F6002E40F0A4808A1A030C43
:100450004FEA174E80B2BCB20121B2FBFEFC0EFB8C
:100460001C2243EA024304FB0CF29A4207D9FB1810
:100470000CF1FF3802D29A4200F2E080C4469B1A87
:10048000B3FBFEF20EFB123340EA034302FB04F41B
:100490009C4207D9FB1802F1FF3002D29C4200F2C5
:1004A000CA8002461B1B42EA0C40A5E7C1F12006A8
:1004B0008B4022FA06F71F430EFA01F420FA06F3E6
:1004C0002EFA06FE4FEA1749234300FA01F81FFAF5
:1004D00087FCBEFBF9F01C0C09FB10EE44EA0E444D
:1004E00000FB0CFEA64502FA01F209D93C1900F105
:1004F000FF3A80F09C80A64540F2998002383C4447
:10050000A4EB0E041FFA83FEB4FBF9F309FB1344BA
:100510004EEA044403FB0CFCA44508D93C1903F142
:10052000FF3E80F08280A4457FD9023B3C4443EAF1
:100530000040A4EB0C04A0FB02EC64457346E146CA
:1005400062D35FD05DB1B8EB030264EB090404FA37
:1005500006F622FA01F31E43CC40C5E900640021EF
:100560004FE7B1FBF2FC010C41EA0E4180B240EAD8
:1005700001423B4638463C46B846BE462026B1FBC3
:10058000F7F1A2EB080241EA0C4166E7014618E7E1
:1005900010462CE7C6F120022EFA02F3B740B14014
:1005A00020FA02F24FEA174E0A43B3FBFEF8BCB240
:1005B0000EFB1833110C41EA034108FB04F9B0406B
:1005C00089454FEA104380B23ED9791808F1FF3CC3
:1005D00001D289451FD8A1EB0901B1FBFEF909FB46
:1005E00004F80EFB191192B242EA0142424529D2A7
:1005F000BA1809F1FF31C4D24245C2D2A9F10201B1
:100600003A44BEE7F0459DD2BEEB02036CEB070C0B
:100610000138E14696E7A7EB09094944A8F1020C25
:10062000B1FBFEF909FB04F8DBE773467FE75046B0
:1006300066E70846FDE63B44023A33E7ACF1020CBC
:100640003B441CE749469CE7A1EB0901C446B1FBCA
:10065000FEF909FB04F8C4E7704700BFDFF834D0A7
:10066000002103E00C4B5B58435004310B480C4B0A
:1006700042189A42F6D30B4A02E0002342F8043BA8
:10068000094B9A42F9D304F0C1FC23F0A9F801F018
:1006900067F8704700000320CC2104080000002008
:1006A0006401002080030020A8440120FEE7704779
:1006B00008B500F0BFFDBDE8084000F041BD00F006
:1006C000BBBD704710B50421044621F09CFE2046B6
:1006D00010BD000038B50C4B0C4C18800C4B822020
:1006E00019806368984740F6110398420AD1094D72
:1006F00023682C60822098472B688220DB6898470B
:10070000002038BD0120FCE7A60300204C0000209B
:10071000A4030020A80300204FF4A071F020FFF7ED
:10072000D9BF0000F7B5394D2B6804461B698220FC
:100730009847208000284ED02B680DF106025B6997
:1007400001A982209847324B1B78002B4BD0BDF873
:10075000062040F674639A423FD9ADF80630BDF8E2
:1007600006209B1A9BB20A2B42D90B22B3FBF2F351
:10077000284A1288934201D9013A93B2BDF8042065
:10078000254840F6B8318A4234D8C2F571620E323B
:10079000016892B20F25B2FBF5F2204D2D88AA42D6
:1007A00084BF05F1FF35AAB28A4215468EB22AD916
:1007B000921B91B21A4E3768BB42BAB28CBF9A1ADA
:1007C000D21A92B211440529C4BF05603360036890
:1007D00063803368A38003B0F0BDB32A9CBFB4220A
:1007E000ADF80620BBE7BDF80630A3F5B473B9E752
:1007F0000023C3E7C2F56D62083292B20E2A016887
:10080000C8D800252A46891A89B2D3E7A803002050
:1008100020260020A4030020A0030020A60300201F
:100820009C03002037B568460D461446FFF77AFF53
:10083000BDF8000030B1BDF802302B60BDF80430C7
:100840002360012003B030BD032821D8DFE800F089
:10085000020B12190F4B1A68B2FA82F252090421E4
:100860000D4804F0A9BF0B4B5A68B2FA82F2520944
:100870000821F5E7074B9A68B2FA82F25209102173
:10088000EEE7044BDA68B2FA82F252092021E7E778
:10089000704700BFAC03002000100240032821D89D
:1008A000DFE800F0020B12190F4B1A68003A18BF6C
:1008B000012204210D4804F07FBF0B4B5A68003A17
:1008C00018BF01220821F5E7074B9A68003A18BFC4
:1008D00001221021EEE7044BDA68003A18BF01222A
:1008E0002021E7E7704700BFAC0300200010024062
:1008F00003280DD8DFE800F00206080A04210548A5
:1009000004F05FBF0821FAE71021F8E72021F6E79D
:10091000704700BF0010024008B5032811D8DFE877
:1009200000F0020A0C0E0421074804F03FFF431EAA
:100930005842584108BD0821F6E71021F4E720216C
:10094000F2E70020F3E700BF0010024070B5084D49
:1009500000240126E0B2FFF7DFFF18B12B68012B5E
:1009600018BF2E600134052C05F10405F2D170BDCD
:10097000AC030020012380F8781080F879307047AC
:100980007047002070470000034B4164003918BFD6
:1009900001211970704700BF6737012070470020A0
:1009A0007047836B0BB10846184770474FF6FF70CE
:1009B0007047406803689B691847704770477047E5
:1009C0007047704710B5044600F04CFD236803499A
:1009D000D3F890302046BDE810401847000000D002
:1009E00008B503680446D3F8843098472368204646
:1009F000DB6F984700F0ECF8236820465B6F984760
:100A0000292001F073F900F0E3F8236820465B6FBA
:100A10009847F8E710B504460AF010F82368204616
:100A2000D3F8BC30BDE81040184700F0FFBC00F020
:100A300003BD00F035BD00F0D5BC00F045BD00F0B1
:100A40004DBD00F0D9BC09F027BA10B58421044689
:100A500021F0D9FC204610BD10B590F8341090F864
:100A600078400C4B8C421A7809D03AB90A4A0B49A3
:100A70001488088810800C8001221A7010BD002A8A
:100A8000FCD0054A05491488088810800C80002293
:100A9000F3E700BF603701205C3701205E3701209B
:100AA00070B50D46194635B9094B0A4A0A4840F255
:100AB000FF2122F0E5FBC0E90F52084B003A18BFB6
:100AC00001221A700368BDE87040D3F890301847CF
:100AD0002C43020864430208B2430208663701202F
:100AE00008B5094B1B888B4203D8084B1B889342DF
:100AF00005D9074B074A0848A32122F0C1FB074B41
:100B00001980074B1A8008BD5C3701205E37012031
:100B1000F74302085A440208B24302086237012030
:100B200064370120034690F87A0018B158680368CA
:100B30001B68184770470000012108B500220846CD
:100B400006F0A2FE0A4B186028B90A4B0A4A28216F
:100B50000A4822F095FB00220421012006F033FF11
:100B6000074B186018B9074B034A2C21F0E708BD62
:100B7000C00300209D440208E6440208154502080F
:100B8000BC0300205F450208024B4FF0FF3118689C
:100B900006F0C4BEC0030020014B186806F0EABE90
:100BA000C0030020024B0021186806F0B7BE00BF4A
:100BB000C0030020FFF7F0BF03480449006800238A
:100BC0001A4606F03BBF00BFBC0300200400002013
:100BD00013B5084C00231A4601A9206806F05FFFF0
:100BE00020684FF0FF33002201A906F058FF02B041
:100BF00010BD00BFBC03002003685B6C18470120D8
:100C0000704703689B6A1847FEE740F2EF30704771
:100C1000054B0360054B4FF08062C3F88820BFF39B
:100C20004F8FBFF36F8F70476450020800E100E000
:100C300010B504464FF45A61FFF7EAFF204621F051
:100C4000E2FB204610BD000082B0002301930E4B52
:100C50001A6B42F400021A631A6B02F4000201924A
:100C6000019A1A6942F400021A611A6922F4000218
:100C70001A61064B064A1A61064A5A61064B4FF042
:100C800080629A6002B0704700380240C42700209A
:100C9000E90E0008090C000800E100E008B50A2888
:100CA00009D8DFE800F006100E0808080810101038
:100CB0001000022008BD054B054A0648902122F08D
:100CC000DFFA0020F6E70120F4E700BFA1450208A3
:100CD000BC4502080746020838B50C46887FFFF776
:100CE000DDFFA58AE28A164B2169586342EA054274
:100CF0005A64628BD963521B1A642568082D0ED181
:100D00009A611A615862207F0E4A42EA0062DA61F3
:100D1000E2681A620C4A5961D9601A6038BD002233
:100D2000D8611A61E1680A0A480902F4784200F4BD
:100D3000FC600243C1F3C4010A439A63034AECE72F
:100D400000B002400900010001230200012303005A
:100D500008B50B280BD8DFE800F00612100A0A0AC3
:100D60000A0808080808022008BD0520FCE7054B12
:100D7000054A06486F2122F083FA0020F4E701209B
:100D8000F2E700BFA14502084F46020807460208E5
:100D90002DE9F04191F81D800C464046FFF7D8FF41
:100DA000A77F05463846FFF7D3FF06463846FFF7CC
:100DB00075FFA18A628B444B521A1A649A61228B86
:100DC000521A1A61E28A586342EA01425A6421695E
:100DD0006268D963DA602068802828D0227F0FD823
:100DE000202867D0402865D004281AD0364B45EA21
:100DF000026545F40035B845DD6161D0334A44E011
:100E0000B0F5807F04D0B0F5007FEFD1304800E02E
:100E1000304840EA0262DA61E2681A625E62596151
:100E200032E045EA026242F40032DA61F6E7A06895
:100E3000021DDA62227F45EA026545F40035DD6174
:100E40005E625961017841B1012921D0224B234AC8
:100E500023484FF48D7122F013FADA69418822F4A5
:100E60007F42013922F0100242EA0122DA610121B7
:100E7000154BDA6942F02002DA61DA699206FCD495
:100E800010229A600029B9D0164A1A60BDE8F08194
:100E9000B2F1FF01DA69408822F47F4200F1FF30AD
:100EA00022F0100242EA002242F0100218BF012193
:100EB000DA61DDE745EA0262034B42F40032B4E74F
:100EC00042F20132E1E700BF00B00240012301001D
:100ED000090002000A00020099460208B34602080F
:100EE0000746020801230200024B1B68586803688A
:100EF0005B6918476837012070B5044625460A4BE0
:100F00000C30002660602672667245F8203B602235
:100F1000294609F0E9FE04F55A63EE6024359D4246
:100F2000FBD1204670BD00BF64500208034B1A6815
:100F3000D207FCD423229A60704700BF00B0024061
:100F40007047000030B50F4C2568ED07FCD4232511
:100F50000904A56041F001010225FF2B656361646E
:100F6000E0630AD00849656241EA0363E361074B25
:100F700022626061E060236030BDE561039BA36392
:100F8000034BF8E700B00240090001000100020035
:100F90000100030030B50E4C2568ED07FCD4232575
:100FA0001204A56042F001020225FF2B6563626412
:100FB000E063E16008D01B0643F00213E361054BD8
:100FC00065626061236030BD034BE3610123F9E793
:100FD00000B0024001000200020002FF30B50B4CDD
:100FE0002568ED07FCD4232512041B06A56043F4F5
:100FF0000033022542F0010265636264E063E16050
:10100000E361034B65626061236030BD00B0024064
:1010100001000200012070470C2070470C2303FBE5
:101020000100083070470C2303FB010008307047B3
:101030000120704741F21410704741F2141303FB72
:1010400001000830704741F2141303FB010008301F
:101050007047012070471020704700EB01100830E6
:10106000704700EB011008307047084601F046BC9D
:1010700010B5034B0360044608F065FC204610BD24
:101080001C51020810B50446FFF7F2FF2046142158
:1010900021F0B9F9204610BD10B5034B036004469A
:1010A00008F051FC204610BDE850020810B5044677
:1010B000FFF7F2FF204641F21C1121F0A4F920466F
:1010C00010BD000010B5034B0360044608F03BFC64
:1010D000204610BDB450020810B50446FFF7F2FFD9
:1010E0002046182121F08FF9204610BD10B5094B7C
:1010F0000360044600F58A500830FFF7B9FF04F199
:101100002C00FFF7C9FF04F11400FFF7DBFF2046B6
:1011100010BD00BF5051020808B50248FFF7E6FFB6
:1011200008BD00BF9C12002010B50446FFF7DEFF8B
:10113000204641F2BC2121F066F9204610BD000096
:101140002DE9F34101F0AAF9054601F0ABF90024BD
:101150000146234628462246009412F0C1F8274B48
:10116000274A1A60204603F0ABFB264D264B274A40
:1011700027489A6012F01CF82B68BFF35B8FDB07DF
:1011800035D4284621F041F988B3224C224B234F15
:10119000236004F58B5604F1140004F12C08606000
:1011A000C4F80880E760266108F0CEFB1C4B636141
:1011B000404608F0C9FB1B4BE362384608F0C4FB0D
:1011C00004F5805303F5AE70174AC3F8482103F0C5
:1011D00001FC2246311F304603F0F2FB304601F09D
:1011E0008DFB124822F06AF8284621F01AF91048BF
:1011F00002B0BDE8F041FFF7E5BB00BFCC370120EE
:101200004804002098120020680400204C040020AC
:10121000080000209C12002050510208E423002006
:10122000B4500208E85002081C51020819110008C5
:10123000C4030020704700000148FFF7D1BB00BF86
:10124000C403002070B5264E264C274D274B236043
:101250003046FFF751FE284617F048F924480FF0B2
:101260004FFD244B2448DC6000224FF48071C3E919
:10127000121222491A86C3E91A12214983F858200A
:10128000C3E91E011F49C3F880101F491F480B60A6
:10129000F021C3E90422C3E90622C3E90822C3E915
:1012A0000A22C3E90E22C3E91022C3E91422C3E9CA
:1012B00017225A6683F870205A67C3E901650180D6
:1012C0001348018013484FF4A07101801248018037
:1012D00012490A70012283F83420114A1A6070BD45
:1012E000F404002094120020680400201C4302082B
:1012F0004C040020C4030020000001010100000193
:10130000000450001A001400683701205C370120E7
:10131000623701205E3701206437012060370120E9
:10132000784F02080148FFF773BC00BFF4040020A7
:101330000020704781807047C180704701817047ED
:10134000418170477047704770477047704710B4CD
:10135000C4880368121B84885B6D091B12B25DF898
:10136000044B09B218474FF6FF7383814FF0FF33E8
:1013700003621368C36110607047002070478B8858
:10138000838001207047704780F82610704790F8DE
:101390002600704710B50022B1F90840B1F90A10D3
:1013A000028042808480C18010BD00220280428081
:1013B0008280C28070470177704780ED080A7047CD
:1013C00080F82410704780F825107047012070477E
:1013D000983070478C307047843070477047704742
:1013E00070470000034B902283F85A2383F8582358
:1013F000704700BF00E100E0094A0A49D3680A4883
:10140000C3F30A03013B9BB20B801169C1F30A01CC
:10141000013901801364536B43F001035363704738
:10142000006801405A25002058250020014BD3F8C0
:10143000AC00704700680140024B0122C3F8AC10B9
:101440005A6270470068014010B52C21044620F014
:10145000DAFF204610BD10B5BC21044620F0D3FFB2
:10146000204610BD70B5044608F06BFD23689D6EE4
:101470000EF0DEF901462046A8472368054AD3F856
:101480008C502046AC460023BDE87040A2F51631D2
:10149000604700BF00B004D008F03ABD08F044BD7A
:1014A00008F000BD08F06FBE90F8252012B1036867
:1014B0005B691847704790F825201AB190F82420EE
:1014C00002B1186070470000034B4FF080629A60D1
:1014D0004FF080729A60704700E100E0084B4FF0D7
:1014E0008062C3F88820BFF34F8FBFF36F8F4FF038
:1014F0008072C3F88820BFF34F8FBFF36F8F7047A0
:1015000000E100E070B50023124E8380124B0360AF
:10151000336893F8582005460AB1D86C00B998682A
:101520000368DB6A98473368B0FA80F4D86C6409C2
:1015300030B10368DB6A9847002808BF44F0010413
:101540002CB9064B064A07482C2121F099FE284663
:1015500070BD00BF6837012064510208F1460208DF
:101560004F4702088847020870B5254E3568BFF31B
:101570005B8F15F0010540D1304620F046FF002872
:101580003BD0204C204B256104F13400C4E90035E8
:10159000C4E90255E584A562A5850FF096FE04F125
:1015A00058000BF055F8194BA3652046184B40F82E
:1015B000843BFFF7A7FF174BC4F884302433C4F8EB
:1015C0008C304FF4C803C4E928350023C4F8AC308C
:1015D000C4F8B030C4F8B430C4F8B8300E480F4B7B
:1015E000C4F89050C4F89C50C4F8A850C4F898307F
:1015F00021F064FE304620F014FF024870BD00BFA9
:101600005C25002060250020F05E0208845102085D
:10161000FC510208A45E0208E1130008845E02087F
:1016200038B5184C23685BB3174B184A1B6C1188EC
:101630008B4216D1164B198804F0A8FE236893F844
:101640006A200025013283F86A2083F87C50FFF776
:10165000B3FA206809F0F2F92846BDE83840FFF7F0
:10166000F3B804F093FE2468236820461B6A984769
:10167000012384F87C300020BDE83840FFF70EB924
:1016800038BD00BF68370120006801405A2500209E
:101690005825002007B5064BADF806001B68054825
:1016A00001220DF1060105F029FC03B05DF804FBF1
:1016B0000C0000206026002008B5642006F0D8F851
:1016C000FBE7000030B595B0102200210AA821F0F8
:1016D000DEFF1422002103A821F0D9FF00241E4BB5
:1016E00001941A6C42F080521A641B6C03F0805310
:1016F0000193019B194B02941A6842F440421A600C
:101700001B6803F4404302930122029B4FF4803391
:10171000CDE9082302254FF480030821CDE90E53BB
:101720004FF4B473CDE9101308A804231393129552
:1017300004F084FE04F048FE0F23CDE903354FF496
:10174000A0504FF48053CDE90603052103A805946A
:1017500005F050F815B030BD003802400070004070
:101760002DE980489BB003F05FFCFFF7ABFF14222C
:1017700000210DA821F08BFF0024C74B00941A6BA9
:10178000C648C74D42F010021A631A6B02F01002ED
:101790000092009A01941A6B42F020021A631A6BAD
:1017A00002F020020192019A02941A6B42F0800228
:1017B0001A631A6B02F080020292029A03941A6B67
:1017C00042F004021A631A6B02F004020392039AB5
:1017D00004941A6B42F001021A631A6B02F00102C0
:1017E0000492049A05941A6B42F002021A631A6B6F
:1017F00002F002020592059A06941A6B42F040022A
:101800001A631A6B02F040020692069A07941A6B4A
:1018100042F008021A631B6B03F008032246079389
:101820003C21079B03F0C8FF9E480122022103F0E0
:10183000C3FF22469B48042103F0BEFF22469A487C
:101840004FF4405103F0B8FF01263C23CDE90D369B
:1018500092480F9403230DA90227109303F0C2FEB0
:1018600090480DA9CDE90D76CDE90F4403F0BAFEFD
:1018700004238C480DA9CDE90D36CDE90F4703F0BF
:10188000B1FE0DA94FF440538748CDE90D36CDE99F
:101890000F4703F0A7FE8548854B036003F098FDD2
:1018A000DFF834C2834B2C62C5E900C328464FF4ED
:1018B0008043C5E90434C5E90244C5E9064404F09F
:1018C00089F91021284604F0CDFB2146284604F072
:1018D000E8FB794DDFF804E2AC624FF48273C5E9AE
:1018E00000E34FF400781823C5E9068328460A234D
:1018F000C5E90244C5E90444C5E90844EB6205F0C2
:10190000A1FA8F232246394666488DF824308DF897
:10191000344003F051FF32464FF47A7309A9284648
:1019200005F0ECFA4FF47A7332460DA9284605F01B
:1019300091FC324639465B48604D03F03DFF9DF80F
:101940003430D32B04BF5E4B1E705E4B0126C5E9BD
:1019500000364FF0100840230024C5E904834FF4FB
:10196000C073C5E906344FF40063C5E908344FF489
:10197000005302274FF0040AAB624FF0030B07231A
:101980000DA92846CDE90D73CDE90FA34FF0080945
:10199000C5E9024ACDE911B7139705F037F94FF6BB
:1019A000FF7209A92846CDE90A96089409960C9475
:1019B00005F04CF9304603F063FB4FF6FF7209A9BE
:1019C0002846CDE90979CDE90B6405F03FF94FF6DA
:1019D000FF7209A92846CDE909B9CDE90BA405F0A4
:1019E00035F94FF40C730893089B0C934FF6FF7274
:1019F00009A92846CDE909A90B9605F027F940F277
:101A00006A51284605F040F9342221460DEB0200C8
:101A100021F03DFE2C4D2D4B2C61C5E900340923EE
:101A2000C5E905361D23C5E9073B40F20D1240F21A
:101A30004313C5E9092340F2171140F24713284622
:101A4000C5E90B13C5E90244AC8685F8364004F0BD
:101A5000BBFBFF21F022CDE912144FF48060052179
:101A60004FF4A073CDE91401CDE90E240DA9CDE901
:101A7000164228462246CDE91037154D18930D948D
:101A8000ADF864408DF8664004F052FC114B2B60B9
:101A90001B6898472B6823E0003802400010024082
:101AA0007027002000080240000C0240042800209B
:101AB00000300240A0860100602600202C26002075
:101AC00020260020400100A0C82600200068014018
:101AD0001C26002014000020005C00400050014043
:101AE000374DDB689847374B2846C5E90034C5E9D0
:101AF0000274C5E90A47C5E90C4403F079FC314694
:101B0000284603F02BFD304D304F424621460DA8AC
:101B100021F0BDFD2E4BAC604FF480392846C5E95D
:101B200000392C612C7685F82040EC62AF62EC60C5
:101B3000EE6185F830406E6103F0B6FA0DA92846D3
:101B4000CDE90D46234D0F9403F054FB4246214648
:101B50000DA821F09CFD204BAC602846C5E900395A
:101B6000C5E90A742C612C7685F82040EC60EE61A2
:101B700085F830406E6103F097FA0DA92846CDE94B
:101B80000D660F9403F036FB1448154B036005F007
:101B900025F8FEF78DFDFEF78AFD05F0F9FD114AE7
:101BA0001148214605F020FE104B114A18602146CD
:101BB000104805F019FE104B186005F0FBFDFEE71C
:101BC000C427002000B00240542800200100000F6C
:101BD000002001400C28002000210140B8260020F0
:101BE0000008065064520208B91600082826002092
:101BF00040520208BF0600082426002070477047A4
:101C00007FB5094B8DF817201B6802930DF1170261
:101C10000123009201930A460146044804F082F829
:101C200007B05DF804FB00BF100000207027002003
:101C30007FB500238DF81730084B1B6802930A46C6
:101C400001230DF11701009101930146044804F0AE
:101C5000F9F89DF8170007B05DF804FB10000020AC
:101C6000702700201FB5084C24680092CDE901348C
:101C70000A4601230146054804F0E4F8003818BF7D
:101C8000012004B010BD00BF10000020702700200C
:101C900003F0F6B910B5064C00222046042103F0EB
:101CA0008BFD20460122BDE81040042103F084BDD5
:101CB0000008024038B50B4D044601220A484FF493
:101CC000005103F079FD00220421284603F074FD41
:101CD0002046FFF7DFFC28460122BDE838400421FA
:101CE00003F06ABD00080240000C024038B50B4DFD
:101CF000044600220A484FF4005103F05DFD002223
:101D00000421284603F058FD2046FFF7C3FC28466F
:101D10000122BDE83840042103F04EBD0008024016
:101D2000000C0240F7B5144E144F05460C463046E1
:101D30000022042103F040FD00224FF400513846F8
:101D400003F03AFD2846FFF7A5FC0D4B0D481B6834
:101D5000224601A905F07EFA384601224FF40051CF
:101D6000019C03F029FD30460122042103F024FDEB
:101D7000204603B0F0BD00BF00080240000C024046
:101D80000C0000206026002003F07AB90268034BA3
:101D90009A4201D103F062B9704700BF00100040C1
:101DA0007047000082B00E4B00220092596C41F443
:101DB00080415964596C01F480410091009901926D
:101DC000196C41F0805119641B6C03F0805301932E
:101DD000019B0F216FF0010002B003F0B9BA00BF00
:101DE0000038024010B514228AB0044600210DEBE1
:101DF000020021F04CFC23681E4A93421FD11E4B67
:101E0000002101915A6C42F480725A645A6C02F4B7
:101E100080720192019A02911A6B42F001021A63D8
:101E20001B6B03F001030293029B012305931348EC
:101E3000032305A9069303F0D5FB0AB010BD104A91
:101E40009342FAD10C4B002103915A6C42F4007278
:101E50005A645A6C02F400720392039A04911A6B4A
:101E600042F001021A631B6B03F001030493049B0D
:101E70000223DBE70020014000380240000002405E
:101E8000002101400268094B9A4282B00BD1002325
:101E90000193074B1A6B42F480521A631B6B03F4D5
:101EA00080530193019B02B0704700BF0030024095
:101EB0000038024007B50F4B02689A4216D1002243
:101EC000A3F5F0430192196B41F4000119631B6BF8
:101ED00003F40003019305215A20019B03F038FA13
:101EE0005A2003B05DF804EB03F064BA03B05DF868
:101EF00004FB00BF00B002402DE9F043044689B066
:101F00001422002103A821F0C2FB2268244B9A422C
:101F100043D1244C244800250095236B43F004034F
:101F20002363236B03F004030093009B0195236B51
:101F300043F001032363236B03F001030193019B2F
:101F40004FF012094FF400734FF0010803270426E5
:101F500003A9CDE90339CDE90587079603F042FBD4
:101F60004FF480731148079603A9CDE90339CDE9F1
:101F7000058703F037FB0295236C43F400032364C9
:101F8000236C03F400030293029B236A43F40003CF
:101F90002362236A23F40003236209B0BDE8F083BF
:101FA000005C00400038024000080240000002408F
:101FB000F0B599B004461422002107A821F067FB70
:101FC00030220DEB0200002121F061FB22685E4B04
:101FD0009A4240F0B78008230C93C0231093042347
:101FE00012930CA84FF40033159304F0CBFC08B106
:101FF000FFF7D6FE554B5648002400945A6C42F029
:1020000080625A645A6C02F080620092009A0194D5
:102010001A6B42F020021A631A6B02F0200201923E
:10202000019A02941A6B42F001021A631A6B02F0D1
:1020300001020292029A03941A6B42F002021A639E
:102040001A6B02F002020392039A04941A6B42F094
:1020500040021A631A6B02F040020492049A05943B
:102060001A6B42F004021A631A6B02F00402059222
:10207000059A06941A6B42F008021A631B6B03F070
:102080000803069302250E26069B0B964FF48063E9
:1020900007A9CDE90735CDE9094503F0A3FA41F6D3
:1020A00058032C480B9607A9CDE907350927CDE938
:1020B000094503F097FA032327480B9707A9CDE9B1
:1020C0000735CDE9094503F08DFA4FF470632248D6
:1020D0000B9607A9CDE90735CDE9094503F082FA4A
:1020E0004FF40C631D480B9607A9CDE90735CDE9E0
:1020F000094503F077FAC02319480B9607A9CDE9E3
:102100000735CDE9094503F06DFA082315480B960C
:1021100007A9CDE90735CDE9094503F063FA4FF486
:10212000A0530E480B9707A9CDE90735CDE909451E
:1021300003F058FA58202246052103F009F95820E7
:1021400003F038F919B0F0BD0068014000380240D2
:102150000014024000000240000402400018024047
:1021600000080240000C02400268094B9A4282B00B
:102170000BD100230193074B5A6B42F040025A6384
:102180005B6B03F040030193019B02B0704700BFFB
:10219000000806500038024010B5044688B01422EA
:1021A000002103A821F073FA2268144B9A4223D12C
:1021B00003F56843002101915A6C114842F48012E2
:1021C0005A645A6C02F480120192019A02911A6BBD
:1021D00042F020021A631B6B03F020030293029B60
:1021E0004FF4607202230321CDE903230523CDE9D7
:1021F000061303A903F0F6F908B010BD0050014022
:10220000001402402DE9F04186B0002303932B4BCC
:102210001C68002C4FD14FF00108C3F80080284BF8
:1022200000949A6B274842EA08029A639B6B03EA80
:1022300008030093022703260C25009B01A94FF6F3
:102240003F03CDE90137CDE9046503F0CBF91E4822
:10225000059501A9CDE90187CDE9034603F0C2F94F
:1022600048F233131948059501A9CDE90137CDE9A5
:10227000034603F0B7F94FF683731548059501A996
:10228000CDE90137CDE9034603F0ACF94CF2037315
:102290001048059501A9CDE90137CDE9034603F0C2
:1022A000A1F960230C48059501A9CDE90137CDE9D5
:1022B000034603F097F906B0BDE8F0819C280020A2
:1022C000003802400014024000080240001802409A
:1022D00000100240000C02400004024070B588B0BB
:1022E00000230293204B1A6C42F010021A641B6CFC
:1022F00003F010030293054601A903A8029B04F012
:1023000023FB069B4BBB04F00FFB184E184B3360AE
:1023100040F2E733F360174BB0FBF3F3013B73601C
:10232000304600233361B360B36105F05DF90446C4
:1023300080B9304605F032F8044658B9362003F02B
:1023400039F80F2D0DD822462946362003F000F823
:10235000094B1D60204608B070BD04F0E5FA40004E
:10236000D3E70124F6E700BF00380240A028002090
:102370000010004040420F007C0000207047FEE744
:10238000FEE7FEE7FEE77047014805F045B800BFED
:10239000A0280020014803F06EBF00BFC82600201F
:1023A000014803F051B800BFC42700200120704746
:1023B00008B521F00FFA162303604FF0FF3008BD77
:1023C00008B521F007FA16230360FEE770B50D4645
:1023D00014460E46731B9C4201DC204670BDAFF3D1
:1023E000008006F8010BF5E770B50D4614460E4661
:1023F000731B9C4201DC204670BD16F8010BAFF345
:102400000080F5E74FF0FF3070474FF400534B600A
:102410000020704701207047002070470A4A116869
:1024200008B5034609B909491160106869460344B3
:102430008B4206D921F0CEF90C2303604FF0FF3018
:1024400008BD1360FCE700BFE8280020A844012075
:10245000704708B5042918D8DFE801F003070B0F0F
:10246000130002F079FA006808BD02F075FA4068BE
:10247000FAE702F071FA8068F6E702F06DFAC068D8
:10248000F2E702F069FA0069EEE70020ECE710B528
:10249000042104461FF0B7FF204610BD00487047D6
:1024A0009C5202080420704713B5002451B1036800
:1024B00001948DF8034001AA9C680DF10303A04725
:1024C00002B010BD0846FBE7C0897047008A70471C
:1024D000C088704780887047807A00F07F0070471E
:1024E000807AC00970470020704700009FED010A04
:1024F000704700BF00000000704710B50821044677
:102500001FF081FF204610BD7047704700F598739B
:102510000868496803C37047704770474160704757
:1025200070477047064BC0F84C310023C0F850315B
:1025300000F5A273C0F84801C0F84031704700BFF1
:1025400031270008012303727047704710B4C26836
:1025500041685410034601EB6200D20748BF0A5994
:102560009B685DF8044B48BFD35818470346406842
:1025700030B19A681AB9D86800F00100704701209C
:10258000704710B50C2104461FF03DFF204610BDDA
:1025900010B5102104461FF036FF204610BD10B5BF
:1025A0004FF4AE7104461FF02EFF204610BD10B54B
:1025B0000DF03EF90368BDE81040DB6B184710B51D
:1025C0000446D0F8400158B10368DB68984738B139
:1025D000D4F8400103689B6898470023C4F8403151
:1025E00010BD00002DE9F14FD0E9556A0746B068EB
:1025F00003681B6A984741F21313984205D8444B6D
:10260000444AA321444820F03BFE706803681B6ADB
:1026100098470F2803D8414B3E4AA421F2E7F068BF
:1026200003681B6A98470B2803D83D4B394AA521FC
:10263000E8E70DF0FDF8DFF8F09004300DF01DF93B
:10264000D9F8000010B10368DB689847D9F800009A
:1026500010B103681B689847DFF8D080D8F80000F5
:1026600010B103685B699847D7F83C0110B1036863
:102670005B689847D8F8000010B103681B6898475A
:10268000D7F83C0110B103689B689847F06803686D
:1026900000215B6A98474FF0000B224BC0F804B052
:1026A000044680F808B00360B068036859465B6A66
:1026B0009847054602F0FEF97068036859465B6A60
:1026C00098472946064602F0D3F9331DC7F83C6106
:1026D000C9F80040C8F80050CAF800302B68C6F8A6
:1026E00008A02846DB68EE639847336830461B68CD
:1026F0009847214628460FF04BFA236820461B696D
:10270000984723685B69204601B0BDE8F04F184741
:10271000FF4702088D4802085F490208A6490208DF
:10272000494A020870530208B0370120AC37012033
:102730002DE9F14FD0E9556A0746B06803681B6A76
:102740009847B0F5CE7F05D2444B454AA321454872
:1027500020F096FD706803681B6A98470F2803D81D
:10276000414B3F4AA421F2E7F06803681B6A98478F
:102770000B2803D83D4B3A4AA521E8E70DF058F85D
:10278000DFF8F09004300DF078F8D9F8000010B1BF
:102790000368DB689847D9F8000010B103681B682C
:1027A0009847DFF8D480D8F8000010B103685B695F
:1027B0009847D7F83C0110B103685B689847D8F890
:1027C000000010B103681B689847D7F83C0110B1AE
:1027D00003689B689847F068036800215B6A984724
:1027E0004FF0000B224BC0F804B0044680F808B04C
:1027F0000360B068036859465B6A9847054602F073
:102800001DF97068036859465B6A98472946064671
:1028100002F0F2F8331DC7F83C61C9F80040C8F86F
:102820000050CAF800302B68C6F808A02846DB68BC
:10283000EE639847336830461B6898472146284620
:102840000FF0A6F9236820461B69984723685B6947
:10285000204601B0BDE8F04F184700BFFF4702080F
:10286000EC4A02085F490208A6490208494A0208E0
:1028700070530208B0370120AC370120044B1B68AD
:1028800093F858200AB1D86C00B99868704700BF17
:1028900068370120F8B5174604460E460DF08AF851
:1028A000124B1C60124B2360124B0025C4E95135BA
:1028B000114BC4E953551868036801219B68C4E9AA
:1028C0004F55C4E955769847284601F0F9FFFFF7C0
:1028D000D5FF17F0B4FCFFF7D1FF17F02BFDFFF782
:1028E000CDFF17F033FD2046F8BD00BFBC370120F7
:1028F0001C5302080453020868370120064BC0F835
:102900004C310023C0F8503100F5A273C0F84801E3
:10291000C0F84031704700BF31270008064BC0F8AF
:102920004C310023C0F8503100F5A273C0F84801C3
:10293000C0F84031704700BFE5250008406A704785
:10294000806A704770478A880B8810B5D20A4C8815
:10295000C1699BB251F8220043EA0443184410BDF8
:1029600010B50446BAB1107B68B1537BD27A1B0212
:1029700003F4E0631A43236A03EB82031A888A4252
:1029800002D193F9020010BD05D8013880B204339A
:102990000028F3D1F7E70020F5E710B52C21044615
:1029A0001FF031FD204610BD30B58BB00446BDF898
:1029B00060500895BDF85C5007959DF850500695FD
:1029C0009DF84C5005959DF8485004959DF844504D
:1029D00003959DF8405002959DF83C500195BDF837
:1029E000385000950EF02EFD064B2360159BE361D9
:1029F000169B2362199B63621A9BA36220460BB04D
:102A000030BD00BF94530208806A7047704770471A
:102A100070477047704770477047704770477047FE
:102A200090F82C304BB100F16C021268C2653BB1DA
:102A300000F174031B680366704700F16802F4E755
:102A400000F17003F6E708B590F82C303BB100F1C7
:102A5000C4031B68C0F8A830FFF7E2FF08BD00F10F
:102A6000C003F6E730B4C26844685510034604EB6F
:102A70006200D20748BF62599B6830BC48BFD35838
:102A800018470346406830B19A681AB9D86800F010
:102A9000010070470120704790F82D3080F8AE306B
:102AA00080F85A30704790F82D3080F85A307047CF
:102AB00010B5782104461FF0A6FC204610BD10B5C5
:102AC000C82104461FF09FFC204610BD10B5102100
:102AD00004461FF098FC204610BD10B54FF4CE718F
:102AE00004461FF090FC204610BD10B50446006B54
:102AF00050B10368DB68984730B1206B036821460A
:102B00009B68BDE81040184710BD70B50D7990F86E
:102B10002C3004463DB93BB123682046D3F88830B9
:102B2000BDE8704018477BB1B5FA85F35B0984F8BE
:102B30002C3023682046D3F88C30984723682046F1
:102B40005B699847002DE7D070BDC430884208B556
:102B500005D10CF06DFEBDE80840FFF7DFBE08BDF3
:102B600070B5036804461B6B1546984723682946D1
:102B700020465B6BBDE87040184770B5036804469B
:102B80009B6B15469847236829462046DB6BBDE8BA
:102B90007040184738B504461D46FFF7E1FFBDF900
:102BA000102029462046FFF7E8FF38BD0022C0E983
:102BB0000122C0E90322C0E90522C0E907224FF43F
:102BC00080728284014A0260704700BFFC53020891
:102BD00010B526220446002120F059FD2046FFF7BB
:102BE000E5FF044B2360FF2384F826300023A36213
:102BF000204610BD446002084FF47F4370B506467E
:102C0000838540F2011300258384274B8562C0E948
:102C10000155C0E90355C0E90555C0E907550563ED
:102C200046F8343B04463046FFF7D2FF1F4B636340
:102C30002A4629463046C4E91A55C4E91C5525667A
:102C4000A4F86450FFF78CFF31462046264606F074
:102C50008DFE174B46F8783B26222946304620F059
:102C600016FD3046FFF7A2FF124BA367124BC4F8C4
:102C7000A0304FF6FF73A4F8A4304FF47F03C4F8DC
:102C8000AC304FF0FF332046C4E92E35C4E930554F
:102C9000C4F8A850A4F8B050C4F8B450314606F0B7
:102CA00065FE204670BD00BF64540208AC60020897
:102CB00000550208B45F0208F45202082DE9F04FF3
:102CC000044685B0A04600250EF0B6FD564BE563E0
:102CD00048F8403B04F16C0A404604F19806FFF7BF
:102CE00077FF5046FFF774FF4FF6FF7726222946FD
:102CF0003046ADF8087020F0CAFC3046FFF756FFAA
:102D00004A4BC4F89830BDF80830A4F8BE3002A988
:102D100084F8C070304604F1C4070AF08DF93846D3
:102D2000FFF76AFF424BC4E96334424B4FF4A07B88
:102D3000C4E965352A4629464046CDF800B0F0235F
:102D4000FFF728FF04F104094FF07F43A3664146D3
:102D5000484606F00BFE2A4629465046CDF800B0FC
:102D6000F023FFF717FF344BC4F894305146484620
:102D700006F0FCFD202229463046FFF7F1FE02A9AD
:102D80003046ADF808500AF057F9314648463C261F
:102D900006F0ECFD2A46294604F1F8000096B4231B
:102DA000FFF7F8FE0323A4F82831244BC4E94B3382
:102DB000234BC4E94D33D4F8C4303846D3F88C30B3
:102DC000984704F59E781F4B029302A92A23404698
:102DD000ADF80C3009F0D4FFB4F9CE20B4F9CC1022
:102DE0004046FFF7CAFE29460A2240460096B42311
:102DF000FFF7D0FE4FF0FF33C4E961333846FFF7E9
:102E000022FE04F5C673C4F8F430DF22B42338463A
:102E100000961E21FFF7BEFE4846394606F0A6FD85
:102E2000204605B0BDE8F08FB455020814610208D1
:102E30009C5502084B2B0008D0E8EDFF697578FF20
:102E4000464D4FFFF452020830B5036885B06D4619
:102E50000181D3F88430014604462846984795E816
:102E600007003C3484E8070005B030BD30B5036886
:102E700085B06D464181D3F884300146044628462A
:102E8000984795E807003C3484E8070005B030BD5A
:102E90000022028042808280C280704780F8361013
:102EA000704770B5036804461B6B15469847236846
:102EB000294620465B6EBDE87040184700207047E9
:102EC000806C704770477047704770477047704715
:102ED0007047704790F82C304BB100F16C021268CB
:102EE000C2653BB100F174031B680366704700F1D3
:102EF0006802F4E700F17003F6E708B590F82C30AB
:102F00003BB100F1C4031B68C0F8A830FFF7E2FF33
:102F100008BD00F1C003F6E730B4C268446855103C
:102F2000034604EB6200D20748BF62599B6830BC7D
:102F300048BFD35818470346406830B19A681AB959
:102F4000D86800F0010070470120704790F82D30DC
:102F500080F8AE3080F85A30704790F82D3080F805
:102F60005A30704710B54C2104461FF04CFA2046E9
:102F700010BD10B5782104461FF045FA204610BD5B
:102F800010B5C82104461FF03EFA204610BD10B50A
:102F9000102104461FF037FA204610BD10B541F24B
:102FA000141104461FF02FFA204610BD08B5FEF795
:102FB0007BFA08BD036870B55E6B124B1B68044654
:102FC0008DB22BB9104B114A6C21114820F058F9E1
:102FD0001049828D0988914203D80F4B0B4A6D210D
:102FE000F3E713F812200D4B1B6853F82200036817
:102FF0001B6B9847291A3346204609B2BDE870403A
:10300000184700BFC0370120BE4B0208004C020821
:103010003B4C0208C4370120824C0208C83701200B
:103020000B7970B590F82C6004460D460BB916B1BB
:1030300070BD002EFCD0B3FA83F35B0984F82C300A
:1030400023682046D3F88C309847236820465B6974
:103050009847002EECD02B79012BE9D1236820462C
:10306000D3F88830BDE87040184700F6084399420D
:1030700070B504460D4603D10CF0DAFBFFF73EFCB9
:1030800004F523639D4203D10CF0D2FBFFF736FC1D
:1030900004F6C8039D4203D10CF0CAFBFFF72EFCD7
:1030A00004F54D639D4205D1236820461B6BBDE8A6
:1030B0007040184770BD00004FF480710022818479
:1030C00005490160C0E90122C0E90322C0E90522E7
:1030D000C0E9072282627047C45D020800224FF0F7
:1030E000FF31C0E900218260704710B50446FFF748
:1030F000F5FF204610BD000010B500210446262231
:1031000020F0C5FA2046FFF751FD094B2360094B1B
:10311000A3624FF6FF73A3854FF47F020023C4E937
:103120000C32238704F13C00FFF7D8FF204610BD86
:10313000B45F0208F452020810B50446FFF7DCFF42
:10314000024B23600023A364204610BDE85502080B
:1031500070B50446FFF7B0FF4FF47F432646A385C2
:103160000123002584F82430134B256346F8343BB3
:103170003046FFF72DFD114B63632A462946304642
:10318000C4E91A55C4E91C552566A4F86450FFF734
:10319000E7FC31462046264606F0E8FB084B46F899
:1031A000783B3046FFF7A8FF2046C4E9305531464A
:1031B00006F0DCFB204670BD78560208AC600208C1
:1031C0001457020810B40367019B436703685DF856
:1031D000044BD3F88C30C0E91A12184738B50446AE
:1031E00000F17805284609F0CBFDB4F90A20B4F9BE
:1031F00008102846FFF7C1FC38BD0368C0E930124B
:10320000D3F88C30184700002DE9F04F0446BFB0CA
:10321000254600260EF010FBDB4BE66345F8403BED
:1032200004F16C072846FFF7D3FC04F1980A3846EE
:10323000FFF7CEFC04F1C4095046FFF73DFF4846B6
:10324000FFF7C6FC04F1F003184604F58E7B2193CA
:10325000FFF7BEFC5846FFF76FFF04F5B47318463E
:103260002293FFF7B5FC04F5CA7318461193FFF7D4
:1032700063FF04F5F07318462393FFF7A9FC04F5E8
:10328000037318461293FFF757FF04F51673184699
:103290002493FFF79DFC04F5217318461393FFF761
:1032A0004BFF04F5347318462593FFF791FC04F5A2
:1032B0003F7318461493FFF73FFF04F55273184607
:1032C0002693FFF785FC04F55D7318460393FFF71B
:1032D00033FF04F5707318462793FFF779FC04F564
:1032E0007B7318461593FFF727FF04F5876318468D
:1032F0002893FFF76DFC04F2644318461693FFF71A
:103300001BFF04F5966318462993FFF761FC04F24E
:10331000DC4318461793FFF70FFF04F5A563184623
:103320002A93FFF755FC04F2545318461893FFF7FD
:1033300003FF04F5B46318462B93FFF749FC04F22E
:10334000CC5318461993FFF7F7FE04F5C3631846EC
:103350002C93FFF73DFC04F2446318461A93FFF7E1
:10336000EBFE04F5D26318462D93FFF731FC04F20F
:10337000BC6318461B93FFF7DFFE04F5E1631846B4
:103380002E93FFF725FC04F2347318461C93FFF7C5
:10339000D3FE04F5F06318462F93FFF719FC04F2EF
:1033A000AC7318461D93FFF7C7FE04F5FF6318467C
:1033B0003093FFF70DFC04F6240318461E93FFF725
:1033C000BBFE04F5076318460493FFF775FE04F689
:1033D0009C0318463193FFF7FBFB04F6C80318461D
:1033E0000593FFF7B5FE04F5196318460693FFF73A
:1033F00083FE04F6D81318460293FFF75DFE04F629
:10340000042318463293FFF7E3FB04F523631846C1
:103410000793FFF79DFE04F6F82318460893FFF77D
:1034200097FE04F53C6318460993FFF765FE04F622
:10343000084318460A93FFF78BFE04F54D631846C0
:103440000B93FFF785FE04F6985318460C93FFF78D
:1034500033FE04F6C45318463393FFF7B9FB04F563
:103460005F6318461F93FFF767FE04F63C63184638
:103470000D93FFF741FE04F6846318460E93FFF7A1
:103480001BFE04F56B6318463493FFF7A1FB04F6AB
:10349000DC6318462093FFF74FFE04F628731846A6
:1034A0000F93FFF729FE04F5776326224FF6FF7886
:1034B000314618461093ADF8EC8020F0E8F81098EB
:1034C000FFF774FB314BC4F8703FBDF8EC30109837
:1034D000A4F8963F84F8988F3BA909F0ADFD2C4ADB
:1034E00004F58053C3E941242A4A4FF4A078C3E984
:1034F000432628463246CDF80080F0233146FFF7B8
:1035000049FB4FF07F43A366231D29461846359398
:1035100006F02CFA32463846CDF80080F0233146CA
:10352000FFF738FB1C4BC4F89430DC253946201DCE
:1035300006F01CFA2B4600955A220A215046FFF746
:1035400029FB2B463246484600953146FFF722FBC1
:10355000124BC4F8EC304946504606F007FA3227C1
:10356000A6221146219800973B46FFF713FB0C4B10
:103570002199C4F81831504606F0F8F91323B62201
:103580000093AB210EE000BFC85702081461020887
:10359000B05702086B300008D0E8EDFF7483B5FF28
:1035A0006691E8FF28235846FFF7F4FA4FF07F436F
:1035B000C4F84C31D4F81C31A4F8506136ADD3F8BE
:1035C0008430DFF8508059462846984795E8070030
:1035D00004F5AC7383E80700D8F8003004F69C7952
:1035E0002BB9074B074A602107481FF049FE074BDC
:1035F0001B88022B10D8064B024A6121F4E700BF5A
:10360000BE4B0208C04C02083B4C0208C4370120E4
:10361000824C0208C0370120CE4B0221186801F00D
:103620008BF9CD4A03460A2148460FF0B3FD142317
:103630005846C4F864913BA9DFF82893ADF8F03000
:10364000CDF8EC9009F09CFB5946504606F08EF9F7
:103650003B4622980097A6227021FFF79BFABF4AAB
:103660002299C4F89021504606F080F91321B62221
:103670001198009128237521FFF78CFAD4F8943122
:10368000A4F8C8614FF07F41D3F88430C4F8C41166
:1036900028461199984795E8070004F5E87383E8F0
:1036A0000700D8F8003004F57B6B002B99D0AC49AB
:1036B0000B88032B9FD9A74B0321186801F03CF915
:1036C000A54A03460A2158460FF064FD3BA815237E
:1036D0000146C4F8DCB11198ADF8F030CDF8EC90AB
:1036E00009F04EFB1199504606F040F93B462398ED
:1036F0000097A6223A21FFF74DFA984A2399C4F879
:103700000822504606F032F91320B62200902823F2
:1037100012983E21FFF73EFAD4F80C321299D3F8F2
:103720008430A4F840624FF07F40C4F83C02284641
:10373000984795E8070004F5127383E80700D8F866
:10374000003004F6C47B002B3FF44BAF84490B8858
:10375000042B7FF650AF7F4B0421186801F0ECF882
:103760007D4A03460A2158460FF014FD3BA8162354
:103770000146C4F854B21298ADF8F030CDF8EC9090
:1037800009F0FEFA1299504606F0F0F83B462498EC
:103790000097A6220421FFF7FDF9704A2499C4F886
:1037A0008022504606F0E2F81320B622009028232B
:1037B00013980921FFF7EEF9D4F884321399D3F85E
:1037C0008430A4F8B8624FF07F40C4F8B4022846B1
:1037D000984795E8070004F5307383E80700D8F8A8
:1037E000003004F6D87B002B3FF4FBAE5C490B881D
:1037F000052B7FF600AF574B0521186801F09CF8A8
:10380000554A03460A2158460FF0C4FC3BA817232B
:103810000146C4F8CCB21398ADF8F030CDF8EC9076
:1038200009F0AEFA1399504606F0A0F83B46702214
:1038300025980097A621494FFFF7ACF92599C4F8C0
:10384000F872504606F092F813221498009228233A
:103850008022AA21FFF79EF9D4F8FC321499D3F8FC
:103860008430A4F830634FF07F422846C4F82C23FC
:10387000984795E8070004F54E7383E80700D8F8E9
:10388000003004F6EC75002B3FF4ABAE34490B88E6
:10389000062B7FF6B0AE2F4BDFF8CC8018680621E0
:1038A00001F04AF82C4A03460A2128460FF072FC20
:1038B000C4F844533BAD18231498ADF8F0302946B2
:1038C000CDF8EC9009F05CFA1499504606F04EF8E9
:1038D000322670221146334626980096FFF75AF991
:1038E0002699C4F87073504606F040F81320282338
:1038F0008022009075210398FFF74CF936AF4FF006
:103900007F404FF000090399C4F8A403A4F8A893DA
:103910003846FFF7EAFB039800F13C0397E80700FD
:1039200083E80700D8F8003004F5805B002B3FF4F3
:1039300058AE0B4F3B88072B7FF65DAE054B07213A
:10394000186800F0F9FF044A03460A2158460FF0B0
:1039500021FC0BE0CC3701200B4D02086691E8FFFB
:10396000C4370120F4520208C0370120D04903981F
:10397000C4F8BCB319233B912946ADF8F03009F0E7
:10398000FFF90399504605F0F1FF3346279800965A
:1039900070223A21FFF7FEF8C64A2799C4F8E823B7
:1039A000504605F0E3FF1320282380223F2100909A
:1039B0001598FFF7EFF84FF07F40C4F81C04A4F807
:1039C00020942846FFF78AFB95E8070004F58563F5
:1039D00083E80700D8F800300BF1140B002B3FF4FC
:1039E00000AE3B88082B7FF606AEB34B0821186863
:1039F00000F0A2FFB14A03460A2158460FF0CAFB65
:103A0000AB491598C4F834B41A233B912946ADF854
:103A1000F03009F0B5F91599504605F0A7FF334687
:103A20002898009670220421FFF7B4F8A14A28993B
:103A3000C4F86024504605F099FF13202823802203
:103A4000092100901698FFF7A5F84FF07F40C4F8C1
:103A50009404A4F898942846FFF740FB95E80700E3
:103A600004F5946383E80700D8F8003004F5815B1F
:103A70000BF1080B002B3FF4B4AD3B88092B7FF60C
:103A8000BAAD8D4B0921186800F056FF8B4A0346EA
:103A90000A2158460FF07EFB85491698C4F8ACB44D
:103AA0001B233B912946ADF8F03009F069F91699CE
:103AB000504605F05BFF3346299800963A22A6212E
:103AC000FFF768F87B4A2999C4F8D824504605F0D6
:103AD0004DFF132028234A22AB2100901798FFF7AF
:103AE00059F84FF07F40C4F80C05A4F8109528460B
:103AF000FFF7F4FA95E8070004F5A36383E80700ED
:103B0000D8F8003004F5815B0BF11C0B002B3FF45F
:103B100068AD3B880A2B7FF66EAD674B0A211868AB
:103B200000F00AFF654A03460A2158460FF032FBAF
:103B30005F4917983B911C232946C4F824B5ADF87A
:103B4000F03009F01DF91799504605F00FFF334684
:103B50002A9800963A227021FFF71CF8554A2A99B4
:103B6000C4F85025504605F001FF132028234A22AF
:103B7000752100901898FFF70DF84FF07F40C4F8BA
:103B80008405A4F888952846FFF7A8FA95E8070069
:103B900004F5B26383E80700D8F8003004F58255D5
:103BA0001035002B3FF41DAD3B880B2B7FF623AD6A
:103BB000414B0B21186800F0BFFE404A03460A2122
:103BC00028460FF0E7FA3A49C4F89C553BAD1D234F
:103BD00018983B912946ADF8F03009F0D1F81899C2
:103BE000504605F0C3FE3A22334611462B98009604
:103BF000FEF7D0FF2F4A2B99C4F8C825504605F090
:103C0000B5FE132028234A223F2100901998FEF781
:103C1000C1FF4FF07F40C4F8FC05A4F80096284689
:103C2000FFF75CFA95E8070004F5C16383E8070035
:103C3000D8F8003004F5835B0BF1040B002B3FF444
:103C4000D0AC3B880C2B7FF6D6AC1B4B0C211868F4
:103C500000F072FE194A03460A2158460FF09AFAFC
:103C600013491998C4F814B61E233B912946ADF8A0
:103C7000F03009F085F81999504605F077FE334683
:103C80002C9800963A220421FEF784FF094A2C99C9
:103C9000C4F84026504605F069FE132028234A2226
:103CA000092100901A98FEF775FF4FF07F4007E05A
:103CB000F45202086691E8FFCC3701200B4D020850
:103CC000C4F87406A4F878962846FFF707FA95E832
:103CD000070004F5D06383E80700D8F8003004F546
:103CE000835B0BF1180B002B3FF47BAC3B880D2B57
:103CF0007FF681ACD24B0D21186800F01DFED14A31
:103D000003460A2158460FF045FACF491A98C4F8DD
:103D10008CB61F233B912946ADF8F03009F030F8FE
:103D20001A99504605F022FE33462D98009604223B
:103D3000A621FEF72FFFC54A2D99C4F8B826504694
:103D400005F014FE132028231422AB2100901B98A9
:103D5000FEF720FF4FF07F40C4F8EC06A4F8F09681
:103D60002846FFF7BBF995E8070004F5DF6383E811
:103D70000700D8F8003004F5845B0BF10C0B002B26
:103D80003FF42FAC3B880E2B7FF635ACAC4B0E21AD
:103D9000186800F0D1FDAB4A03460A2158460FF0DF
:103DA000F9F9A9491B98C4F804B720233B91294687
:103DB000ADF8F03008F0E4FF1B99504605F0D6FD51
:103DC00033462E98009604227021FEF7E3FE9F4AA8
:103DD0002E99C4F83027504605F0C8FD132028233B
:103DE0001422752100901C98FEF7D4FE4FF07F40FE
:103DF000C4F86407A4F868972846FFF76FF995E8B8
:103E0000070004F5EE6383E80700D8F8003004F5F6
:103E1000855B002B3FF4E5AB3B880F2B7FF6EBABCC
:103E2000874B0F21186800F087FD864A03460A2158
:103E300058460FF0AFF984491C983B91212329463D
:103E4000C4F87CB7ADF8F03008F09AFF1C995046E2
:103E500005F08CFD33462F98009604223A21FEF798
:103E600099FE7A4A2F99C4F8A827504605F07EFD9E
:103E7000132228233F211D9800921422FEF78AFE68
:103E80004FF07F42C4F8DC272846A4F8E097FFF7FC
:103E900025F995E8070004F5FD6383E80700D8F8E5
:103EA00000305D461435002B3FF49BAB3B88102B54
:103EB0007FF6A1AB624BDFF890911868102100F0FB
:103EC0003BFD3BAE5F4A03460A2128460FF062F9EC
:103ED00022231D98C4F8F4573146ADF8F030CDF8E0
:103EE000EC9008F04DFF1D99504605F03FFD322241
:103EF00013460092042211463098FEF74BFE534BB6
:103F00003099C4F82038504605F030FD13220921BD
:103F10001E98009228231422FEF73CFE00254FF045
:103F20007F43C4F85438A4F858583046FFF7D6F801
:103F300096E8070004F5066383E80700D8F8003028
:103F400004F586570837002B3FF44BAB40490B88EC
:103F5000112B7FF650AB3A4B1121186800F0ECFCA6
:103F6000384A03460A2138460FF014F923231E98D5
:103F7000C4F86C783146ADF8F030CDF8EC9008F02C
:103F8000FFFE50461E9905F0F1FC5146201D05F03C
:103F9000EDFC68200090F023049894222946FEF757
:103FA000F9FD6820F0232A4684F8955829460090A8
:103FB0003198FEF7EFFD27483199C4F8C408192756
:103FC000049805F0D3FC3C232A46294604F6FC005D
:103FD0000097FEF7DFFD4FF0020C1F4AA4F82CC932
:103FE00000921E4A1E4B05981146FFF7EBF8252359
:103FF0000598ADF8F03031464FF0FF38CDF8EC9031
:10400000FFF7ECF83C230322294604F514600097DF
:10401000FEF7C0FD04F5885A059842464146FFF771
:10402000ECF80AF1040A3C231A46C4F8F8A80598EB
:1040300000975A21FEF7AEFDDDE9040112E000BF52
:10404000CC3701200B4D0208F45202086691E8FFBC
:10405000C43701202D5403FF996633FF1F0EB2FFB2
:10406000663300FF05F082FC0DF1D80B0F22069895
:104070004A21FEF775FD0699C4F8C0895846A4F890
:10408000C45908F0E3FB069800F13C039BE80700E5
:1040900083E8070024230698ADF8F0303146CDF8C8
:1040A000EC9008F06DFE0699049805F05FFC049909
:1040B000201D05F05BFC4FF0680E0298CDF800E083
:1040C000F02394222946FEF765FD4FF0680EF02399
:1040D0002A46329884F8FD592946CDF800E0FEF7CB
:1040E00059FDD1483299C4F82C0A029805F03EFCDB
:1040F0003C232A46294604F664200097FEF74AFD31
:104100004FF0020CC94AA4F894CA0092C84AC94B9D
:1041100007981146FFF756F826230798ADF8F030B8
:104120003146CDF8EC90FFF759F83C23032229469D
:1041300004F6A8200097FEF72DFD07984246414659
:10414000FFF75BF83C231A46C4F860AA079800976B
:10415000A021FEF71FFD0799029805F007FC6E23CA
:104160002A46294604F62C300097FEF713FD4FF03F
:10417000020CAE4AA4F85CCB0092AD4AAD4B089855
:104180001146FFF71FF827230898ADF8F0303146A5
:10419000CDF8EC90FFF722F86E230322294604F5B0
:1041A00037600097FEF7F6FC089842464146FFF755
:1041B00024F86E233C22089800971421FEF7EAFCAD
:1041C0000899029805F0D2FB0F2209980C21FEF7FE
:1041D000C7FC0999C4F8F08B5846A4F8F45B08F0C2
:1041E00035FB099800F13C039BE8070083E80700D2
:1041F00028230998ADF8F0303146CDF8EC9008F05E
:10420000BFFD0999029805F0B1FB0299201D05F048
:10421000ADFB3C232A46294604F63C400097FEF7B6
:10422000B9FC824A834B84490A984FF0020CA4F8E7
:104230006CCC0092A2F54B12A2F6CD42FEF7C2FF63
:104240002D230A98ADF8F0303146CDF8EC90FEF70A
:10425000C5FF3C230322294604F548600097FEF77A
:1042600099FC0A9842464146FEF7C7FF3C231A468E
:10427000C4F838AC0A980097AA21FEF78BFC0A997B
:10428000201D05F073FB3C232A46294604F6045002
:104290000097FEF77FFC654A664B67490B984FF025
:1042A000020CA4F834CD0092A2F54B12A2F6CD4236
:1042B000FEF788FF29230B98ADF8F0303146CDF892
:1042C000EC90FEF78BFF3C230322294604F648506E
:1042D0000097FEF75FFC0B9842464146FEF78DFFC4
:1042E0003C231A46C4F800AD0B9800976421FEF7F2
:1042F00051FC0B99201D05F039FB322000903C2326
:104300000C980522AA21FEF745FC32203C232A46C0
:10431000009029463398FEF73DFC48483399C4F88D
:10432000EC0D0C9805F022FB4FF0130E2A233A46B1
:1043300009211F98CDF800E0FEF72CFCC4F8208E70
:10434000A4F8245E3046FEF7C9FE96E8070004F69E
:104350002C6383E807003A4A136804F5865A0AF189
:104360001C0A002B3FF43DA936490B88002B3FF473
:1043700042A9354B2946186800F0DEFA334A034655
:104380000A2150460EF006FF12231F98C4F838AEDB
:104390003146ADF8F030CDF8EC904FF0140A08F04B
:1043A000EFFC1F990C9805F0E1FA3C2301220D98CF
:1043B000CDF800A02946FEF7EDFB0D99C4F86C8EF0
:1043C0005846A4F8705E08F041FA0D9800F13C03DD
:1043D0009BE8070083E807002C230D98ADF8F03028
:1043E0003146CDF8EC9008F0CBFCDDE90C0105F08E
:1043F000BDFA0C99201D05F0B9FA4FF0320E0E9857
:10440000CDF800E03C2305226421FEF7C3FB4FF00A
:10441000320ECDF800E03C232A4634982946FEF7B8
:10442000B9FB0648349913E02D5403FF996633FF16
:104430001F0EB2FF663300FF996600FF46468FFFEE
:10444000C0370120C4370120CC3701200B4D0208B2
:10445000C4F8D80E0E9805F089FA13203A462A239C
:10446000092100902098FEF795FBC4F80C8FA4F862
:10447000105F3046FEF732FE96E8070004F6187328
:1044800083E80700314A136804F587571037002B7B
:104490003FF4A7A82E490B88012B7FF6ACA82D4B23
:1044A0000121186800F048FA2B4A03460A213846D1
:1044B0000EF070FE4FF013032098C4F8247F3146AD
:1044C000ADF8F030CDF8EC9008F05AFC20990E9839
:1044D00005F04CFA0F98CDF800A03C2301222946A4
:1044E000FEF758FB0F99C4F8588F5846A4F85C5F44
:1044F00008F0ACF99BE807000F9BCDF8EC903C333B
:1045000083E807002B230F98ADF8F030314608F010
:1045100037FCDDE90E0105F029FA0E99201D05F0A2
:1045200025FA052210980A21FEF71AFB4FF0020C1B
:104530001098ADF8ECC0314608F07EFD201D1099B2
:1045400005F014FA20463FB0BDE8F08FC0370120D7
:10455000C4370120CC3701200B4D02087047000002
:1045600030B5164D2C6814F001048FB0BFF35B8F8B
:1045700021D128461DF049FFE8B1114B11491248DD
:104580000A94CDE90B433F230993104B0893104B3A
:1045900005940122CDE906430423CDE903320E231D
:1045A0000093CDE90144FEF7FFF90A481EF086FEAC
:1045B00028461DF036FF04480FB030BDEC2800201F
:1045C000FC57020858770208F0280020A87A020851
:1045D000E47A02085D4500087047000030B5174DC9
:1045E0002C6814F001048FB0BFF35B8F23D12846F1
:1045F0001DF00BFFF8B1124B124913480A94CDE994
:104600000B433F230993114B0893114B079301234D
:10461000CDE9054304930423CDE902430F2300931E
:104620001C2213230194FEF7BFF90A481EF046FE30
:1046300028461DF0F6FE04480FB030BD1C290020AE
:10464000FC5702086877020820290020AC7A02088B
:10465000E87A0208D94500087047000030B5174DC8
:104660002C6814F001048FB0BFF35B8F23D1284670
:104670001DF0CBFEF8B1124B124913480A94CDE954
:104680000B433F230993114B0893114B07930123CD
:10469000CDE9054304930423CDE90243112300939C
:1046A00015231A460194FEF77FF90A481EF006FE0C
:1046B00028461DF0B6FE04480FB030BD4C2900203E
:1046C000FC570208F078020850290020B07A02084E
:1046D000EC7A0208594600087047000030B5164DC4
:1046E0002C6814F001048FB0BFF35B8F21D12846F2
:1046F0001DF08BFEE8B1114B114912480A94CDE927
:104700000B433F230993104B0893104B0594012250
:10471000CDE906430423CDE9033214230093CDE908
:104720000144FEF741F90A481EF0C8FD28461DF075
:1047300078FE04480FB030BD7C290020FC570208E9
:10474000187A020880290020D47A0208F07A020838
:10475000D94600087047000030B5174D2C6814F09A
:1047600001048FB0BFF35B8F23D128461DF04DFEAF
:10477000F8B1124B124913480A94CDE90B433F2379
:104780000993114B0893114B07930123CDE905437E
:1047900004930423CDE902431E2300930922252319
:1047A0000194FEF701F90A481EF088FD28461DF025
:1047B00038FE04480FB030BDAC290020FC57020879
:1047C000287A0208B0290020D87A0208F47A020870
:1047D0005547000800207047002070470EB403B50D
:1047E00003AB002153F8042B01930CF0A9F802B09D
:1047F0005DF804EB03B070470CB407B504AB53F895
:10480000042B01930CF09CF803B05DF804EB02B0AC
:1048100070470000436C10B5044673B3038F2BB987
:10482000184B194AC52119481EF02AFDC38E00EB0A
:1048300043035B8C0BB30DF004FF238F012B03D8D4
:10484000134B144ACB21EEE7E28E531C9BB2092B8B
:10485000194688BFA3F10A0104EB410140F63F105D
:10486000498C814209D10A2B04EB420228BF002364
:1048700004EB4303508C588451842046BDE810401B
:104880000DF0E2BD0E4D0208174D0208C24D0208A0
:104890000C4E02081A4E02080DF09DBD10B586B0F0
:1048A00002AC84E806001A460AAB05930193099B03
:1048B00000932146089B0AF059FB06B010BD00008A
:1048C00038B518BB124B13481C681349B4B12268A1
:1048D00022440260626822440A60A26814440F4BBA
:1048E00000221A8000F038F8054600F033F80C4B2F
:1048F0001C600C4B1D600C4B188007E00B4B0360D9
:104900000B4B0B600B4B1C68002CE8D138BD00BF73
:10491000E8290020E0290020DC290020E4290020EB
:10492000C0370120C8370120C4370120B07B0208FE
:10493000F87A0208A87C0208044B1B6853F821008F
:10494000034B1B6803EB4000704700BFDC290020CD
:10495000E02900202E20704700487047EC290020F5
:1049600010B5FFF7BBFE074C2060FFF7F5FE606057
:10497000FFF7F6FDA060FFF731FEE060FFF76EFE87
:10498000206110BDEC29002010B5002404600C60EB
:1049900014601C6010BD704710B54FF4AE71044632
:1049A0001DF031FD204610BD10B50446D0F8580169
:1049B00000F013F82046BDE810400AF0BBBF00002D
:1049C00010B50446FDF766FF014B2360204610BD7D
:1049D0005C5C020800220260704770477047043830
:1049E0007047704710B5102104461DF00CFD20469D
:1049F00010BDA0F10400F5E700228260024A0260C7
:104A000018324260C1607047B05C02087047000015
:104A100010B5034B03600446FEF700F8204610BDB6
:104A2000D85C020810B50446FFF7F2FF20464FF4A9
:104A3000CE711DF0E8FC204610BD000010B5044604
:104A4000FEF73CF9014B2360204610BDD85C0208FC
:104A5000FDF7E5BF704704387047704710B5102167
:104A600004461DF0D0FC204610BDA0F10400F5E77F
:104A700000228260024A026018324260C1607047C0
:104A80000C5D02087047000010B5034B036004463C
:104A9000FEF71EFA204610BD345D020810B504462C
:104AA000FFF7F2FF204641F214111DF0ACFC204646
:104AB00010BD000010B50446FEF7A6FB014B2360B5
:104AC000204610BD345D0208FEF703BAF02070479F
:104AD0004FF4A07070472920FDF708B92820FDF792
:104AE00005B908B5FDF7D6F8CA20FDF7FFF8C320D1
:104AF000FDF7E0F80820FDF7DDF85020FDF7DAF8C3
:104B0000CF20FDF7F3F80020FDF7D4F8C120FDF722
:104B1000D1F83020FDF7CEF8ED20FDF7E7F864205E
:104B2000FDF7C8F80320FDF7C5F81220FDF7C2F81D
:104B30008120FDF7BFF8E820FDF7D8F88520FDF7C4
:104B4000B9F80020FDF7B6F87820FDF7B3F8CB20D0
:104B5000FDF7CCF83920FDF7ADF82C20FDF7AAF8C9
:104B60000020FDF7A7F83420FDF7A4F80220FDF798
:104B7000A1F8F720FDF7BAF82020FDF79BF8EA200E
:104B8000FDF7B4F80020FDF795F80020FDF792F846
:104B9000B120FDF7ABF80020FDF78CF81B20FDF7E6
:104BA00089F8B620FDF7A2F80A20FDF783F8A220C5
:104BB000FDF780F8C020FDF799F81020FDF77AF88E
:104BC000C120FDF793F81020FDF774F8C520FDF71C
:104BD0008DF84520FDF76EF81520FDF76BF8C7201E
:104BE000FDF784F89020FDF765F83620FDF77EF894
:104BF000C820FDF75FF8F220FDF778F80020FDF7F8
:104C000059F8B020FDF772F8C220FDF753F8B6202E
:104C1000FDF76CF80A20FDF74DF8A720FDF74AF8DC
:104C20002720FDF747F80420FDF744F82A20FDF778
:104C30005DF80020FDF73EF80020FDF73BF800206E
:104C4000FDF738F8EF20FDF735F82B20FDF74EF88B
:104C50000020FDF72FF80020FDF72CF80120FDF7CC
:104C600029F83F20FDF726F8F620FDF73FF8012050
:104C7000FDF720F80020FDF71DF80620FDF71AF8D3
:104C80002C20FDF733F8C820FDF77EF82620FDF72D
:104C90002DF80120FDF70EF8E020FDF727F80F2092
:104CA000FDF708F82920FDF705F82420FDF702F8A4
:104CB0000C20FCF7FFFF0E20FCF7FCFF0920FCF79F
:104CC000F9FF4E20FCF7F6FF7820FCF7F3FF3C20BD
:104CD000FCF7F0FF0920FCF7EDFF1320FCF7EAFFDB
:104CE0000520FCF7E7FF1720FCF7E4FF1120FCF795
:104CF000E1FF0020FCF7DEFFE120FCF7F7FF0020DA
:104D0000FCF7D8FF1620FCF7D5FF1B20FCF7D2FFDD
:104D10000420FCF7CFFF1120FCF7CCFF0720FCF7A5
:104D2000C9FF3120FCF7C6FF3320FCF7C3FF422048
:104D3000FCF7C0FF0520FCF7BDFF0C20FCF7BAFF15
:104D40000A20FCF7B7FF2820FCF7B4FF2F20FCF760
:104D5000B1FF0F20FCF7AEFF1120FCF7C7FFC82002
:104D6000FDF712F82920FCF7C1FFBDE808402C2010
:104D7000FCF7BCBF08B5FCF78DFF0321D320FCF77F
:104D8000D1FF80B208BD10B5C4B202220321204673
:104D9000FCF736FF0A20FCF77BFF204600220321A8
:104DA000FCF72EFFBDE810400220FCF771BF38B5BC
:104DB0000446E4B2FCF722FF00212046FCF738FF4E
:104DC000012105462046FCF733FF40EA052080B26A
:104DD00038BD10B5C4B240212046FCF729FF0306B8
:104DE00007D54C212046FCF723FF003818BF0120CF
:104DF00010BD01224B212046FCF702FF2046002275
:104E00004B21FCF7FDFE0020F2E773B50423C4B28A
:104E10000E461546D7210DEB03022046FCF722FF74
:104E2000019B1BBA1A0DC3F30B23328020462B8043
:104E300001224B21FCF7E4FE00224B212046FCF727
:104E4000DFFE02B070BD000010B50A4A1378984228
:104E500004460DD0517888420AD00BB141B90123E4
:104E6000D454FCF7CBFE2046BDE81040FFF78BBFC3
:104E700010BD00BF002A002010B5C4B20921204691
:104E8000FCF7D6FE40F00102D2B220460921BDE86F
:104E90001040FCF7B5BE10B5C4B209212046FCF79E
:104EA000C7FE092100F0FE022046BDE81040FCF7D5
:104EB000A7BE38B5C4B20D4620460A21FCF7B8FE9D
:104EC00040EA0502D2B220460A21BDE83840FCF78C
:104ED00097BE10B50446FCF792FE20461F21FFF74F
:104EE000E8FF2046BDE81040FFF7C6BF38B5C4B2A2
:104EF0000D4620460A21FCF79BFE20EA0502D2B2AD
:104F000020460A21BDE83840FCF77ABE10B50446B9
:104F1000FFF7C1FF20461F21BDE81040FFF7E6BFA5
:104F200010B5C0B20C460B21FCF782FE204010BD2C
:104F30001F21FFF7F5BF0A46C0B20B21FCF760BE88
:104F40001F21FFF7F8BF38B5C4B20D462046172120
:104F5000FCF76EFE20EA0502D2B220461721BDE81A
:104F60003840FCF74DBE70B5C4B206460421204659
:104F7000FCF75EFE042100F0FB0205462046FCF72C
:104F80003FFE3046F021FFF7DEFF05F0F802204635
:104F90000421FCF735FE492220212046FCF730FE93
:104FA0000220FCF775FE204601222121FCF728FE95
:104FB00020469A224121FCF723FE204601224A2165
:104FC000FCF71EFE204601224B21FCF719FE20466D
:104FD00000224B21FCF714FE204601225621FCF74B
:104FE0000FFE204601225821FCF70AFE204601222E
:104FF0004021FCF705FE2046FF220B21FCF700FEB6
:10500000BDE870400220FCF743BE0000054BD3F81A
:10501000882042F47002C3F888204FF000629A6042
:10502000704700BF00ED00E008B50B4B1A6842F472
:1050300000721A601A6842F480621A601A6842F4B8
:1050400080721A60032000F071F90020FDF746F924
:10505000FCF7A8FE002008BD003C0240034A044BB8
:1050600011681B780B441360704700BF042A0020AE
:1050700078000020014B1868704700BF042A002008
:1050800038B50446FFF7F6FF631C1CBF054B1B78C1
:10509000054618BFE418FFF7EDFF431BA342FAD300
:1050A00038BD00BF7800002038B50446002800F065
:1050B0009B80056C25B9FCF795FE656484F83C502F
:1050C000236CDB0600F18E80236C23F4885323F0DD
:1050D000020343F002032364444B5A6822F4403233
:1050E0005A605A6861680A435A60236821695A689D
:1050F00022F480725A605A6842EA01225A605A6861
:10510000A16822F040725A605A680A435A609A684D
:10511000E16822F400629A609A680A439A6034490E
:10512000A26A8A4252D0996821F0706199609968A8
:105130000A439A609A68E16A22F040529A609A683B
:105140000A439A609A6822F002029A609A68217E65
:1051500042EA41029A6094F82020002A3ED05A6820
:10516000616A42F400625A605A6822F460425A60EE
:105170005A68013942EA41325A60DA6AE16922F436
:105180007002DA62DA6A013942EA0152DA629A6836
:1051900022F400729A609A6894F8301042EA412230
:1051A0009A609A68616922F480629A609A68002025
:1051B00042EA81229A606064236C23F0030343F087
:1051C00001032364002384F83C3038BD9A6822F040
:1051D00070629A609A6822F04052B2E75A6822F4EC
:1051E0000062C9E70120EDE70120EEE7002301405E
:1051F0000100000FF7B50023019390F83C30012B1C
:10520000054600F08680012380F83C3008682B6852
:105210008E68092884B233D904EB4402DF681E3A51
:105220004FF0070C0CFA02FC27EA0C07DF60DF687E
:1052300006FA02F23A43DA604968062901EB810274
:105240002DD8596B053A1F26964021EA060159636D
:10525000596B04FA02F20A435A632F4A93420AD165
:10526000122837D12D4B5A6822F400025A605A682E
:1052700042F480025A60002085F83C0003B0F0BD83
:105280001A6900EB400C072707FA0CF722EA07021D
:105290001A611A6906FA0CF616431E61CCE70C294E
:1052A0004FF01F010BD81E6B233A914026EA0101F3
:1052B0001963196B04FA02F20A431A63CDE7DE6A36
:1052C000413A914026EA0101D962D96A94400C43DF
:1052D000DC62C2E7124B984201D01128CBD10F4BB0
:1052E0005A6822F480025A605A6842F400025A60F6
:1052F0000B4B9842BFD10B4B0B4A1B68B3FBF2F32D
:105300000A2253430193019B002BB4D0019B013B24
:10531000F8E70220B2E700BF00200140002301406F
:10532000120000107400002040420F000749CA68B4
:1053300022F4E0620302120403F4E063120C13434C
:1053400043F0BF6343F40033CB60704700ED00E0EF
:10535000164B30B5DC68C4F30224C4F10703251DE5
:10536000042B28BF0423062D4FF0FF358CBF033CD0
:10537000002405FA03F321EA0303A54022EA05020B
:10538000A340002843EA0203ACBF00F16040084A92
:105390004FEA0313B8BF00F00F00DBB2AABF00F55D
:1053A0006140135480F8003330BD00BF00ED00E0D1
:1053B00014ED00E0002807DB044A4109012300F056
:1053C0001F00834042F82130704700BF00E100E039
:1053D00010B5044650B1437903F0FF0213B90271CE
:1053E000FCF750FD01236371002010BD0120FCE794
:1053F00010B5044620B390F8393003F0FF021BB912
:1054000080F83820FCF756FD022384F839302368F1
:1054100061681A6822F440320A431A605A6BA16824
:1054200022F007020A435A631A6CE1686FF30D0217
:105430000A431A6400200123E06384F8393010BD68
:105440000120FCE770477047036870B55E681D680F
:10545000F207044614D5E90512D51A6822F48072C1
:105460001A60C26B42F00102C26301229A600423F7
:1054700080F83930002380F83830436903B1984709
:10548000B20616D5AB0414D523681A6822F400526C
:105490001A6020229A60E36B43F00203E363042363
:1054A00084F83930002384F8383063690BB1204622
:1054B0009847300716D5290514D523681A6822F4B1
:1054C00000621A6008229A60E36B43F00403E3630E
:1054D000042384F83930002384F8383063690BB131
:1054E0002046984772070BD56B0509D523681A68C3
:1054F00022F480621A6004229A602046FFF7A2FF1D
:10550000B00714D5A90512D523681A6822F40072D1
:105510001A6002229A60E36BE363012384F8393056
:10552000002384F8383023690BB120469847F206EF
:1055300013D5EB0411D523681A6822F480521A603F
:1055400010229A60E36BE363012384F8393000236F
:1055500084F838302046FFF776FF70BDF0B590F83C
:105560003820012A03464FF002002BD0012283F895
:10557000382083F8390003EB0112D2E90740556A5D
:10558000174F44EA0040093C012C9CBF05F07F42C4
:1055900010434FEA01161A6888BF40EA056091B9C6
:1055A000516A394001435162012C9969916103D8D4
:1055B000596A21F07F4191620122002083F839204D
:1055C00083F83800F0BDD16939400143D1619919A0
:1055D000012C896911619CBF25F07F451562EBE7BD
:1055E000F0FFFC002DE9F74FDFF8BC916C4A002377
:1055F0000D6801249C4004EA0506AC4340F0B780E6
:105600004D68032705F003044FEA430807FA08FC36
:10561000671E012F6FEA0C0C34D8876807EA0C0E5E
:10562000CF6807FA08F747EA0E078760476827EA56
:10563000060EC5F300179F4047EA0E074760C7688C
:1056400007EA0C0E8F6807FA08F747EA0E07022CE4
:10565000C76019D14FEAD30A00EB8A0A03F0070B9F
:10566000DAF820704FEA8B0B4FF00F0E0EFA0BFE9C
:1056700027EA0E0E0F6907FA0BF747EA0E07CAF87A
:10568000207001E0032CDAD1076804FA08F407EA75
:105690000C073C4315F4403F046068D0002401949B
:1056A000D9F8444044F48044C9F84440D9F844400F
:1056B00023F0030707F1804704F4804407F59C3783
:1056C000019403F0030C019CD7F808E04FEA8C0C1E
:1056D0000F2404FA0CF42EEA040E324CA0424DD0F2
:1056E00004F58064A0424BD004F58064A04249D008
:1056F00004F58064A04247D004F58064A04245D000
:1057000004F58064A04243D004F58064A04241D0F7
:1057100004F58064A0423FD004F58064A0423DD0EF
:1057200004F58064A04214BF0A24092404FA0CF48E
:1057300044EA0E04BC609468F74315F4801F0CBF64
:105740003C4034439460D46815F4001F0CBF3C40C7
:105750003443D460546815F4003F0CBF3C403443DC
:1057600054601468ED0354BF3C403443146001336B
:10577000102B7FF43DAF03B0BDE8F08F0024D5E7D8
:105780000124D3E70224D1E70324CFE70424CDE7A3
:105790000524CBE70624C9E70724C7E70824C5E7A3
:1057A000003C0140000002400038024003691942F9
:1057B00014BF0120002070470AB1816170470904BD
:1057C000FBE7436901EA030221EA030141EA0241DE
:1057D0008161704701684B6913F480634FF00002E8
:1057E00010D06FF480634B612023026380F83D305A
:1057F00080F83E20036C80F83C2043F004030364EF
:1058000001207047184670472DE9F84606460F46B6
:1058100091461D464FEA114A3368BAF1010F0CBF99
:105820005C699C6927EA0404A4B2B4FA84F46409AC
:10583000A14501D0002025E06A1CEED0FFF71AFC3C
:10584000089BC01AA84201D8002DE5D13368BAF1EF
:10585000010F0CBF5B699B6927EA03039BB2B3FA94
:1058600083F35B099945D7D100232022336386F85F
:105870003D2086F83E30326C86F83C3042F0200203
:1058800032640120BDE8F8862DE9F04104460F4658
:10589000164698462568686927EA000080B2C0B1BC
:1058A0006B695A0517D52B6843F400732B606FF4AE
:1058B00080636B6120220023236384F83D2084F8F9
:1058C0003E30236C43F004032364002384F83C300F
:1058D0000120BDE8F081731CDDD0FFF7CBFBA0EB0E
:1058E0000800B04201D8002ED4D123685A6927EAB3
:1058F000020292B2002ACDD000232022236384F832
:105900003D2084F83E30236C1343DDE770B5044638
:105910000D46164623685B691B0601D500201EE074
:105920002046FFF757FFC8B96A1CF3D0FFF7A2FB68
:10593000801BA84201D8002DECD123685B6913F0CD
:105940008003E7D12022236384F83D2084F83E3091
:10595000226C84F83C3042F020022264012070BDA9
:105960002DE9F0431546026885B0DDE90C789946CB
:10597000136843F4807313600E463B46CDF80080F5
:1059800000224FF001110446FFF73EFF236838B1B3
:105990001B68DB0502D54FF400732364032620E067
:1059A00006F0FE061E611A4943463A462046FFF7B6
:1059B0006BFFA8B9236803905A6903929B6903930C
:1059C000424639462046039BFFF7A0FF064660B1DA
:1059D000236C042B01BF2268136843F40073136027
:1059E0000126304605B0BDE8F083B9F1010F236808
:1059F00002D1EDB21D61F4E72A0A1A613946424626
:105A00002046FFF783FF0028E2D12368F1E700BFBB
:105A1000020001002DE9FF479A46036815461A68FF
:105A200042F480621A601A68DDE90C7842F48072F0
:105A30001A600E463B46CDF8008000224FF001115F
:105A40000446FFF7E1FE236838B11B68DB0544BF5D
:105A50004FF400732364032021E05FFA86F906F017
:105A6000FE061E612B4943463A462046FFF70CFFCF
:105A7000A0B9236803905A6903929B690393424635
:105A800039462046039BFFF741FF58B1236C042B96
:105A900001BF2268136843F400731360012004B04F
:105AA000BDE8F087BAF1010F23681AD1EDB2424682
:105AB0001D6139462046FFF729FF02460028E5D13F
:105AC00021680B6843F480730B602046CDF800809A
:105AD0003B464FF00111FFF797FE226860B1136853
